{
  "_format": "hh-sol-artifact-1",
  "contractName": "VideoNFT",
  "sourceName": "contracts/VideoNFT.sol",
  "abi": [
    {
      "inputs": [
        {
          "internalType": "address",
          "name": "vhsTokenAddress",
          "type": "address"
        }
      ],
      "stateMutability": "nonpayable",
      "type": "constructor"
    },
    {
      "anonymous": false,
      "inputs": [
        {
          "indexed": true,
          "internalType": "address",
          "name": "owner",
          "type": "address"
        },
        {
          "indexed": true,
          "internalType": "address",
          "name": "approved",
          "type": "address"
        },
        {
          "indexed": true,
          "internalType": "uint256",
          "name": "tokenId",
          "type": "uint256"
        }
      ],
      "name": "Approval",
      "type": "event"
    },
    {
      "anonymous": false,
      "inputs": [
        {
          "indexed": true,
          "internalType": "address",
          "name": "owner",
          "type": "address"
        },
        {
          "indexed": true,
          "internalType": "address",
          "name": "operator",
          "type": "address"
        },
        {
          "indexed": false,
          "internalType": "bool",
          "name": "approved",
          "type": "bool"
        }
      ],
      "name": "ApprovalForAll",
      "type": "event"
    },
    {
      "anonymous": false,
      "inputs": [
        {
          "indexed": false,
          "internalType": "uint256",
          "name": "",
          "type": "uint256"
        },
        {
          "indexed": false,
          "internalType": "address",
          "name": "",
          "type": "address"
        }
      ],
      "name": "Minted",
      "type": "event"
    },
    {
      "anonymous": false,
      "inputs": [
        {
          "indexed": false,
          "internalType": "uint256",
          "name": "",
          "type": "uint256"
        },
        {
          "components": [
            {
              "components": [
                {
                  "internalType": "uint256",
                  "name": "tokenId",
                  "type": "uint256"
                },
                {
                  "internalType": "address",
                  "name": "moderator",
                  "type": "address"
                },
                {
                  "internalType": "enum VideoNFT.ModerationStatus",
                  "name": "status",
                  "type": "uint8"
                }
              ],
              "internalType": "struct VideoNFT.ModerationItem[]",
              "name": "moderations",
              "type": "tuple[]"
            },
            {
              "internalType": "enum VideoNFT.ModerationStatus",
              "name": "status",
              "type": "uint8"
            }
          ],
          "indexed": false,
          "internalType": "struct VideoNFT.ModerationInfo",
          "name": "",
          "type": "tuple"
        }
      ],
      "name": "ModerationComplete",
      "type": "event"
    },
    {
      "anonymous": false,
      "inputs": [
        {
          "indexed": true,
          "internalType": "address",
          "name": "previousOwner",
          "type": "address"
        },
        {
          "indexed": true,
          "internalType": "address",
          "name": "newOwner",
          "type": "address"
        }
      ],
      "name": "OwnershipTransferred",
      "type": "event"
    },
    {
      "anonymous": false,
      "inputs": [
        {
          "indexed": false,
          "internalType": "uint256",
          "name": "",
          "type": "uint256"
        },
        {
          "indexed": false,
          "internalType": "address",
          "name": "",
          "type": "address"
        },
        {
          "indexed": false,
          "internalType": "address",
          "name": "",
          "type": "address"
        },
        {
          "indexed": false,
          "internalType": "uint256",
          "name": "",
          "type": "uint256"
        },
        {
          "indexed": false,
          "internalType": "uint8",
          "name": "",
          "type": "uint8"
        }
      ],
      "name": "Rented",
      "type": "event"
    },
    {
      "anonymous": false,
      "inputs": [
        {
          "indexed": true,
          "internalType": "address",
          "name": "from",
          "type": "address"
        },
        {
          "indexed": true,
          "internalType": "address",
          "name": "to",
          "type": "address"
        },
        {
          "indexed": true,
          "internalType": "uint256",
          "name": "tokenId",
          "type": "uint256"
        }
      ],
      "name": "Transfer",
      "type": "event"
    },
    {
      "inputs": [
        {
          "internalType": "address",
          "name": "to",
          "type": "address"
        },
        {
          "internalType": "uint256",
          "name": "tokenId",
          "type": "uint256"
        }
      ],
      "name": "approve",
      "outputs": [],
      "stateMutability": "nonpayable",
      "type": "function"
    },
    {
      "inputs": [
        {
          "internalType": "address",
          "name": "owner",
          "type": "address"
        }
      ],
      "name": "balanceOf",
      "outputs": [
        {
          "internalType": "uint256",
          "name": "",
          "type": "uint256"
        }
      ],
      "stateMutability": "view",
      "type": "function"
    },
    {
      "inputs": [
        {
          "internalType": "uint256",
          "name": "tokenId",
          "type": "uint256"
        },
        {
          "internalType": "uint256",
          "name": "amount",
          "type": "uint256"
        }
      ],
      "name": "changeRentalPricePerDay",
      "outputs": [],
      "stateMutability": "nonpayable",
      "type": "function"
    },
    {
      "inputs": [],
      "name": "defaultRentalPricePerDay",
      "outputs": [
        {
          "internalType": "uint256",
          "name": "",
          "type": "uint256"
        }
      ],
      "stateMutability": "view",
      "type": "function"
    },
    {
      "inputs": [],
      "name": "erc20ContractAddress",
      "outputs": [
        {
          "internalType": "address",
          "name": "",
          "type": "address"
        }
      ],
      "stateMutability": "view",
      "type": "function"
    },
    {
      "inputs": [],
      "name": "faucet",
      "outputs": [],
      "stateMutability": "payable",
      "type": "function"
    },
    {
      "inputs": [
        {
          "internalType": "uint256",
          "name": "tokenId",
          "type": "uint256"
        }
      ],
      "name": "getApproved",
      "outputs": [
        {
          "internalType": "address",
          "name": "",
          "type": "address"
        }
      ],
      "stateMutability": "view",
      "type": "function"
    },
    {
      "inputs": [
        {
          "internalType": "uint256",
          "name": "tokenId",
          "type": "uint256"
        }
      ],
      "name": "hasRental",
      "outputs": [
        {
          "internalType": "bool",
          "name": "",
          "type": "bool"
        }
      ],
      "stateMutability": "view",
      "type": "function"
    },
    {
      "inputs": [
        {
          "internalType": "address",
          "name": "owner",
          "type": "address"
        },
        {
          "internalType": "address",
          "name": "operator",
          "type": "address"
        }
      ],
      "name": "isApprovedForAll",
      "outputs": [
        {
          "internalType": "bool",
          "name": "",
          "type": "bool"
        }
      ],
      "stateMutability": "view",
      "type": "function"
    },
    {
      "inputs": [],
      "name": "mintReward",
      "outputs": [
        {
          "internalType": "uint256",
          "name": "",
          "type": "uint256"
        }
      ],
      "stateMutability": "view",
      "type": "function"
    },
    {
      "inputs": [
        {
          "components": [
            {
              "internalType": "uint256",
              "name": "tokenId",
              "type": "uint256"
            },
            {
              "internalType": "address",
              "name": "moderator",
              "type": "address"
            },
            {
              "internalType": "enum VideoNFT.ModerationStatus",
              "name": "status",
              "type": "uint8"
            }
          ],
          "internalType": "struct VideoNFT.ModerationItem[]",
          "name": "items",
          "type": "tuple[]"
        }
      ],
      "name": "moderateVideo",
      "outputs": [],
      "stateMutability": "nonpayable",
      "type": "function"
    },
    {
      "inputs": [
        {
          "internalType": "uint256",
          "name": "",
          "type": "uint256"
        }
      ],
      "name": "moderatedTokens",
      "outputs": [
        {
          "internalType": "enum VideoNFT.ModerationStatus",
          "name": "status",
          "type": "uint8"
        }
      ],
      "stateMutability": "view",
      "type": "function"
    },
    {
      "inputs": [],
      "name": "moderationReward",
      "outputs": [
        {
          "internalType": "uint256",
          "name": "",
          "type": "uint256"
        }
      ],
      "stateMutability": "view",
      "type": "function"
    },
    {
      "inputs": [
        {
          "internalType": "address",
          "name": "",
          "type": "address"
        }
      ],
      "name": "modsTotalByAddress",
      "outputs": [
        {
          "internalType": "uint256",
          "name": "",
          "type": "uint256"
        }
      ],
      "stateMutability": "view",
      "type": "function"
    },
    {
      "inputs": [],
      "name": "name",
      "outputs": [
        {
          "internalType": "string",
          "name": "",
          "type": "string"
        }
      ],
      "stateMutability": "view",
      "type": "function"
    },
    {
      "inputs": [],
      "name": "numberOfModsRequired",
      "outputs": [
        {
          "internalType": "uint8",
          "name": "",
          "type": "uint8"
        }
      ],
      "stateMutability": "view",
      "type": "function"
    },
    {
      "inputs": [],
      "name": "owner",
      "outputs": [
        {
          "internalType": "address",
          "name": "",
          "type": "address"
        }
      ],
      "stateMutability": "view",
      "type": "function"
    },
    {
      "inputs": [
        {
          "internalType": "uint256",
          "name": "tokenId",
          "type": "uint256"
        }
      ],
      "name": "ownerOf",
      "outputs": [
        {
          "internalType": "address",
          "name": "",
          "type": "address"
        }
      ],
      "stateMutability": "view",
      "type": "function"
    },
    {
      "inputs": [],
      "name": "renounceOwnership",
      "outputs": [],
      "stateMutability": "nonpayable",
      "type": "function"
    },
    {
      "inputs": [
        {
          "internalType": "uint256",
          "name": "tokenId",
          "type": "uint256"
        },
        {
          "internalType": "uint8",
          "name": "_days",
          "type": "uint8"
        }
      ],
      "name": "rentVideo",
      "outputs": [],
      "stateMutability": "payable",
      "type": "function"
    },
    {
      "inputs": [
        {
          "internalType": "uint256",
          "name": "tokenId",
          "type": "uint256"
        }
      ],
      "name": "rentalPricePerDay",
      "outputs": [
        {
          "internalType": "uint256",
          "name": "",
          "type": "uint256"
        }
      ],
      "stateMutability": "view",
      "type": "function"
    },
    {
      "inputs": [
        {
          "internalType": "address",
          "name": "",
          "type": "address"
        },
        {
          "internalType": "uint256",
          "name": "",
          "type": "uint256"
        }
      ],
      "name": "rentals",
      "outputs": [
        {
          "internalType": "uint256",
          "name": "",
          "type": "uint256"
        }
      ],
      "stateMutability": "view",
      "type": "function"
    },
    {
      "inputs": [
        {
          "internalType": "address",
          "name": "to",
          "type": "address"
        },
        {
          "internalType": "string",
          "name": "uri",
          "type": "string"
        }
      ],
      "name": "safeMint",
      "outputs": [],
      "stateMutability": "nonpayable",
      "type": "function"
    },
    {
      "inputs": [
        {
          "internalType": "address",
          "name": "from",
          "type": "address"
        },
        {
          "internalType": "address",
          "name": "to",
          "type": "address"
        },
        {
          "internalType": "uint256",
          "name": "tokenId",
          "type": "uint256"
        }
      ],
      "name": "safeTransferFrom",
      "outputs": [],
      "stateMutability": "nonpayable",
      "type": "function"
    },
    {
      "inputs": [
        {
          "internalType": "address",
          "name": "from",
          "type": "address"
        },
        {
          "internalType": "address",
          "name": "to",
          "type": "address"
        },
        {
          "internalType": "uint256",
          "name": "tokenId",
          "type": "uint256"
        },
        {
          "internalType": "bytes",
          "name": "_data",
          "type": "bytes"
        }
      ],
      "name": "safeTransferFrom",
      "outputs": [],
      "stateMutability": "nonpayable",
      "type": "function"
    },
    {
      "inputs": [
        {
          "internalType": "address",
          "name": "operator",
          "type": "address"
        },
        {
          "internalType": "bool",
          "name": "approved",
          "type": "bool"
        }
      ],
      "name": "setApprovalForAll",
      "outputs": [],
      "stateMutability": "nonpayable",
      "type": "function"
    },
    {
      "inputs": [
        {
          "internalType": "uint256",
          "name": "_defaultRentalPricePerDay",
          "type": "uint256"
        },
        {
          "internalType": "uint256",
          "name": "_mintReward",
          "type": "uint256"
        },
        {
          "internalType": "uint256",
          "name": "_moderationReward",
          "type": "uint256"
        },
        {
          "internalType": "uint8",
          "name": "_requiredMods",
          "type": "uint8"
        }
      ],
      "name": "setContractDefaults",
      "outputs": [],
      "stateMutability": "nonpayable",
      "type": "function"
    },
    {
      "inputs": [
        {
          "internalType": "bytes4",
          "name": "interfaceId",
          "type": "bytes4"
        }
      ],
      "name": "supportsInterface",
      "outputs": [
        {
          "internalType": "bool",
          "name": "",
          "type": "bool"
        }
      ],
      "stateMutability": "view",
      "type": "function"
    },
    {
      "inputs": [],
      "name": "symbol",
      "outputs": [
        {
          "internalType": "string",
          "name": "",
          "type": "string"
        }
      ],
      "stateMutability": "view",
      "type": "function"
    },
    {
      "inputs": [
        {
          "internalType": "uint256",
          "name": "index",
          "type": "uint256"
        }
      ],
      "name": "tokenByIndex",
      "outputs": [
        {
          "internalType": "uint256",
          "name": "",
          "type": "uint256"
        }
      ],
      "stateMutability": "view",
      "type": "function"
    },
    {
      "inputs": [
        {
          "internalType": "address",
          "name": "owner",
          "type": "address"
        },
        {
          "internalType": "uint256",
          "name": "index",
          "type": "uint256"
        }
      ],
      "name": "tokenOfOwnerByIndex",
      "outputs": [
        {
          "internalType": "uint256",
          "name": "",
          "type": "uint256"
        }
      ],
      "stateMutability": "view",
      "type": "function"
    },
    {
      "inputs": [
        {
          "internalType": "uint256",
          "name": "",
          "type": "uint256"
        }
      ],
      "name": "tokenRentalPricesPerDay",
      "outputs": [
        {
          "internalType": "uint256",
          "name": "",
          "type": "uint256"
        }
      ],
      "stateMutability": "view",
      "type": "function"
    },
    {
      "inputs": [
        {
          "internalType": "uint256",
          "name": "tokenId",
          "type": "uint256"
        }
      ],
      "name": "tokenURI",
      "outputs": [
        {
          "internalType": "string",
          "name": "",
          "type": "string"
        }
      ],
      "stateMutability": "view",
      "type": "function"
    },
    {
      "inputs": [],
      "name": "totalSupply",
      "outputs": [
        {
          "internalType": "uint256",
          "name": "",
          "type": "uint256"
        }
      ],
      "stateMutability": "view",
      "type": "function"
    },
    {
      "inputs": [
        {
          "internalType": "address",
          "name": "from",
          "type": "address"
        },
        {
          "internalType": "address",
          "name": "to",
          "type": "address"
        },
        {
          "internalType": "uint256",
          "name": "tokenId",
          "type": "uint256"
        }
      ],
      "name": "transferFrom",
      "outputs": [],
      "stateMutability": "nonpayable",
      "type": "function"
    },
    {
      "inputs": [
        {
          "internalType": "address",
          "name": "newOwner",
          "type": "address"
        }
      ],
      "name": "transferOwnership",
      "outputs": [],
      "stateMutability": "nonpayable",
      "type": "function"
    }
  ],
  "bytecode": "0x60806040523480156200001157600080fd5b5060405162005e0238038062005e02833981810160405281019062000037919062000315565b6040518060400160405280600881526020017f566964656f4e46540000000000000000000000000000000000000000000000008152506040518060400160405280600681526020017f5648534e465400000000000000000000000000000000000000000000000000008152508160009080519060200190620000bb9291906200024e565b508060019080519060200190620000d49291906200024e565b505050620000f7620000eb6200018060201b60201c565b6200018860201b60201c565b80601160006101000a81548173ffffffffffffffffffffffffffffffffffffffff021916908373ffffffffffffffffffffffffffffffffffffffff16021790555080600d60016101000a81548173ffffffffffffffffffffffffffffffffffffffff021916908373ffffffffffffffffffffffffffffffffffffffff16021790555050620003f4565b600033905090565b6000600b60009054906101000a900473ffffffffffffffffffffffffffffffffffffffff16905081600b60006101000a81548173ffffffffffffffffffffffffffffffffffffffff021916908373ffffffffffffffffffffffffffffffffffffffff1602179055508173ffffffffffffffffffffffffffffffffffffffff168173ffffffffffffffffffffffffffffffffffffffff167f8be0079c531659141344cd1fd0a4f28419497f9722a3daafe3b4186f6b6457e060405160405180910390a35050565b8280546200025c9062000375565b90600052602060002090601f016020900481019282620002805760008555620002cc565b82601f106200029b57805160ff1916838001178555620002cc565b82800160010185558215620002cc579182015b82811115620002cb578251825591602001919060010190620002ae565b5b509050620002db9190620002df565b5090565b5b80821115620002fa576000816000905550600101620002e0565b5090565b6000815190506200030f81620003da565b92915050565b6000602082840312156200032857600080fd5b60006200033884828501620002fe565b91505092915050565b60006200034e8262000355565b9050919050565b600073ffffffffffffffffffffffffffffffffffffffff82169050919050565b600060028204905060018216806200038e57607f821691505b60208210811415620003a557620003a4620003ab565b5b50919050565b7f4e487b7100000000000000000000000000000000000000000000000000000000600052602260045260246000fd5b620003e58162000341565b8114620003f157600080fd5b50565b6159fe80620004046000396000f3fe60806040526004361061020f5760003560e01c806370a0823111610118578063c87b56dd116100a0578063df88cb9a1161006f578063df88cb9a146107cd578063e486df151461080a578063e87727ee14610835578063e985e9c51461085e578063f2fde38b1461089b5761020f565b8063c87b56dd14610734578063ca6c41be14610771578063d204c45e1461079a578063de5f72fd146107c35761020f565b80639d02e37c116100e75780639d02e37c1461064f578063a22cb4651461068c578063a46f5f44146106b5578063b043baf8146106e0578063b88d4fde1461070b5761020f565b806370a08231146105a5578063715018a6146105e25780638da5cb5b146105f957806395d89b41146106245761020f565b80632f745c591161019b5780634d075eb11161016a5780634d075eb1146104a95780634f66e246146104e65780634f6ccce7146105025780636352211e1461053f578063656f30b51461057c5761020f565b80632f745c59146103db578063418f69cf1461041857806342842e0e14610455578063484cd2dd1461047e5761020f565b8063095ea7b3116101e2578063095ea7b3146102f6578063174f57af1461031f57806318160ddd1461034a578063223c6ab21461037557806323b872dd146103b25761020f565b806301ffc9a71461021457806306fdde0314610251578063081812fc1461027c578063090fc58b146102b9575b600080fd5b34801561022057600080fd5b5061023b60048036038101906102369190613e35565b6108c4565b60405161024891906146e2565b60405180910390f35b34801561025d57600080fd5b506102666108d6565b6040516102739190614718565b60405180910390f35b34801561028857600080fd5b506102a3600480360381019061029e9190613e87565b610968565b6040516102b091906145f2565b60405180910390f35b3480156102c557600080fd5b506102e060048036038101906102db9190613d8f565b6109ed565b6040516102ed9190614aba565b60405180910390f35b34801561030257600080fd5b5061031d60048036038101906103189190613d8f565b610a12565b005b34801561032b57600080fd5b50610334610b2a565b6040516103419190614aba565b60405180910390f35b34801561035657600080fd5b5061035f610b30565b60405161036c9190614aba565b60405180910390f35b34801561038157600080fd5b5061039c60048036038101906103979190613bd0565b610b3d565b6040516103a99190614aba565b60405180910390f35b3480156103be57600080fd5b506103d960048036038101906103d49190613c35565b610b55565b005b3480156103e757600080fd5b5061040260048036038101906103fd9190613d8f565b610bb5565b60405161040f9190614aba565b60405180910390f35b34801561042457600080fd5b5061043f600480360381019061043a9190613e87565b610c5a565b60405161044c9190614aba565b60405180910390f35b34801561046157600080fd5b5061047c60048036038101906104779190613c35565b610c72565b005b34801561048a57600080fd5b50610493610c92565b6040516104a09190614aba565b60405180910390f35b3480156104b557600080fd5b506104d060048036038101906104cb9190613e87565b610c98565b6040516104dd91906146e2565b60405180910390f35b61050060048036038101906104fb9190613f78565b610db6565b005b34801561050e57600080fd5b5061052960048036038101906105249190613e87565b611169565b6040516105369190614aba565b60405180910390f35b34801561054b57600080fd5b5061056660048036038101906105619190613e87565b611200565b60405161057391906145f2565b60405180910390f35b34801561058857600080fd5b506105a3600480360381019061059e9190613f15565b6112b2565b005b3480156105b157600080fd5b506105cc60048036038101906105c79190613bd0565b6113b6565b6040516105d99190614aba565b60405180910390f35b3480156105ee57600080fd5b506105f761146e565b005b34801561060557600080fd5b5061060e6114f6565b60405161061b91906145f2565b60405180910390f35b34801561063057600080fd5b50610639611520565b6040516106469190614718565b60405180910390f35b34801561065b57600080fd5b5061067660048036038101906106719190613e87565b6115b2565b60405161068391906146fd565b60405180910390f35b34801561069857600080fd5b506106b360048036038101906106ae9190613cff565b6115dd565b005b3480156106c157600080fd5b506106ca6115f3565b6040516106d79190614b81565b60405180910390f35b3480156106ec57600080fd5b506106f5611606565b6040516107029190614aba565b60405180910390f35b34801561071757600080fd5b50610732600480360381019061072d9190613c84565b61160c565b005b34801561074057600080fd5b5061075b60048036038101906107569190613e87565b61166e565b6040516107689190614718565b60405180910390f35b34801561077d57600080fd5b5061079860048036038101906107939190613ed9565b611680565b005b3480156107a657600080fd5b506107c160048036038101906107bc9190613d3b565b6117a9565b005b6107cb611990565b005b3480156107d957600080fd5b506107f460048036038101906107ef9190613e87565b611a88565b6040516108019190614aba565b60405180910390f35b34801561081657600080fd5b5061081f611b57565b60405161082c91906145f2565b60405180910390f35b34801561084157600080fd5b5061085c60048036038101906108579190613dcb565b611b7d565b005b34801561086a57600080fd5b5061088560048036038101906108809190613bf9565b6121c8565b60405161089291906146e2565b60405180910390f35b3480156108a757600080fd5b506108c260048036038101906108bd9190613bd0565b61225c565b005b60006108cf82612354565b9050919050565b6060600080546108e590614f16565b80601f016020809104026020016040519081016040528092919081815260200182805461091190614f16565b801561095e5780601f106109335761010080835404028352916020019161095e565b820191906000526020600020905b81548152906001019060200180831161094157829003601f168201915b5050505050905090565b6000610973826123ce565b6109b2576040517f08c379a00000000000000000000000000000000000000000000000000000000081526004016109a99061499a565b60405180910390fd5b6004600083815260200190815260200160002060009054906101000a900473ffffffffffffffffffffffffffffffffffffffff169050919050565b6015602052816000526040600020602052806000526040600020600091509150505481565b6000610a1d82611200565b90508073ffffffffffffffffffffffffffffffffffffffff168373ffffffffffffffffffffffffffffffffffffffff161415610a8e576040517f08c379a0000000000000000000000000000000000000000000000000000000008152600401610a85906149fa565b60405180910390fd5b8073ffffffffffffffffffffffffffffffffffffffff16610aad61243a565b73ffffffffffffffffffffffffffffffffffffffff161480610adc5750610adb81610ad661243a565b6121c8565b5b610b1b576040517f08c379a0000000000000000000000000000000000000000000000000000000008152600401610b129061489a565b60405180910390fd5b610b258383612442565b505050565b60105481565b6000600880549050905090565b60146020528060005260406000206000915090505481565b610b66610b6061243a565b826124fb565b610ba5576040517f08c379a0000000000000000000000000000000000000000000000000000000008152600401610b9c90614a3a565b60405180910390fd5b610bb08383836125d9565b505050565b6000610bc0836113b6565b8210610c01576040517f08c379a0000000000000000000000000000000000000000000000000000000008152600401610bf89061473a565b60405180910390fd5b600660008473ffffffffffffffffffffffffffffffffffffffff1673ffffffffffffffffffffffffffffffffffffffff168152602001908152602001600020600083815260200190815260200160002054905092915050565b60136020528060005260406000206000915090505481565b610c8d8383836040518060200160405280600081525061160c565b505050565b600e5481565b6000600d60009054906101000a900460ff16610ce9576040517f08c379a0000000000000000000000000000000000000000000000000000000008152600401610ce0906147da565b60405180910390fd5b610cf2826123ce565b610d31576040517f08c379a0000000000000000000000000000000000000000000000000000000008152600401610d2890614a1a565b60405180910390fd5b6000601560003373ffffffffffffffffffffffffffffffffffffffff1673ffffffffffffffffffffffffffffffffffffffff16815260200190815260200160002060008481526020019081526020016000205490506000811415610d99576000915050610db1565b42811015610dab576000915050610db1565b60019150505b919050565b600d60009054906101000a900460ff16610e05576040517f08c379a0000000000000000000000000000000000000000000000000000000008152600401610dfc906147da565b60405180910390fd5b610e0e826123ce565b610e4d576040517f08c379a0000000000000000000000000000000000000000000000000000000008152600401610e4490614a1a565b60405180910390fd5b60008160ff1611610e93576040517f08c379a0000000000000000000000000000000000000000000000000000000008152600401610e8a9061491a565b60405180910390fd5b6000610e9e83611200565b905060008260ff16610eaf85611a88565b610eb99190614d57565b9050600042905081601160009054906101000a900473ffffffffffffffffffffffffffffffffffffffff1673ffffffffffffffffffffffffffffffffffffffff166370a08231336040518263ffffffff1660e01b8152600401610f1c91906145f2565b60206040518083038186803b158015610f3457600080fd5b505afa158015610f48573d6000803e3d6000fd5b505050506040513d601f19601f82011682018060405250810190610f6c9190613eb0565b1015610fad576040517f08c379a0000000000000000000000000000000000000000000000000000000008152600401610fa49061485a565b60405180910390fd5b3373ffffffffffffffffffffffffffffffffffffffff168373ffffffffffffffffffffffffffffffffffffffff16141561101c576040517f08c379a00000000000000000000000000000000000000000000000000000000081526004016110139061483a565b60405180910390fd5b601160009054906101000a900473ffffffffffffffffffffffffffffffffffffffff1673ffffffffffffffffffffffffffffffffffffffff166323b872dd3385856040518463ffffffff1660e01b815260040161107b9392919061460d565b602060405180830381600087803b15801561109557600080fd5b505af11580156110a9573d6000803e3d6000fd5b505050506040513d601f19601f820116820180604052508101906110cd9190613e0c565b5080601560003373ffffffffffffffffffffffffffffffffffffffff1673ffffffffffffffffffffffffffffffffffffffff1681526020019081526020016000206000878152602001908152602001600020819055507f7b1a4780b5606c20bf59dcfd820303c6c9ba27cc345899058f049aba199b3ed2853385858860405161115a959493929190614afe565b60405180910390a15050505050565b6000611173610b30565b82106111b4576040517f08c379a00000000000000000000000000000000000000000000000000000000081526004016111ab90614a5a565b60405180910390fd5b600882815481106111ee577f4e487b7100000000000000000000000000000000000000000000000000000000600052603260045260246000fd5b90600052602060002001549050919050565b6000806002600084815260200190815260200160002060009054906101000a900473ffffffffffffffffffffffffffffffffffffffff169050600073ffffffffffffffffffffffffffffffffffffffff168173ffffffffffffffffffffffffffffffffffffffff1614156112a9576040517f08c379a00000000000000000000000000000000000000000000000000000000081526004016112a0906148da565b60405180910390fd5b80915050919050565b6112ba61243a565b73ffffffffffffffffffffffffffffffffffffffff166112d86114f6565b73ffffffffffffffffffffffffffffffffffffffff161461132e576040517f08c379a0000000000000000000000000000000000000000000000000000000008152600401611325906149ba565b60405180910390fd5b6000841161133b57600080fd5b6000821161134857600080fd5b6000831161135557600080fd5b60008160ff161161136557600080fd5b83600e8190555081600f819055508260108190555080601160146101000a81548160ff021916908360ff1602179055506001600d60006101000a81548160ff02191690831515021790555050505050565b60008073ffffffffffffffffffffffffffffffffffffffff168273ffffffffffffffffffffffffffffffffffffffff161415611427576040517f08c379a000000000000000000000000000000000000000000000000000000000815260040161141e906148ba565b60405180910390fd5b600360008373ffffffffffffffffffffffffffffffffffffffff1673ffffffffffffffffffffffffffffffffffffffff168152602001908152602001600020549050919050565b61147661243a565b73ffffffffffffffffffffffffffffffffffffffff166114946114f6565b73ffffffffffffffffffffffffffffffffffffffff16146114ea576040517f08c379a00000000000000000000000000000000000000000000000000000000081526004016114e1906149ba565b60405180910390fd5b6114f46000612840565b565b6000600b60009054906101000a900473ffffffffffffffffffffffffffffffffffffffff16905090565b60606001805461152f90614f16565b80601f016020809104026020016040519081016040528092919081815260200182805461155b90614f16565b80156115a85780601f1061157d576101008083540402835291602001916115a8565b820191906000526020600020905b81548152906001019060200180831161158b57829003601f168201915b5050505050905090565b60126020528060005260406000206000915090508060010160009054906101000a900460ff16905081565b6115ef6115e861243a565b8383612906565b5050565b601160149054906101000a900460ff1681565b600f5481565b61161d61161761243a565b836124fb565b61165c576040517f08c379a000000000000000000000000000000000000000000000000000000000815260040161165390614a3a565b60405180910390fd5b61166884848484612a73565b50505050565b606061167982612acf565b9050919050565b600d60009054906101000a900460ff166116cf576040517f08c379a00000000000000000000000000000000000000000000000000000000081526004016116c6906147da565b60405180910390fd5b6116d8826123ce565b611717576040517f08c379a000000000000000000000000000000000000000000000000000000000815260040161170e90614a1a565b60405180910390fd5b3373ffffffffffffffffffffffffffffffffffffffff1661173783611200565b73ffffffffffffffffffffffffffffffffffffffff161461178d576040517f08c379a00000000000000000000000000000000000000000000000000000000081526004016117849061497a565b60405180910390fd5b8060136000848152602001908152602001600020819055505050565b600d60009054906101000a900460ff166117f8576040517f08c379a00000000000000000000000000000000000000000000000000000000081526004016117ef906147da565b60405180910390fd5b61180061243a565b73ffffffffffffffffffffffffffffffffffffffff1661181e6114f6565b73ffffffffffffffffffffffffffffffffffffffff1614611874576040517f08c379a000000000000000000000000000000000000000000000000000000000815260040161186b906149ba565b60405180910390fd5b6000611880600c612c21565b905061188c600c612c2f565b6118968382612c45565b6118a08183612e1f565b601160009054906101000a900473ffffffffffffffffffffffffffffffffffffffff1673ffffffffffffffffffffffffffffffffffffffff1663a9059cbb846010546040518363ffffffff1660e01b81526004016118ff9291906146b9565b602060405180830381600087803b15801561191957600080fd5b505af115801561192d573d6000803e3d6000fd5b505050506040513d601f19601f820116820180604052508101906119519190613e0c565b507fb9203d657e9c0ec8274c818292ab0f58b04e1970050716891770eb1bab5d655e8184604051611983929190614ad5565b60405180910390a1505050565b6000601160009054906101000a900473ffffffffffffffffffffffffffffffffffffffff1673ffffffffffffffffffffffffffffffffffffffff1663a9059cbb336103e86040518363ffffffff1660e01b81526004016119f1929190614690565b602060405180830381600087803b158015611a0b57600080fd5b505af1158015611a1f573d6000803e3d6000fd5b505050506040513d601f19601f82011682018060405250810190611a439190613e0c565b905080611a85576040517f08c379a0000000000000000000000000000000000000000000000000000000008152600401611a7c90614a7a565b60405180910390fd5b50565b6000600d60009054906101000a900460ff16611ad9576040517f08c379a0000000000000000000000000000000000000000000000000000000008152600401611ad0906147da565b60405180910390fd5b611ae2826123ce565b611b21576040517f08c379a0000000000000000000000000000000000000000000000000000000008152600401611b1890614a1a565b60405180910390fd5b6000601360008481526020019081526020016000205490506000811415611b4d57600e54915050611b52565b809150505b919050565b600d60019054906101000a900473ffffffffffffffffffffffffffffffffffffffff1681565b600d60009054906101000a900460ff16611bcc576040517f08c379a0000000000000000000000000000000000000000000000000000000008152600401611bc3906147da565b60405180910390fd5b6000611bd7336113b6565b11611c17576040517f08c379a0000000000000000000000000000000000000000000000000000000008152600401611c0e90614a9a565b60405180910390fd5b60005b81518110156121c4576000828281518110611c5e577f4e487b7100000000000000000000000000000000000000000000000000000000600052603260045260246000fd5b6020026020010151600001519050611c75816123ce565b611cb4576040517f08c379a0000000000000000000000000000000000000000000000000000000008152600401611cab90614a1a565b60405180910390fd5b60126000828152602001908152602001600020600001838381518110611d03577f4e487b7100000000000000000000000000000000000000000000000000000000600052603260045260246000fd5b602002602001015190806001815401808255809150506001900390600052602060002090600202016000909190919091506000820151816000015560208201518160010160006101000a81548173ffffffffffffffffffffffffffffffffffffffff021916908373ffffffffffffffffffffffffffffffffffffffff16021790555060408201518160010160146101000a81548160ff02191690836003811115611dd6577f4e487b7100000000000000000000000000000000000000000000000000000000600052602160045260246000fd5b02179055505050601160149054906101000a900460ff1660ff16601260008381526020019081526020016000206000018054905014156121b05760006002905060005b6012600084815260200190815260200160002060000180549050811015611f3a57600380811115611e73577f4e487b7100000000000000000000000000000000000000000000000000000000600052602160045260246000fd5b601260008581526020019081526020016000206000018281548110611ec1577f4e487b7100000000000000000000000000000000000000000000000000000000600052603260045260246000fd5b906000526020600020906002020160010160149054906101000a900460ff166003811115611f18577f4e487b7100000000000000000000000000000000000000000000000000000000600052602160045260246000fd5b1415611f275760039150611f3a565b8080611f3290614fe1565b915050611e19565b50806012600084815260200190815260200160002060010160006101000a81548160ff02191690836003811115611f9a577f4e487b7100000000000000000000000000000000000000000000000000000000600052602160045260246000fd5b021790555060005b6012600084815260200190815260200160002060000180549050811015612162576000601260008581526020019081526020016000206000018281548110612013577f4e487b7100000000000000000000000000000000000000000000000000000000600052603260045260246000fd5b906000526020600020906002020160010160009054906101000a900473ffffffffffffffffffffffffffffffffffffffff169050601460008273ffffffffffffffffffffffffffffffffffffffff1673ffffffffffffffffffffffffffffffffffffffff168152602001908152602001600020600081548092919061209790614fe1565b9190505550601160009054906101000a900473ffffffffffffffffffffffffffffffffffffffff1673ffffffffffffffffffffffffffffffffffffffff1663a9059cbb82600f546040518363ffffffff1660e01b81526004016120fb9291906146b9565b602060405180830381600087803b15801561211557600080fd5b505af1158015612129573d6000803e3d6000fd5b505050506040513d601f19601f8201168201806040525081019061214d9190613e0c565b5050808061215a90614fe1565b915050611fa2565b507f0a394db5f1438dbeab2a03a607069942286e0793fbed6fc84c3bfbe14db3e28582601260008581526020019081526020016000206040516121a6929190614b51565b60405180910390a1505b5080806121bc90614fe1565b915050611c1a565b5050565b6000600560008473ffffffffffffffffffffffffffffffffffffffff1673ffffffffffffffffffffffffffffffffffffffff16815260200190815260200160002060008373ffffffffffffffffffffffffffffffffffffffff1673ffffffffffffffffffffffffffffffffffffffff16815260200190815260200160002060009054906101000a900460ff16905092915050565b61226461243a565b73ffffffffffffffffffffffffffffffffffffffff166122826114f6565b73ffffffffffffffffffffffffffffffffffffffff16146122d8576040517f08c379a00000000000000000000000000000000000000000000000000000000081526004016122cf906149ba565b60405180910390fd5b600073ffffffffffffffffffffffffffffffffffffffff168173ffffffffffffffffffffffffffffffffffffffff161415612348576040517f08c379a000000000000000000000000000000000000000000000000000000000815260040161233f9061477a565b60405180910390fd5b61235181612840565b50565b60007f780e9d63000000000000000000000000000000000000000000000000000000007bffffffffffffffffffffffffffffffffffffffffffffffffffffffff1916827bffffffffffffffffffffffffffffffffffffffffffffffffffffffff191614806123c757506123c682612e93565b5b9050919050565b60008073ffffffffffffffffffffffffffffffffffffffff166002600084815260200190815260200160002060009054906101000a900473ffffffffffffffffffffffffffffffffffffffff1673ffffffffffffffffffffffffffffffffffffffff1614159050919050565b600033905090565b816004600083815260200190815260200160002060006101000a81548173ffffffffffffffffffffffffffffffffffffffff021916908373ffffffffffffffffffffffffffffffffffffffff160217905550808273ffffffffffffffffffffffffffffffffffffffff166124b583611200565b73ffffffffffffffffffffffffffffffffffffffff167f8c5be1e5ebec7d5bd14f71427d1e84f3dd0314c0f7b2291e5b200ac8c7c3b92560405160405180910390a45050565b6000612506826123ce565b612545576040517f08c379a000000000000000000000000000000000000000000000000000000000815260040161253c9061487a565b60405180910390fd5b600061255083611200565b90508073ffffffffffffffffffffffffffffffffffffffff168473ffffffffffffffffffffffffffffffffffffffff1614806125bf57508373ffffffffffffffffffffffffffffffffffffffff166125a784610968565b73ffffffffffffffffffffffffffffffffffffffff16145b806125d057506125cf81856121c8565b5b91505092915050565b8273ffffffffffffffffffffffffffffffffffffffff166125f982611200565b73ffffffffffffffffffffffffffffffffffffffff161461264f576040517f08c379a00000000000000000000000000000000000000000000000000000000081526004016126469061479a565b60405180910390fd5b600073ffffffffffffffffffffffffffffffffffffffff168273ffffffffffffffffffffffffffffffffffffffff1614156126bf576040517f08c379a00000000000000000000000000000000000000000000000000000000081526004016126b6906147fa565b60405180910390fd5b6126ca838383612f75565b6126d5600082612442565b6001600360008573ffffffffffffffffffffffffffffffffffffffff1673ffffffffffffffffffffffffffffffffffffffff16815260200190815260200160002060008282546127259190614db1565b925050819055506001600360008473ffffffffffffffffffffffffffffffffffffffff1673ffffffffffffffffffffffffffffffffffffffff168152602001908152602001600020600082825461277c9190614cd0565b92505081905550816002600083815260200190815260200160002060006101000a81548173ffffffffffffffffffffffffffffffffffffffff021916908373ffffffffffffffffffffffffffffffffffffffff160217905550808273ffffffffffffffffffffffffffffffffffffffff168473ffffffffffffffffffffffffffffffffffffffff167fddf252ad1be2c89b69c2b068fc378daa952ba7f163c4a11628f55a4df523b3ef60405160405180910390a461283b838383612f85565b505050565b6000600b60009054906101000a900473ffffffffffffffffffffffffffffffffffffffff16905081600b60006101000a81548173ffffffffffffffffffffffffffffffffffffffff021916908373ffffffffffffffffffffffffffffffffffffffff1602179055508173ffffffffffffffffffffffffffffffffffffffff168173ffffffffffffffffffffffffffffffffffffffff167f8be0079c531659141344cd1fd0a4f28419497f9722a3daafe3b4186f6b6457e060405160405180910390a35050565b8173ffffffffffffffffffffffffffffffffffffffff168373ffffffffffffffffffffffffffffffffffffffff161415612975576040517f08c379a000000000000000000000000000000000000000000000000000000000815260040161296c9061481a565b60405180910390fd5b80600560008573ffffffffffffffffffffffffffffffffffffffff1673ffffffffffffffffffffffffffffffffffffffff16815260200190815260200160002060008473ffffffffffffffffffffffffffffffffffffffff1673ffffffffffffffffffffffffffffffffffffffff16815260200190815260200160002060006101000a81548160ff0219169083151502179055508173ffffffffffffffffffffffffffffffffffffffff168373ffffffffffffffffffffffffffffffffffffffff167f17307eab39ab6107e8899845ad3d59bd9653f200f220920489ca2b5937696c3183604051612a6691906146e2565b60405180910390a3505050565b612a7e8484846125d9565b612a8a84848484612f8a565b612ac9576040517f08c379a0000000000000000000000000000000000000000000000000000000008152600401612ac09061475a565b60405180910390fd5b50505050565b6060612ada826123ce565b612b19576040517f08c379a0000000000000000000000000000000000000000000000000000000008152600401612b109061495a565b60405180910390fd5b6000600a60008481526020019081526020016000208054612b3990614f16565b80601f0160208091040260200160405190810160405280929190818152602001828054612b6590614f16565b8015612bb25780601f10612b8757610100808354040283529160200191612bb2565b820191906000526020600020905b815481529060010190602001808311612b9557829003601f168201915b505050505090506000612bc3613121565b9050600081511415612bd9578192505050612c1c565b600082511115612c0e578082604051602001612bf69291906145ce565b60405160208183030381529060405292505050612c1c565b612c1784613138565b925050505b919050565b600081600001549050919050565b6001816000016000828254019250508190555050565b600073ffffffffffffffffffffffffffffffffffffffff168273ffffffffffffffffffffffffffffffffffffffff161415612cb5576040517f08c379a0000000000000000000000000000000000000000000000000000000008152600401612cac9061493a565b60405180910390fd5b612cbe816123ce565b15612cfe576040517f08c379a0000000000000000000000000000000000000000000000000000000008152600401612cf5906147ba565b60405180910390fd5b612d0a60008383612f75565b6001600360008473ffffffffffffffffffffffffffffffffffffffff1673ffffffffffffffffffffffffffffffffffffffff1681526020019081526020016000206000828254612d5a9190614cd0565b92505081905550816002600083815260200190815260200160002060006101000a81548173ffffffffffffffffffffffffffffffffffffffff021916908373ffffffffffffffffffffffffffffffffffffffff160217905550808273ffffffffffffffffffffffffffffffffffffffff16600073ffffffffffffffffffffffffffffffffffffffff167fddf252ad1be2c89b69c2b068fc378daa952ba7f163c4a11628f55a4df523b3ef60405160405180910390a4612e1b60008383612f85565b5050565b612e28826123ce565b612e67576040517f08c379a0000000000000000000000000000000000000000000000000000000008152600401612e5e906148fa565b60405180910390fd5b80600a60008481526020019081526020016000209080519060200190612e8e9291906138aa565b505050565b60007f80ac58cd000000000000000000000000000000000000000000000000000000007bffffffffffffffffffffffffffffffffffffffffffffffffffffffff1916827bffffffffffffffffffffffffffffffffffffffffffffffffffffffff19161480612f5e57507f5b5e139f000000000000000000000000000000000000000000000000000000007bffffffffffffffffffffffffffffffffffffffffffffffffffffffff1916827bffffffffffffffffffffffffffffffffffffffffffffffffffffffff1916145b80612f6e5750612f6d826131df565b5b9050919050565b612f80838383613249565b505050565b505050565b6000612fab8473ffffffffffffffffffffffffffffffffffffffff1661335d565b15613114578373ffffffffffffffffffffffffffffffffffffffff1663150b7a02612fd461243a565b8786866040518563ffffffff1660e01b8152600401612ff69493929190614644565b602060405180830381600087803b15801561301057600080fd5b505af192505050801561304157506040513d601f19601f8201168201806040525081019061303e9190613e5e565b60015b6130c4573d8060008114613071576040519150601f19603f3d011682016040523d82523d6000602084013e613076565b606091505b506000815114156130bc576040517f08c379a00000000000000000000000000000000000000000000000000000000081526004016130b39061475a565b60405180910390fd5b805181602001fd5b63150b7a0260e01b7bffffffffffffffffffffffffffffffffffffffffffffffffffffffff1916817bffffffffffffffffffffffffffffffffffffffffffffffffffffffff191614915050613119565b600190505b949350505050565b606060405180602001604052806000815250905090565b6060613143826123ce565b613182576040517f08c379a0000000000000000000000000000000000000000000000000000000008152600401613179906149da565b60405180910390fd5b600061318c613121565b905060008151116131ac57604051806020016040528060008152506131d7565b806131b684613380565b6040516020016131c79291906145ce565b6040516020818303038152906040525b915050919050565b60007f01ffc9a7000000000000000000000000000000000000000000000000000000007bffffffffffffffffffffffffffffffffffffffffffffffffffffffff1916827bffffffffffffffffffffffffffffffffffffffffffffffffffffffff1916149050919050565b61325483838361352d565b600073ffffffffffffffffffffffffffffffffffffffff168373ffffffffffffffffffffffffffffffffffffffff1614156132975761329281613532565b6132d6565b8173ffffffffffffffffffffffffffffffffffffffff168373ffffffffffffffffffffffffffffffffffffffff16146132d5576132d4838261357b565b5b5b600073ffffffffffffffffffffffffffffffffffffffff168273ffffffffffffffffffffffffffffffffffffffff16141561331957613314816136e8565b613358565b8273ffffffffffffffffffffffffffffffffffffffff168273ffffffffffffffffffffffffffffffffffffffff161461335757613356828261382b565b5b5b505050565b6000808273ffffffffffffffffffffffffffffffffffffffff163b119050919050565b606060008214156133c8576040518060400160405280600181526020017f30000000000000000000000000000000000000000000000000000000000000008152509050613528565b600082905060005b600082146133fa5780806133e390614fe1565b915050600a826133f39190614d26565b91506133d0565b60008167ffffffffffffffff81111561343c577f4e487b7100000000000000000000000000000000000000000000000000000000600052604160045260246000fd5b6040519080825280601f01601f19166020018201604052801561346e5781602001600182028036833780820191505090505b5090505b60008514613521576001826134879190614db1565b9150600a85613496919061502a565b60306134a29190614cd0565b60f81b8183815181106134de577f4e487b7100000000000000000000000000000000000000000000000000000000600052603260045260246000fd5b60200101907effffffffffffffffffffffffffffffffffffffffffffffffffffffffffffff1916908160001a905350600a8561351a9190614d26565b9450613472565b8093505050505b919050565b505050565b6008805490506009600083815260200190815260200160002081905550600881908060018154018082558091505060019003906000526020600020016000909190919091505550565b60006001613588846113b6565b6135929190614db1565b9050600060076000848152602001908152602001600020549050818114613677576000600660008673ffffffffffffffffffffffffffffffffffffffff1673ffffffffffffffffffffffffffffffffffffffff168152602001908152602001600020600084815260200190815260200160002054905080600660008773ffffffffffffffffffffffffffffffffffffffff1673ffffffffffffffffffffffffffffffffffffffff168152602001908152602001600020600084815260200190815260200160002081905550816007600083815260200190815260200160002081905550505b6007600084815260200190815260200160002060009055600660008573ffffffffffffffffffffffffffffffffffffffff1673ffffffffffffffffffffffffffffffffffffffff16815260200190815260200160002060008381526020019081526020016000206000905550505050565b600060016008805490506136fc9190614db1565b9050600060096000848152602001908152602001600020549050600060088381548110613752577f4e487b7100000000000000000000000000000000000000000000000000000000600052603260045260246000fd5b90600052602060002001549050806008838154811061379a577f4e487b7100000000000000000000000000000000000000000000000000000000600052603260045260246000fd5b90600052602060002001819055508160096000838152602001908152602001600020819055506009600085815260200190815260200160002060009055600880548061380f577f4e487b7100000000000000000000000000000000000000000000000000000000600052603160045260246000fd5b6001900381819060005260206000200160009055905550505050565b6000613836836113b6565b905081600660008573ffffffffffffffffffffffffffffffffffffffff1673ffffffffffffffffffffffffffffffffffffffff168152602001908152602001600020600083815260200190815260200160002081905550806007600084815260200190815260200160002081905550505050565b8280546138b690614f16565b90600052602060002090601f0160209004810192826138d8576000855561391f565b82601f106138f157805160ff191683800117855561391f565b8280016001018555821561391f579182015b8281111561391e578251825591602001919060010190613903565b5b50905061392c9190613930565b5090565b5b80821115613949576000816000905550600101613931565b5090565b600061396061395b84614bc1565b614b9c565b9050808382526020820190508285606086028201111561397f57600080fd5b60005b858110156139af57816139958882613b31565b845260208401935060608301925050600181019050613982565b5050509392505050565b60006139cc6139c784614bed565b614b9c565b9050828152602081018484840111156139e457600080fd5b6139ef848285614ed4565b509392505050565b6000613a0a613a0584614c1e565b614b9c565b905082815260208101848484011115613a2257600080fd5b613a2d848285614ed4565b509392505050565b600081359050613a4481615945565b92915050565b600082601f830112613a5b57600080fd5b8135613a6b84826020860161394d565b91505092915050565b600081359050613a838161595c565b92915050565b600081519050613a988161595c565b92915050565b600081359050613aad81615973565b92915050565b600081519050613ac281615973565b92915050565b600082601f830112613ad957600080fd5b8135613ae98482602086016139b9565b91505092915050565b600081359050613b018161598a565b92915050565b600082601f830112613b1857600080fd5b8135613b288482602086016139f7565b91505092915050565b600060608284031215613b4357600080fd5b613b4d6060614b9c565b90506000613b5d84828501613b91565b6000830152506020613b7184828501613a35565b6020830152506040613b8584828501613af2565b60408301525092915050565b600081359050613ba08161599a565b92915050565b600081519050613bb58161599a565b92915050565b600081359050613bca816159b1565b92915050565b600060208284031215613be257600080fd5b6000613bf084828501613a35565b91505092915050565b60008060408385031215613c0c57600080fd5b6000613c1a85828601613a35565b9250506020613c2b85828601613a35565b9150509250929050565b600080600060608486031215613c4a57600080fd5b6000613c5886828701613a35565b9350506020613c6986828701613a35565b9250506040613c7a86828701613b91565b9150509250925092565b60008060008060808587031215613c9a57600080fd5b6000613ca887828801613a35565b9450506020613cb987828801613a35565b9350506040613cca87828801613b91565b925050606085013567ffffffffffffffff811115613ce757600080fd5b613cf387828801613ac8565b91505092959194509250565b60008060408385031215613d1257600080fd5b6000613d2085828601613a35565b9250506020613d3185828601613a74565b9150509250929050565b60008060408385031215613d4e57600080fd5b6000613d5c85828601613a35565b925050602083013567ffffffffffffffff811115613d7957600080fd5b613d8585828601613b07565b9150509250929050565b60008060408385031215613da257600080fd5b6000613db085828601613a35565b9250506020613dc185828601613b91565b9150509250929050565b600060208284031215613ddd57600080fd5b600082013567ffffffffffffffff811115613df757600080fd5b613e0384828501613a4a565b91505092915050565b600060208284031215613e1e57600080fd5b6000613e2c84828501613a89565b91505092915050565b600060208284031215613e4757600080fd5b6000613e5584828501613a9e565b91505092915050565b600060208284031215613e7057600080fd5b6000613e7e84828501613ab3565b91505092915050565b600060208284031215613e9957600080fd5b6000613ea784828501613b91565b91505092915050565b600060208284031215613ec257600080fd5b6000613ed084828501613ba6565b91505092915050565b60008060408385031215613eec57600080fd5b6000613efa85828601613b91565b9250506020613f0b85828601613b91565b9150509250929050565b60008060008060808587031215613f2b57600080fd5b6000613f3987828801613b91565b9450506020613f4a87828801613b91565b9350506040613f5b87828801613b91565b9250506060613f6c87828801613bbb565b91505092959194509250565b60008060408385031215613f8b57600080fd5b6000613f9985828601613b91565b9250506020613faa85828601613bbb565b9150509250929050565b6000613fc08383614543565b60608301905092915050565b613fd581614e1c565b82525050565b613fe481614e1c565b82525050565b6000613ff582614c64565b613fff8185614c92565b935061400a83614c4f565b8060005b8381101561403a57816140218882613fb4565b975061402c83614c85565b92505060018101905061400e565b5085935050505092915050565b61405081614e2e565b82525050565b600061406182614c6f565b61406b8185614ca3565b935061407b818560208601614ee3565b61408481615146565b840191505092915050565b61409881614eb0565b82525050565b6140a781614eb0565b82525050565b6140b681614ec2565b82525050565b60006140c782614c7a565b6140d18185614cb4565b93506140e1818560208601614ee3565b6140ea81615146565b840191505092915050565b600061410082614c7a565b61410a8185614cc5565b935061411a818560208601614ee3565b80840191505092915050565b6000614133602b83614cb4565b915061413e82615171565b604082019050919050565b6000614156603283614cb4565b9150614161826151c0565b604082019050919050565b6000614179602683614cb4565b91506141848261520f565b604082019050919050565b600061419c602583614cb4565b91506141a78261525e565b604082019050919050565b60006141bf601c83614cb4565b91506141ca826152ad565b602082019050919050565b60006141e2603a83614cb4565b91506141ed826152d6565b604082019050919050565b6000614205602483614cb4565b915061421082615325565b604082019050919050565b6000614228601983614cb4565b915061423382615374565b602082019050919050565b600061424b602483614cb4565b91506142568261539d565b604082019050919050565b600061426e604083614cb4565b9150614279826153ec565b604082019050919050565b6000614291602c83614cb4565b915061429c8261543b565b604082019050919050565b60006142b4603883614cb4565b91506142bf8261548a565b604082019050919050565b60006142d7602a83614cb4565b91506142e2826154d9565b604082019050919050565b60006142fa602983614cb4565b915061430582615528565b604082019050919050565b600061431d602e83614cb4565b915061432882615577565b604082019050919050565b6000614340601c83614cb4565b915061434b826155c6565b602082019050919050565b6000614363602083614cb4565b915061436e826155ef565b602082019050919050565b6000614386603183614cb4565b915061439182615618565b604082019050919050565b60006143a9603583614cb4565b91506143b482615667565b604082019050919050565b60006143cc602c83614cb4565b91506143d7826156b6565b604082019050919050565b60006143ef602083614cb4565b91506143fa82615705565b602082019050919050565b6000614412602f83614cb4565b915061441d8261572e565b604082019050919050565b6000614435602183614cb4565b91506144408261577d565b604082019050919050565b6000614458602583614cb4565b9150614463826157cc565b604082019050919050565b600061447b603183614cb4565b91506144868261581b565b604082019050919050565b600061449e602c83614cb4565b91506144a98261586a565b604082019050919050565b60006144c1602083614cb4565b91506144cc826158b9565b602082019050919050565b60006144e4602c83614cb4565b91506144ef826158e2565b604082019050919050565b600060408301600080840185830360008701526145178382613fea565b9250506001840154905061452a81614f62565b614537602087018261408f565b50819250505092915050565b60608201600080830154905061455881614f7c565b61456560008601826145a1565b506001830154905061457681614f48565b6145836020860182613fcc565b5061458d81614f96565b61459a604086018261408f565b5050505050565b6145aa81614e99565b82525050565b6145b981614e99565b82525050565b6145c881614ea3565b82525050565b60006145da82856140f5565b91506145e682846140f5565b91508190509392505050565b60006020820190506146076000830184613fdb565b92915050565b60006060820190506146226000830186613fdb565b61462f6020830185613fdb565b61463c60408301846145b0565b949350505050565b60006080820190506146596000830187613fdb565b6146666020830186613fdb565b61467360408301856145b0565b81810360608301526146858184614056565b905095945050505050565b60006040820190506146a56000830185613fdb565b6146b260208301846140ad565b9392505050565b60006040820190506146ce6000830185613fdb565b6146db60208301846145b0565b9392505050565b60006020820190506146f76000830184614047565b92915050565b6000602082019050614712600083018461409e565b92915050565b6000602082019050818103600083015261473281846140bc565b905092915050565b6000602082019050818103600083015261475381614126565b9050919050565b6000602082019050818103600083015261477381614149565b9050919050565b600060208201905081810360008301526147938161416c565b9050919050565b600060208201905081810360008301526147b38161418f565b9050919050565b600060208201905081810360008301526147d3816141b2565b9050919050565b600060208201905081810360008301526147f3816141d5565b9050919050565b60006020820190508181036000830152614813816141f8565b9050919050565b600060208201905081810360008301526148338161421b565b9050919050565b600060208201905081810360008301526148538161423e565b9050919050565b6000602082019050818103600083015261487381614261565b9050919050565b6000602082019050818103600083015261489381614284565b9050919050565b600060208201905081810360008301526148b3816142a7565b9050919050565b600060208201905081810360008301526148d3816142ca565b9050919050565b600060208201905081810360008301526148f3816142ed565b9050919050565b6000602082019050818103600083015261491381614310565b9050919050565b6000602082019050818103600083015261493381614333565b9050919050565b6000602082019050818103600083015261495381614356565b9050919050565b6000602082019050818103600083015261497381614379565b9050919050565b600060208201905081810360008301526149938161439c565b9050919050565b600060208201905081810360008301526149b3816143bf565b9050919050565b600060208201905081810360008301526149d3816143e2565b9050919050565b600060208201905081810360008301526149f381614405565b9050919050565b60006020820190508181036000830152614a1381614428565b9050919050565b60006020820190508181036000830152614a338161444b565b9050919050565b60006020820190508181036000830152614a538161446e565b9050919050565b60006020820190508181036000830152614a7381614491565b9050919050565b60006020820190508181036000830152614a93816144b4565b9050919050565b60006020820190508181036000830152614ab3816144d7565b9050919050565b6000602082019050614acf60008301846145b0565b92915050565b6000604082019050614aea60008301856145b0565b614af76020830184613fdb565b9392505050565b600060a082019050614b1360008301886145b0565b614b206020830187613fdb565b614b2d6040830186613fdb565b614b3a60608301856145b0565b614b4760808301846145bf565b9695505050505050565b6000604082019050614b6660008301856145b0565b8181036020830152614b7881846144fa565b90509392505050565b6000602082019050614b9660008301846145bf565b92915050565b6000614ba6614bb7565b9050614bb28282614fb0565b919050565b6000604051905090565b600067ffffffffffffffff821115614bdc57614bdb615117565b5b602082029050602081019050919050565b600067ffffffffffffffff821115614c0857614c07615117565b5b614c1182615146565b9050602081019050919050565b600067ffffffffffffffff821115614c3957614c38615117565b5b614c4282615146565b9050602081019050919050565b60008190508160005260206000209050919050565b600081549050919050565b600081519050919050565b600081519050919050565b6000600282019050919050565b600082825260208201905092915050565b600082825260208201905092915050565b600082825260208201905092915050565b600081905092915050565b6000614cdb82614e99565b9150614ce683614e99565b9250827fffffffffffffffffffffffffffffffffffffffffffffffffffffffffffffffff03821115614d1b57614d1a61505b565b5b828201905092915050565b6000614d3182614e99565b9150614d3c83614e99565b925082614d4c57614d4b61508a565b5b828204905092915050565b6000614d6282614e99565b9150614d6d83614e99565b9250817fffffffffffffffffffffffffffffffffffffffffffffffffffffffffffffffff0483118215151615614da657614da561505b565b5b828202905092915050565b6000614dbc82614e99565b9150614dc783614e99565b925082821015614dda57614dd961505b565b5b828203905092915050565b600073ffffffffffffffffffffffffffffffffffffffff82169050919050565b600060ff82169050919050565b6000819050919050565b6000614e2782614e79565b9050919050565b60008115159050919050565b60007fffffffff0000000000000000000000000000000000000000000000000000000082169050919050565b6000819050614e7482615931565b919050565b600073ffffffffffffffffffffffffffffffffffffffff82169050919050565b6000819050919050565b600060ff82169050919050565b6000614ebb82614e66565b9050919050565b6000614ecd82614e99565b9050919050565b82818337600083830152505050565b60005b83811015614f01578082015181840152602081019050614ee6565b83811115614f10576000848401525b50505050565b60006002820490506001821680614f2e57607f821691505b60208210811415614f4257614f416150e8565b5b50919050565b6000614f5b614f5683615157565b614de5565b9050919050565b6000614f75614f7083615157565b614e05565b9050919050565b6000614f8f614f8a83615157565b614e12565b9050919050565b6000614fa9614fa483615164565b614e05565b9050919050565b614fb982615146565b810181811067ffffffffffffffff82111715614fd857614fd7615117565b5b80604052505050565b6000614fec82614e99565b91507fffffffffffffffffffffffffffffffffffffffffffffffffffffffffffffffff82141561501f5761501e61505b565b5b600182019050919050565b600061503582614e99565b915061504083614e99565b9250826150505761504f61508a565b5b828206905092915050565b7f4e487b7100000000000000000000000000000000000000000000000000000000600052601160045260246000fd5b7f4e487b7100000000000000000000000000000000000000000000000000000000600052601260045260246000fd5b7f4e487b7100000000000000000000000000000000000000000000000000000000600052602160045260246000fd5b7f4e487b7100000000000000000000000000000000000000000000000000000000600052602260045260246000fd5b7f4e487b7100000000000000000000000000000000000000000000000000000000600052604160045260246000fd5b6000601f19601f8301169050919050565b60008160001c9050919050565b60008160a01c9050919050565b7f455243373231456e756d657261626c653a206f776e657220696e646578206f7560008201527f74206f6620626f756e6473000000000000000000000000000000000000000000602082015250565b7f4552433732313a207472616e7366657220746f206e6f6e20455243373231526560008201527f63656976657220696d706c656d656e7465720000000000000000000000000000602082015250565b7f4f776e61626c653a206e6577206f776e657220697320746865207a65726f206160008201527f6464726573730000000000000000000000000000000000000000000000000000602082015250565b7f4552433732313a207472616e736665722066726f6d20696e636f72726563742060008201527f6f776e6572000000000000000000000000000000000000000000000000000000602082015250565b7f4552433732313a20746f6b656e20616c7265616479206d696e74656400000000600082015250565b7f46756e6374696f6e2063616e6e6f742062652063616c6c656420756e74696c2060008201527f636f6e74726163742064656661756c747320617265207365742e000000000000602082015250565b7f4552433732313a207472616e7366657220746f20746865207a65726f2061646460008201527f7265737300000000000000000000000000000000000000000000000000000000602082015250565b7f4552433732313a20617070726f766520746f2063616c6c657200000000000000600082015250565b7f596f752063616e27742072656e7420616e204e46542066726f6d20796f75727360008201527f656c662e00000000000000000000000000000000000000000000000000000000602082015250565b7f54686520766964656f2072656e74657220646f65736e2774206861766520656e60008201527f6f75676820746f6b656e7320746f207761746368207468697320766964656f2e602082015250565b7f4552433732313a206f70657261746f7220717565727920666f72206e6f6e657860008201527f697374656e7420746f6b656e0000000000000000000000000000000000000000602082015250565b7f4552433732313a20617070726f76652063616c6c6572206973206e6f74206f7760008201527f6e6572206e6f7220617070726f76656420666f7220616c6c0000000000000000602082015250565b7f4552433732313a2062616c616e636520717565727920666f7220746865207a6560008201527f726f206164647265737300000000000000000000000000000000000000000000602082015250565b7f4552433732313a206f776e657220717565727920666f72206e6f6e657869737460008201527f656e7420746f6b656e0000000000000000000000000000000000000000000000602082015250565b7f45524337323155524953746f726167653a2055524920736574206f66206e6f6e60008201527f6578697374656e7420746f6b656e000000000000000000000000000000000000602082015250565b7f446179732072656e746564206d6179206e6f74206265207a65726f2e00000000600082015250565b7f4552433732313a206d696e7420746f20746865207a65726f2061646472657373600082015250565b7f45524337323155524953746f726167653a2055524920717565727920666f722060008201527f6e6f6e6578697374656e7420746f6b656e000000000000000000000000000000602082015250565b7f4f6e6c7920746865206f776e6572206f6620616e204e46542063616e2063686160008201527f6e6765206974732072656e74616c2070726963652e0000000000000000000000602082015250565b7f4552433732313a20617070726f76656420717565727920666f72206e6f6e657860008201527f697374656e7420746f6b656e0000000000000000000000000000000000000000602082015250565b7f4f776e61626c653a2063616c6c6572206973206e6f7420746865206f776e6572600082015250565b7f4552433732314d657461646174613a2055524920717565727920666f72206e6f60008201527f6e6578697374656e7420746f6b656e0000000000000000000000000000000000602082015250565b7f4552433732313a20617070726f76616c20746f2063757272656e74206f776e6560008201527f7200000000000000000000000000000000000000000000000000000000000000602082015250565b7f54686520746f6b656e20696420737570706c69656420646f6573206e6f74206560008201527f786973742e000000000000000000000000000000000000000000000000000000602082015250565b7f4552433732313a207472616e736665722063616c6c6572206973206e6f74206f60008201527f776e6572206e6f7220617070726f766564000000000000000000000000000000602082015250565b7f455243373231456e756d657261626c653a20676c6f62616c20696e646578206f60008201527f7574206f6620626f756e64730000000000000000000000000000000000000000602082015250565b7f4661696c656420746f207472616e7366657220746f6b656e20746f2075736572600082015250565b7f546865206d6f64657261746f72206d757374206f776e206174206c656173742060008201527f6f6e6520564853204e46542e0000000000000000000000000000000000000000602082015250565b60048110615942576159416150b9565b5b50565b61594e81614e1c565b811461595957600080fd5b50565b61596581614e2e565b811461597057600080fd5b50565b61597c81614e3a565b811461598757600080fd5b50565b6004811061599757600080fd5b50565b6159a381614e99565b81146159ae57600080fd5b50565b6159ba81614ea3565b81146159c557600080fd5b5056fea2646970667358221220a0314c8d06f441e80ffa414e014af7b374d760a6f898497a3afa9d82c7797f7b64736f6c63430008040033",
  "linkReferences": {},
  "deployedLinkReferences": {}
}