{
  "_format": "hh-sol-artifact-1",
  "contractName": "VideoNFT",
  "sourceName": "contracts/VideoNFT.sol",
  "abi": [
    {
      "inputs": [],
      "stateMutability": "nonpayable",
      "type": "constructor"
    },
    {
      "anonymous": false,
      "inputs": [
        {
          "indexed": true,
          "internalType": "address",
          "name": "owner",
          "type": "address"
        },
        {
          "indexed": true,
          "internalType": "address",
          "name": "approved",
          "type": "address"
        },
        {
          "indexed": true,
          "internalType": "uint256",
          "name": "tokenId",
          "type": "uint256"
        }
      ],
      "name": "Approval",
      "type": "event"
    },
    {
      "anonymous": false,
      "inputs": [
        {
          "indexed": true,
          "internalType": "address",
          "name": "owner",
          "type": "address"
        },
        {
          "indexed": true,
          "internalType": "address",
          "name": "operator",
          "type": "address"
        },
        {
          "indexed": false,
          "internalType": "bool",
          "name": "approved",
          "type": "bool"
        }
      ],
      "name": "ApprovalForAll",
      "type": "event"
    },
    {
      "anonymous": false,
      "inputs": [
        {
          "indexed": false,
          "internalType": "uint256",
          "name": "",
          "type": "uint256"
        },
        {
          "indexed": false,
          "internalType": "address",
          "name": "",
          "type": "address"
        }
      ],
      "name": "Minted",
      "type": "event"
    },
    {
      "anonymous": false,
      "inputs": [
        {
          "indexed": true,
          "internalType": "address",
          "name": "previousOwner",
          "type": "address"
        },
        {
          "indexed": true,
          "internalType": "address",
          "name": "newOwner",
          "type": "address"
        }
      ],
      "name": "OwnershipTransferred",
      "type": "event"
    },
    {
      "anonymous": false,
      "inputs": [
        {
          "indexed": false,
          "internalType": "uint256",
          "name": "",
          "type": "uint256"
        },
        {
          "indexed": false,
          "internalType": "address",
          "name": "",
          "type": "address"
        },
        {
          "indexed": false,
          "internalType": "address",
          "name": "",
          "type": "address"
        },
        {
          "indexed": false,
          "internalType": "uint256",
          "name": "",
          "type": "uint256"
        }
      ],
      "name": "Rented",
      "type": "event"
    },
    {
      "anonymous": false,
      "inputs": [
        {
          "indexed": true,
          "internalType": "address",
          "name": "from",
          "type": "address"
        },
        {
          "indexed": true,
          "internalType": "address",
          "name": "to",
          "type": "address"
        },
        {
          "indexed": true,
          "internalType": "uint256",
          "name": "tokenId",
          "type": "uint256"
        }
      ],
      "name": "Transfer",
      "type": "event"
    },
    {
      "inputs": [
        {
          "internalType": "address",
          "name": "to",
          "type": "address"
        },
        {
          "internalType": "uint256",
          "name": "tokenId",
          "type": "uint256"
        }
      ],
      "name": "approve",
      "outputs": [],
      "stateMutability": "nonpayable",
      "type": "function"
    },
    {
      "inputs": [
        {
          "internalType": "address",
          "name": "owner",
          "type": "address"
        }
      ],
      "name": "balanceOf",
      "outputs": [
        {
          "internalType": "uint256",
          "name": "",
          "type": "uint256"
        }
      ],
      "stateMutability": "view",
      "type": "function"
    },
    {
      "inputs": [
        {
          "internalType": "uint256",
          "name": "tokenId",
          "type": "uint256"
        }
      ],
      "name": "getApproved",
      "outputs": [
        {
          "internalType": "address",
          "name": "",
          "type": "address"
        }
      ],
      "stateMutability": "view",
      "type": "function"
    },
    {
      "inputs": [
        {
          "internalType": "address",
          "name": "owner",
          "type": "address"
        },
        {
          "internalType": "address",
          "name": "operator",
          "type": "address"
        }
      ],
      "name": "isApprovedForAll",
      "outputs": [
        {
          "internalType": "bool",
          "name": "",
          "type": "bool"
        }
      ],
      "stateMutability": "view",
      "type": "function"
    },
    {
      "inputs": [],
      "name": "name",
      "outputs": [
        {
          "internalType": "string",
          "name": "",
          "type": "string"
        }
      ],
      "stateMutability": "view",
      "type": "function"
    },
    {
      "inputs": [],
      "name": "owner",
      "outputs": [
        {
          "internalType": "address",
          "name": "",
          "type": "address"
        }
      ],
      "stateMutability": "view",
      "type": "function"
    },
    {
      "inputs": [
        {
          "internalType": "uint256",
          "name": "tokenId",
          "type": "uint256"
        }
      ],
      "name": "ownerOf",
      "outputs": [
        {
          "internalType": "address",
          "name": "",
          "type": "address"
        }
      ],
      "stateMutability": "view",
      "type": "function"
    },
    {
      "inputs": [],
      "name": "renounceOwnership",
      "outputs": [],
      "stateMutability": "nonpayable",
      "type": "function"
    },
    {
      "inputs": [
        {
          "internalType": "address",
          "name": "erc20ContractAddress",
          "type": "address"
        },
        {
          "internalType": "uint256",
          "name": "tokenId",
          "type": "uint256"
        },
        {
          "internalType": "uint256",
          "name": "amount",
          "type": "uint256"
        }
      ],
      "name": "rentVideo",
      "outputs": [],
      "stateMutability": "nonpayable",
      "type": "function"
    },
    {
      "inputs": [
        {
          "internalType": "address",
          "name": "erc20ContractAddress",
          "type": "address"
        },
        {
          "internalType": "address",
          "name": "to",
          "type": "address"
        },
        {
          "internalType": "string",
          "name": "uri",
          "type": "string"
        },
        {
          "internalType": "uint256",
          "name": "rentalReward",
          "type": "uint256"
        }
      ],
      "name": "safeMint",
      "outputs": [
        {
          "internalType": "uint256",
          "name": "",
          "type": "uint256"
        }
      ],
      "stateMutability": "nonpayable",
      "type": "function"
    },
    {
      "inputs": [
        {
          "internalType": "address",
          "name": "from",
          "type": "address"
        },
        {
          "internalType": "address",
          "name": "to",
          "type": "address"
        },
        {
          "internalType": "uint256",
          "name": "tokenId",
          "type": "uint256"
        }
      ],
      "name": "safeTransferFrom",
      "outputs": [],
      "stateMutability": "nonpayable",
      "type": "function"
    },
    {
      "inputs": [
        {
          "internalType": "address",
          "name": "from",
          "type": "address"
        },
        {
          "internalType": "address",
          "name": "to",
          "type": "address"
        },
        {
          "internalType": "uint256",
          "name": "tokenId",
          "type": "uint256"
        },
        {
          "internalType": "bytes",
          "name": "_data",
          "type": "bytes"
        }
      ],
      "name": "safeTransferFrom",
      "outputs": [],
      "stateMutability": "nonpayable",
      "type": "function"
    },
    {
      "inputs": [
        {
          "internalType": "address",
          "name": "operator",
          "type": "address"
        },
        {
          "internalType": "bool",
          "name": "approved",
          "type": "bool"
        }
      ],
      "name": "setApprovalForAll",
      "outputs": [],
      "stateMutability": "nonpayable",
      "type": "function"
    },
    {
      "inputs": [
        {
          "internalType": "bytes4",
          "name": "interfaceId",
          "type": "bytes4"
        }
      ],
      "name": "supportsInterface",
      "outputs": [
        {
          "internalType": "bool",
          "name": "",
          "type": "bool"
        }
      ],
      "stateMutability": "view",
      "type": "function"
    },
    {
      "inputs": [],
      "name": "symbol",
      "outputs": [
        {
          "internalType": "string",
          "name": "",
          "type": "string"
        }
      ],
      "stateMutability": "view",
      "type": "function"
    },
    {
      "inputs": [
        {
          "internalType": "uint256",
          "name": "index",
          "type": "uint256"
        }
      ],
      "name": "tokenByIndex",
      "outputs": [
        {
          "internalType": "uint256",
          "name": "",
          "type": "uint256"
        }
      ],
      "stateMutability": "view",
      "type": "function"
    },
    {
      "inputs": [
        {
          "internalType": "address",
          "name": "owner",
          "type": "address"
        },
        {
          "internalType": "uint256",
          "name": "index",
          "type": "uint256"
        }
      ],
      "name": "tokenOfOwnerByIndex",
      "outputs": [
        {
          "internalType": "uint256",
          "name": "",
          "type": "uint256"
        }
      ],
      "stateMutability": "view",
      "type": "function"
    },
    {
      "inputs": [
        {
          "internalType": "uint256",
          "name": "tokenId",
          "type": "uint256"
        }
      ],
      "name": "tokenURI",
      "outputs": [
        {
          "internalType": "string",
          "name": "",
          "type": "string"
        }
      ],
      "stateMutability": "view",
      "type": "function"
    },
    {
      "inputs": [],
      "name": "totalSupply",
      "outputs": [
        {
          "internalType": "uint256",
          "name": "",
          "type": "uint256"
        }
      ],
      "stateMutability": "view",
      "type": "function"
    },
    {
      "inputs": [
        {
          "internalType": "address",
          "name": "from",
          "type": "address"
        },
        {
          "internalType": "address",
          "name": "to",
          "type": "address"
        },
        {
          "internalType": "uint256",
          "name": "tokenId",
          "type": "uint256"
        }
      ],
      "name": "transferFrom",
      "outputs": [],
      "stateMutability": "nonpayable",
      "type": "function"
    },
    {
      "inputs": [
        {
          "internalType": "address",
          "name": "newOwner",
          "type": "address"
        }
      ],
      "name": "transferOwnership",
      "outputs": [],
      "stateMutability": "nonpayable",
      "type": "function"
    }
  ],
  "bytecode": "0x60806040523480156200001157600080fd5b506040518060400160405280600881526020017f566964656f4e46540000000000000000000000000000000000000000000000008152506040518060400160405280600481526020017f5648534e00000000000000000000000000000000000000000000000000000000815250816000908051906020019062000096929190620001a6565b508060019080519060200190620000af929190620001a6565b505050620000d2620000c6620000d860201b60201c565b620000e060201b60201c565b620002bb565b600033905090565b6000600b60009054906101000a900473ffffffffffffffffffffffffffffffffffffffff16905081600b60006101000a81548173ffffffffffffffffffffffffffffffffffffffff021916908373ffffffffffffffffffffffffffffffffffffffff1602179055508173ffffffffffffffffffffffffffffffffffffffff168173ffffffffffffffffffffffffffffffffffffffff167f8be0079c531659141344cd1fd0a4f28419497f9722a3daafe3b4186f6b6457e060405160405180910390a35050565b828054620001b49062000256565b90600052602060002090601f016020900481019282620001d8576000855562000224565b82601f10620001f357805160ff191683800117855562000224565b8280016001018555821562000224579182015b828111156200022357825182559160200191906001019062000206565b5b50905062000233919062000237565b5090565b5b808211156200025257600081600090555060010162000238565b5090565b600060028204905060018216806200026f57607f821691505b602082108114156200028657620002856200028c565b5b50919050565b7f4e487b7100000000000000000000000000000000000000000000000000000000600052602260045260246000fd5b613c1180620002cb6000396000f3fe608060405234801561001057600080fd5b50600436106101375760003560e01c80636352211e116100b8578063a22cb4651161007c578063a22cb46514610362578063b012fcea1461037e578063b88d4fde1461039a578063c87b56dd146103b6578063e985e9c5146103e6578063f2fde38b1461041657610137565b80636352211e146102bc57806370a08231146102ec578063715018a61461031c5780638da5cb5b1461032657806395d89b411461034457610137565b806323b872dd116100ff57806323b872dd146101f45780632f745c59146102105780633a57687b1461024057806342842e0e146102705780634f6ccce71461028c57610137565b806301ffc9a71461013c57806306fdde031461016c578063081812fc1461018a578063095ea7b3146101ba57806318160ddd146101d6575b600080fd5b610156600480360381019061015191906129ce565b610432565b6040516101639190612ec0565b60405180910390f35b610174610444565b6040516101819190612edb565b60405180910390f35b6101a4600480360381019061019f9190612a20565b6104d6565b6040516101b19190612df9565b60405180910390f35b6101d460048036038101906101cf919061291a565b61055b565b005b6101de610673565b6040516101eb919061317d565b60405180910390f35b61020e60048036038101906102099190612814565b610680565b005b61022a6004803603810190610225919061291a565b6106e0565b604051610237919061317d565b60405180910390f35b61025a60048036038101906102559190612799565b610785565b604051610267919061317d565b60405180910390f35b61028a60048036038101906102859190612814565b610902565b005b6102a660048036038101906102a19190612a20565b610922565b6040516102b3919061317d565b60405180910390f35b6102d660048036038101906102d19190612a20565b6109b9565b6040516102e39190612df9565b60405180910390f35b61030660048036038101906103019190612734565b610a6b565b604051610313919061317d565b60405180910390f35b610324610b23565b005b61032e610bab565b60405161033b9190612df9565b60405180910390f35b61034c610bd5565b6040516103599190612edb565b60405180910390f35b61037c600480360381019061037791906128de565b610c67565b005b61039860048036038101906103939190612956565b610c7d565b005b6103b460048036038101906103af9190612863565b610ded565b005b6103d060048036038101906103cb9190612a20565b610e4f565b6040516103dd9190612edb565b60405180910390f35b61040060048036038101906103fb919061275d565b610e61565b60405161040d9190612ec0565b60405180910390f35b610430600480360381019061042b9190612734565b610ef5565b005b600061043d82610fed565b9050919050565b60606000805461045390613441565b80601f016020809104026020016040519081016040528092919081815260200182805461047f90613441565b80156104cc5780601f106104a1576101008083540402835291602001916104cc565b820191906000526020600020905b8154815290600101906020018083116104af57829003601f168201915b5050505050905090565b60006104e182611067565b610520576040517f08c379a0000000000000000000000000000000000000000000000000000000008152600401610517906130bd565b60405180910390fd5b6004600083815260200190815260200160002060009054906101000a900473ffffffffffffffffffffffffffffffffffffffff169050919050565b6000610566826109b9565b90508073ffffffffffffffffffffffffffffffffffffffff168373ffffffffffffffffffffffffffffffffffffffff1614156105d7576040517f08c379a00000000000000000000000000000000000000000000000000000000081526004016105ce9061311d565b60405180910390fd5b8073ffffffffffffffffffffffffffffffffffffffff166105f66110d3565b73ffffffffffffffffffffffffffffffffffffffff16148061062557506106248161061f6110d3565b610e61565b5b610664576040517f08c379a000000000000000000000000000000000000000000000000000000000815260040161065b90612ffd565b60405180910390fd5b61066e83836110db565b505050565b6000600880549050905090565b61069161068b6110d3565b82611194565b6106d0576040517f08c379a00000000000000000000000000000000000000000000000000000000081526004016106c79061313d565b60405180910390fd5b6106db838383611272565b505050565b60006106eb83610a6b565b821061072c576040517f08c379a000000000000000000000000000000000000000000000000000000000815260040161072390612efd565b60405180910390fd5b600660008473ffffffffffffffffffffffffffffffffffffffff1673ffffffffffffffffffffffffffffffffffffffff168152602001908152602001600020600083815260200190815260200160002054905092915050565b600061078f6110d3565b73ffffffffffffffffffffffffffffffffffffffff166107ad610bab565b73ffffffffffffffffffffffffffffffffffffffff1614610803576040517f08c379a00000000000000000000000000000000000000000000000000000000081526004016107fa906130dd565b60405180910390fd5b600061080f600c6114d9565b905061081b600c6114e7565b61082585826114fd565b61082f81856116d7565b8573ffffffffffffffffffffffffffffffffffffffff1663a9059cbb86856040518363ffffffff1660e01b815260040161086a929190612e97565b602060405180830381600087803b15801561088457600080fd5b505af1158015610898573d6000803e3d6000fd5b505050506040513d601f19601f820116820180604052508101906108bc91906129a5565b507fb9203d657e9c0ec8274c818292ab0f58b04e1970050716891770eb1bab5d655e81866040516108ee929190613198565b60405180910390a180915050949350505050565b61091d83838360405180602001604052806000815250610ded565b505050565b600061092c610673565b821061096d576040517f08c379a00000000000000000000000000000000000000000000000000000000081526004016109649061315d565b60405180910390fd5b600882815481106109a7577f4e487b7100000000000000000000000000000000000000000000000000000000600052603260045260246000fd5b90600052602060002001549050919050565b6000806002600084815260200190815260200160002060009054906101000a900473ffffffffffffffffffffffffffffffffffffffff169050600073ffffffffffffffffffffffffffffffffffffffff168173ffffffffffffffffffffffffffffffffffffffff161415610a62576040517f08c379a0000000000000000000000000000000000000000000000000000000008152600401610a599061303d565b60405180910390fd5b80915050919050565b60008073ffffffffffffffffffffffffffffffffffffffff168273ffffffffffffffffffffffffffffffffffffffff161415610adc576040517f08c379a0000000000000000000000000000000000000000000000000000000008152600401610ad39061301d565b60405180910390fd5b600360008373ffffffffffffffffffffffffffffffffffffffff1673ffffffffffffffffffffffffffffffffffffffff168152602001908152602001600020549050919050565b610b2b6110d3565b73ffffffffffffffffffffffffffffffffffffffff16610b49610bab565b73ffffffffffffffffffffffffffffffffffffffff1614610b9f576040517f08c379a0000000000000000000000000000000000000000000000000000000008152600401610b96906130dd565b60405180910390fd5b610ba9600061174b565b565b6000600b60009054906101000a900473ffffffffffffffffffffffffffffffffffffffff16905090565b606060018054610be490613441565b80601f0160208091040260200160405190810160405280929190818152602001828054610c1090613441565b8015610c5d5780601f10610c3257610100808354040283529160200191610c5d565b820191906000526020600020905b815481529060010190602001808311610c4057829003601f168201915b5050505050905090565b610c79610c726110d3565b8383611811565b5050565b8273ffffffffffffffffffffffffffffffffffffffff1663095ea7b333836040518363ffffffff1660e01b8152600401610cb8929190612e97565b602060405180830381600087803b158015610cd257600080fd5b505af1158015610ce6573d6000803e3d6000fd5b505050506040513d601f19601f82011682018060405250810190610d0a91906129a5565b508273ffffffffffffffffffffffffffffffffffffffff166323b872dd33610d31856109b9565b846040518463ffffffff1660e01b8152600401610d5093929190612e14565b602060405180830381600087803b158015610d6a57600080fd5b505af1158015610d7e573d6000803e3d6000fd5b505050506040513d601f19601f82011682018060405250810190610da291906129a5565b507f7dae66d475361a8bb7f184659d94e913b124102c2f9536297faeeae42f7728cd8233610dcf856109b9565b84604051610de094939291906131c1565b60405180910390a1505050565b610dfe610df86110d3565b83611194565b610e3d576040517f08c379a0000000000000000000000000000000000000000000000000000000008152600401610e349061313d565b60405180910390fd5b610e498484848461197e565b50505050565b6060610e5a826119da565b9050919050565b6000600560008473ffffffffffffffffffffffffffffffffffffffff1673ffffffffffffffffffffffffffffffffffffffff16815260200190815260200160002060008373ffffffffffffffffffffffffffffffffffffffff1673ffffffffffffffffffffffffffffffffffffffff16815260200190815260200160002060009054906101000a900460ff16905092915050565b610efd6110d3565b73ffffffffffffffffffffffffffffffffffffffff16610f1b610bab565b73ffffffffffffffffffffffffffffffffffffffff1614610f71576040517f08c379a0000000000000000000000000000000000000000000000000000000008152600401610f68906130dd565b60405180910390fd5b600073ffffffffffffffffffffffffffffffffffffffff168173ffffffffffffffffffffffffffffffffffffffff161415610fe1576040517f08c379a0000000000000000000000000000000000000000000000000000000008152600401610fd890612f3d565b60405180910390fd5b610fea8161174b565b50565b60007f780e9d63000000000000000000000000000000000000000000000000000000007bffffffffffffffffffffffffffffffffffffffffffffffffffffffff1916827bffffffffffffffffffffffffffffffffffffffffffffffffffffffff19161480611060575061105f82611b2c565b5b9050919050565b60008073ffffffffffffffffffffffffffffffffffffffff166002600084815260200190815260200160002060009054906101000a900473ffffffffffffffffffffffffffffffffffffffff1673ffffffffffffffffffffffffffffffffffffffff1614159050919050565b600033905090565b816004600083815260200190815260200160002060006101000a81548173ffffffffffffffffffffffffffffffffffffffff021916908373ffffffffffffffffffffffffffffffffffffffff160217905550808273ffffffffffffffffffffffffffffffffffffffff1661114e836109b9565b73ffffffffffffffffffffffffffffffffffffffff167f8c5be1e5ebec7d5bd14f71427d1e84f3dd0314c0f7b2291e5b200ac8c7c3b92560405160405180910390a45050565b600061119f82611067565b6111de576040517f08c379a00000000000000000000000000000000000000000000000000000000081526004016111d590612fdd565b60405180910390fd5b60006111e9836109b9565b90508073ffffffffffffffffffffffffffffffffffffffff168473ffffffffffffffffffffffffffffffffffffffff16148061125857508373ffffffffffffffffffffffffffffffffffffffff16611240846104d6565b73ffffffffffffffffffffffffffffffffffffffff16145b8061126957506112688185610e61565b5b91505092915050565b8273ffffffffffffffffffffffffffffffffffffffff16611292826109b9565b73ffffffffffffffffffffffffffffffffffffffff16146112e8576040517f08c379a00000000000000000000000000000000000000000000000000000000081526004016112df90612f5d565b60405180910390fd5b600073ffffffffffffffffffffffffffffffffffffffff168273ffffffffffffffffffffffffffffffffffffffff161415611358576040517f08c379a000000000000000000000000000000000000000000000000000000000815260040161134f90612f9d565b60405180910390fd5b611363838383611c0e565b61136e6000826110db565b6001600360008573ffffffffffffffffffffffffffffffffffffffff1673ffffffffffffffffffffffffffffffffffffffff16815260200190815260200160002060008282546113be9190613357565b925050819055506001600360008473ffffffffffffffffffffffffffffffffffffffff1673ffffffffffffffffffffffffffffffffffffffff168152602001908152602001600020600082825461141591906132d0565b92505081905550816002600083815260200190815260200160002060006101000a81548173ffffffffffffffffffffffffffffffffffffffff021916908373ffffffffffffffffffffffffffffffffffffffff160217905550808273ffffffffffffffffffffffffffffffffffffffff168473ffffffffffffffffffffffffffffffffffffffff167fddf252ad1be2c89b69c2b068fc378daa952ba7f163c4a11628f55a4df523b3ef60405160405180910390a46114d4838383611c1e565b505050565b600081600001549050919050565b6001816000016000828254019250508190555050565b600073ffffffffffffffffffffffffffffffffffffffff168273ffffffffffffffffffffffffffffffffffffffff16141561156d576040517f08c379a00000000000000000000000000000000000000000000000000000000081526004016115649061307d565b60405180910390fd5b61157681611067565b156115b6576040517f08c379a00000000000000000000000000000000000000000000000000000000081526004016115ad90612f7d565b60405180910390fd5b6115c260008383611c0e565b6001600360008473ffffffffffffffffffffffffffffffffffffffff1673ffffffffffffffffffffffffffffffffffffffff168152602001908152602001600020600082825461161291906132d0565b92505081905550816002600083815260200190815260200160002060006101000a81548173ffffffffffffffffffffffffffffffffffffffff021916908373ffffffffffffffffffffffffffffffffffffffff160217905550808273ffffffffffffffffffffffffffffffffffffffff16600073ffffffffffffffffffffffffffffffffffffffff167fddf252ad1be2c89b69c2b068fc378daa952ba7f163c4a11628f55a4df523b3ef60405160405180910390a46116d360008383611c1e565b5050565b6116e082611067565b61171f576040517f08c379a00000000000000000000000000000000000000000000000000000000081526004016117169061305d565b60405180910390fd5b80600a60008481526020019081526020016000209080519060200190611746929190612543565b505050565b6000600b60009054906101000a900473ffffffffffffffffffffffffffffffffffffffff16905081600b60006101000a81548173ffffffffffffffffffffffffffffffffffffffff021916908373ffffffffffffffffffffffffffffffffffffffff1602179055508173ffffffffffffffffffffffffffffffffffffffff168173ffffffffffffffffffffffffffffffffffffffff167f8be0079c531659141344cd1fd0a4f28419497f9722a3daafe3b4186f6b6457e060405160405180910390a35050565b8173ffffffffffffffffffffffffffffffffffffffff168373ffffffffffffffffffffffffffffffffffffffff161415611880576040517f08c379a000000000000000000000000000000000000000000000000000000000815260040161187790612fbd565b60405180910390fd5b80600560008573ffffffffffffffffffffffffffffffffffffffff1673ffffffffffffffffffffffffffffffffffffffff16815260200190815260200160002060008473ffffffffffffffffffffffffffffffffffffffff1673ffffffffffffffffffffffffffffffffffffffff16815260200190815260200160002060006101000a81548160ff0219169083151502179055508173ffffffffffffffffffffffffffffffffffffffff168373ffffffffffffffffffffffffffffffffffffffff167f17307eab39ab6107e8899845ad3d59bd9653f200f220920489ca2b5937696c31836040516119719190612ec0565b60405180910390a3505050565b611989848484611272565b61199584848484611c23565b6119d4576040517f08c379a00000000000000000000000000000000000000000000000000000000081526004016119cb90612f1d565b60405180910390fd5b50505050565b60606119e582611067565b611a24576040517f08c379a0000000000000000000000000000000000000000000000000000000008152600401611a1b9061309d565b60405180910390fd5b6000600a60008481526020019081526020016000208054611a4490613441565b80601f0160208091040260200160405190810160405280929190818152602001828054611a7090613441565b8015611abd5780601f10611a9257610100808354040283529160200191611abd565b820191906000526020600020905b815481529060010190602001808311611aa057829003601f168201915b505050505090506000611ace611dba565b9050600081511415611ae4578192505050611b27565b600082511115611b19578082604051602001611b01929190612dd5565b60405160208183030381529060405292505050611b27565b611b2284611dd1565b925050505b919050565b60007f80ac58cd000000000000000000000000000000000000000000000000000000007bffffffffffffffffffffffffffffffffffffffffffffffffffffffff1916827bffffffffffffffffffffffffffffffffffffffffffffffffffffffff19161480611bf757507f5b5e139f000000000000000000000000000000000000000000000000000000007bffffffffffffffffffffffffffffffffffffffffffffffffffffffff1916827bffffffffffffffffffffffffffffffffffffffffffffffffffffffff1916145b80611c075750611c0682611e78565b5b9050919050565b611c19838383611ee2565b505050565b505050565b6000611c448473ffffffffffffffffffffffffffffffffffffffff16611ff6565b15611dad578373ffffffffffffffffffffffffffffffffffffffff1663150b7a02611c6d6110d3565b8786866040518563ffffffff1660e01b8152600401611c8f9493929190612e4b565b602060405180830381600087803b158015611ca957600080fd5b505af1925050508015611cda57506040513d601f19601f82011682018060405250810190611cd791906129f7565b60015b611d5d573d8060008114611d0a576040519150601f19603f3d011682016040523d82523d6000602084013e611d0f565b606091505b50600081511415611d55576040517f08c379a0000000000000000000000000000000000000000000000000000000008152600401611d4c90612f1d565b60405180910390fd5b805181602001fd5b63150b7a0260e01b7bffffffffffffffffffffffffffffffffffffffffffffffffffffffff1916817bffffffffffffffffffffffffffffffffffffffffffffffffffffffff191614915050611db2565b600190505b949350505050565b606060405180602001604052806000815250905090565b6060611ddc82611067565b611e1b576040517f08c379a0000000000000000000000000000000000000000000000000000000008152600401611e12906130fd565b60405180910390fd5b6000611e25611dba565b90506000815111611e455760405180602001604052806000815250611e70565b80611e4f84612019565b604051602001611e60929190612dd5565b6040516020818303038152906040525b915050919050565b60007f01ffc9a7000000000000000000000000000000000000000000000000000000007bffffffffffffffffffffffffffffffffffffffffffffffffffffffff1916827bffffffffffffffffffffffffffffffffffffffffffffffffffffffff1916149050919050565b611eed8383836121c6565b600073ffffffffffffffffffffffffffffffffffffffff168373ffffffffffffffffffffffffffffffffffffffff161415611f3057611f2b816121cb565b611f6f565b8173ffffffffffffffffffffffffffffffffffffffff168373ffffffffffffffffffffffffffffffffffffffff1614611f6e57611f6d8382612214565b5b5b600073ffffffffffffffffffffffffffffffffffffffff168273ffffffffffffffffffffffffffffffffffffffff161415611fb257611fad81612381565b611ff1565b8273ffffffffffffffffffffffffffffffffffffffff168273ffffffffffffffffffffffffffffffffffffffff1614611ff057611fef82826124c4565b5b5b505050565b6000808273ffffffffffffffffffffffffffffffffffffffff163b119050919050565b60606000821415612061576040518060400160405280600181526020017f300000000000000000000000000000000000000000000000000000000000000081525090506121c1565b600082905060005b6000821461209357808061207c906134a4565b915050600a8261208c9190613326565b9150612069565b60008167ffffffffffffffff8111156120d5577f4e487b7100000000000000000000000000000000000000000000000000000000600052604160045260246000fd5b6040519080825280601f01601f1916602001820160405280156121075781602001600182028036833780820191505090505b5090505b600085146121ba576001826121209190613357565b9150600a8561212f91906134ed565b603061213b91906132d0565b60f81b818381518110612177577f4e487b7100000000000000000000000000000000000000000000000000000000600052603260045260246000fd5b60200101907effffffffffffffffffffffffffffffffffffffffffffffffffffffffffffff1916908160001a905350600a856121b39190613326565b945061210b565b8093505050505b919050565b505050565b6008805490506009600083815260200190815260200160002081905550600881908060018154018082558091505060019003906000526020600020016000909190919091505550565b6000600161222184610a6b565b61222b9190613357565b9050600060076000848152602001908152602001600020549050818114612310576000600660008673ffffffffffffffffffffffffffffffffffffffff1673ffffffffffffffffffffffffffffffffffffffff168152602001908152602001600020600084815260200190815260200160002054905080600660008773ffffffffffffffffffffffffffffffffffffffff1673ffffffffffffffffffffffffffffffffffffffff168152602001908152602001600020600084815260200190815260200160002081905550816007600083815260200190815260200160002081905550505b6007600084815260200190815260200160002060009055600660008573ffffffffffffffffffffffffffffffffffffffff1673ffffffffffffffffffffffffffffffffffffffff16815260200190815260200160002060008381526020019081526020016000206000905550505050565b600060016008805490506123959190613357565b90506000600960008481526020019081526020016000205490506000600883815481106123eb577f4e487b7100000000000000000000000000000000000000000000000000000000600052603260045260246000fd5b906000526020600020015490508060088381548110612433577f4e487b7100000000000000000000000000000000000000000000000000000000600052603260045260246000fd5b9060005260206000200181905550816009600083815260200190815260200160002081905550600960008581526020019081526020016000206000905560088054806124a8577f4e487b7100000000000000000000000000000000000000000000000000000000600052603160045260246000fd5b6001900381819060005260206000200160009055905550505050565b60006124cf83610a6b565b905081600660008573ffffffffffffffffffffffffffffffffffffffff1673ffffffffffffffffffffffffffffffffffffffff168152602001908152602001600020600083815260200190815260200160002081905550806007600084815260200190815260200160002081905550505050565b82805461254f90613441565b90600052602060002090601f01602090048101928261257157600085556125b8565b82601f1061258a57805160ff19168380011785556125b8565b828001600101855582156125b8579182015b828111156125b757825182559160200191906001019061259c565b5b5090506125c591906125c9565b5090565b5b808211156125e25760008160009055506001016125ca565b5090565b60006125f96125f48461322b565b613206565b90508281526020810184848401111561261157600080fd5b61261c8482856133ff565b509392505050565b60006126376126328461325c565b613206565b90508281526020810184848401111561264f57600080fd5b61265a8482856133ff565b509392505050565b60008135905061267181613b7f565b92915050565b60008135905061268681613b96565b92915050565b60008151905061269b81613b96565b92915050565b6000813590506126b081613bad565b92915050565b6000815190506126c581613bad565b92915050565b600082601f8301126126dc57600080fd5b81356126ec8482602086016125e6565b91505092915050565b600082601f83011261270657600080fd5b8135612716848260208601612624565b91505092915050565b60008135905061272e81613bc4565b92915050565b60006020828403121561274657600080fd5b600061275484828501612662565b91505092915050565b6000806040838503121561277057600080fd5b600061277e85828601612662565b925050602061278f85828601612662565b9150509250929050565b600080600080608085870312156127af57600080fd5b60006127bd87828801612662565b94505060206127ce87828801612662565b935050604085013567ffffffffffffffff8111156127eb57600080fd5b6127f7878288016126f5565b92505060606128088782880161271f565b91505092959194509250565b60008060006060848603121561282957600080fd5b600061283786828701612662565b935050602061284886828701612662565b92505060406128598682870161271f565b9150509250925092565b6000806000806080858703121561287957600080fd5b600061288787828801612662565b945050602061289887828801612662565b93505060406128a98782880161271f565b925050606085013567ffffffffffffffff8111156128c657600080fd5b6128d2878288016126cb565b91505092959194509250565b600080604083850312156128f157600080fd5b60006128ff85828601612662565b925050602061291085828601612677565b9150509250929050565b6000806040838503121561292d57600080fd5b600061293b85828601612662565b925050602061294c8582860161271f565b9150509250929050565b60008060006060848603121561296b57600080fd5b600061297986828701612662565b935050602061298a8682870161271f565b925050604061299b8682870161271f565b9150509250925092565b6000602082840312156129b757600080fd5b60006129c58482850161268c565b91505092915050565b6000602082840312156129e057600080fd5b60006129ee848285016126a1565b91505092915050565b600060208284031215612a0957600080fd5b6000612a17848285016126b6565b91505092915050565b600060208284031215612a3257600080fd5b6000612a408482850161271f565b91505092915050565b612a528161338b565b82525050565b612a618161339d565b82525050565b6000612a728261328d565b612a7c81856132a3565b9350612a8c81856020860161340e565b612a95816135da565b840191505092915050565b6000612aab82613298565b612ab581856132b4565b9350612ac581856020860161340e565b612ace816135da565b840191505092915050565b6000612ae482613298565b612aee81856132c5565b9350612afe81856020860161340e565b80840191505092915050565b6000612b17602b836132b4565b9150612b22826135eb565b604082019050919050565b6000612b3a6032836132b4565b9150612b458261363a565b604082019050919050565b6000612b5d6026836132b4565b9150612b6882613689565b604082019050919050565b6000612b806025836132b4565b9150612b8b826136d8565b604082019050919050565b6000612ba3601c836132b4565b9150612bae82613727565b602082019050919050565b6000612bc66024836132b4565b9150612bd182613750565b604082019050919050565b6000612be96019836132b4565b9150612bf48261379f565b602082019050919050565b6000612c0c602c836132b4565b9150612c17826137c8565b604082019050919050565b6000612c2f6038836132b4565b9150612c3a82613817565b604082019050919050565b6000612c52602a836132b4565b9150612c5d82613866565b604082019050919050565b6000612c756029836132b4565b9150612c80826138b5565b604082019050919050565b6000612c98602e836132b4565b9150612ca382613904565b604082019050919050565b6000612cbb6020836132b4565b9150612cc682613953565b602082019050919050565b6000612cde6031836132b4565b9150612ce98261397c565b604082019050919050565b6000612d01602c836132b4565b9150612d0c826139cb565b604082019050919050565b6000612d246020836132b4565b9150612d2f82613a1a565b602082019050919050565b6000612d47602f836132b4565b9150612d5282613a43565b604082019050919050565b6000612d6a6021836132b4565b9150612d7582613a92565b604082019050919050565b6000612d8d6031836132b4565b9150612d9882613ae1565b604082019050919050565b6000612db0602c836132b4565b9150612dbb82613b30565b604082019050919050565b612dcf816133f5565b82525050565b6000612de18285612ad9565b9150612ded8284612ad9565b91508190509392505050565b6000602082019050612e0e6000830184612a49565b92915050565b6000606082019050612e296000830186612a49565b612e366020830185612a49565b612e436040830184612dc6565b949350505050565b6000608082019050612e606000830187612a49565b612e6d6020830186612a49565b612e7a6040830185612dc6565b8181036060830152612e8c8184612a67565b905095945050505050565b6000604082019050612eac6000830185612a49565b612eb96020830184612dc6565b9392505050565b6000602082019050612ed56000830184612a58565b92915050565b60006020820190508181036000830152612ef58184612aa0565b905092915050565b60006020820190508181036000830152612f1681612b0a565b9050919050565b60006020820190508181036000830152612f3681612b2d565b9050919050565b60006020820190508181036000830152612f5681612b50565b9050919050565b60006020820190508181036000830152612f7681612b73565b9050919050565b60006020820190508181036000830152612f9681612b96565b9050919050565b60006020820190508181036000830152612fb681612bb9565b9050919050565b60006020820190508181036000830152612fd681612bdc565b9050919050565b60006020820190508181036000830152612ff681612bff565b9050919050565b6000602082019050818103600083015261301681612c22565b9050919050565b6000602082019050818103600083015261303681612c45565b9050919050565b6000602082019050818103600083015261305681612c68565b9050919050565b6000602082019050818103600083015261307681612c8b565b9050919050565b6000602082019050818103600083015261309681612cae565b9050919050565b600060208201905081810360008301526130b681612cd1565b9050919050565b600060208201905081810360008301526130d681612cf4565b9050919050565b600060208201905081810360008301526130f681612d17565b9050919050565b6000602082019050818103600083015261311681612d3a565b9050919050565b6000602082019050818103600083015261313681612d5d565b9050919050565b6000602082019050818103600083015261315681612d80565b9050919050565b6000602082019050818103600083015261317681612da3565b9050919050565b60006020820190506131926000830184612dc6565b92915050565b60006040820190506131ad6000830185612dc6565b6131ba6020830184612a49565b9392505050565b60006080820190506131d66000830187612dc6565b6131e36020830186612a49565b6131f06040830185612a49565b6131fd6060830184612dc6565b95945050505050565b6000613210613221565b905061321c8282613473565b919050565b6000604051905090565b600067ffffffffffffffff821115613246576132456135ab565b5b61324f826135da565b9050602081019050919050565b600067ffffffffffffffff821115613277576132766135ab565b5b613280826135da565b9050602081019050919050565b600081519050919050565b600081519050919050565b600082825260208201905092915050565b600082825260208201905092915050565b600081905092915050565b60006132db826133f5565b91506132e6836133f5565b9250827fffffffffffffffffffffffffffffffffffffffffffffffffffffffffffffffff0382111561331b5761331a61351e565b5b828201905092915050565b6000613331826133f5565b915061333c836133f5565b92508261334c5761334b61354d565b5b828204905092915050565b6000613362826133f5565b915061336d836133f5565b9250828210156133805761337f61351e565b5b828203905092915050565b6000613396826133d5565b9050919050565b60008115159050919050565b60007fffffffff0000000000000000000000000000000000000000000000000000000082169050919050565b600073ffffffffffffffffffffffffffffffffffffffff82169050919050565b6000819050919050565b82818337600083830152505050565b60005b8381101561342c578082015181840152602081019050613411565b8381111561343b576000848401525b50505050565b6000600282049050600182168061345957607f821691505b6020821081141561346d5761346c61357c565b5b50919050565b61347c826135da565b810181811067ffffffffffffffff8211171561349b5761349a6135ab565b5b80604052505050565b60006134af826133f5565b91507fffffffffffffffffffffffffffffffffffffffffffffffffffffffffffffffff8214156134e2576134e161351e565b5b600182019050919050565b60006134f8826133f5565b9150613503836133f5565b9250826135135761351261354d565b5b828206905092915050565b7f4e487b7100000000000000000000000000000000000000000000000000000000600052601160045260246000fd5b7f4e487b7100000000000000000000000000000000000000000000000000000000600052601260045260246000fd5b7f4e487b7100000000000000000000000000000000000000000000000000000000600052602260045260246000fd5b7f4e487b7100000000000000000000000000000000000000000000000000000000600052604160045260246000fd5b6000601f19601f8301169050919050565b7f455243373231456e756d657261626c653a206f776e657220696e646578206f7560008201527f74206f6620626f756e6473000000000000000000000000000000000000000000602082015250565b7f4552433732313a207472616e7366657220746f206e6f6e20455243373231526560008201527f63656976657220696d706c656d656e7465720000000000000000000000000000602082015250565b7f4f776e61626c653a206e6577206f776e657220697320746865207a65726f206160008201527f6464726573730000000000000000000000000000000000000000000000000000602082015250565b7f4552433732313a207472616e736665722066726f6d20696e636f72726563742060008201527f6f776e6572000000000000000000000000000000000000000000000000000000602082015250565b7f4552433732313a20746f6b656e20616c7265616479206d696e74656400000000600082015250565b7f4552433732313a207472616e7366657220746f20746865207a65726f2061646460008201527f7265737300000000000000000000000000000000000000000000000000000000602082015250565b7f4552433732313a20617070726f766520746f2063616c6c657200000000000000600082015250565b7f4552433732313a206f70657261746f7220717565727920666f72206e6f6e657860008201527f697374656e7420746f6b656e0000000000000000000000000000000000000000602082015250565b7f4552433732313a20617070726f76652063616c6c6572206973206e6f74206f7760008201527f6e6572206e6f7220617070726f76656420666f7220616c6c0000000000000000602082015250565b7f4552433732313a2062616c616e636520717565727920666f7220746865207a6560008201527f726f206164647265737300000000000000000000000000000000000000000000602082015250565b7f4552433732313a206f776e657220717565727920666f72206e6f6e657869737460008201527f656e7420746f6b656e0000000000000000000000000000000000000000000000602082015250565b7f45524337323155524953746f726167653a2055524920736574206f66206e6f6e60008201527f6578697374656e7420746f6b656e000000000000000000000000000000000000602082015250565b7f4552433732313a206d696e7420746f20746865207a65726f2061646472657373600082015250565b7f45524337323155524953746f726167653a2055524920717565727920666f722060008201527f6e6f6e6578697374656e7420746f6b656e000000000000000000000000000000602082015250565b7f4552433732313a20617070726f76656420717565727920666f72206e6f6e657860008201527f697374656e7420746f6b656e0000000000000000000000000000000000000000602082015250565b7f4f776e61626c653a2063616c6c6572206973206e6f7420746865206f776e6572600082015250565b7f4552433732314d657461646174613a2055524920717565727920666f72206e6f60008201527f6e6578697374656e7420746f6b656e0000000000000000000000000000000000602082015250565b7f4552433732313a20617070726f76616c20746f2063757272656e74206f776e6560008201527f7200000000000000000000000000000000000000000000000000000000000000602082015250565b7f4552433732313a207472616e736665722063616c6c6572206973206e6f74206f60008201527f776e6572206e6f7220617070726f766564000000000000000000000000000000602082015250565b7f455243373231456e756d657261626c653a20676c6f62616c20696e646578206f60008201527f7574206f6620626f756e64730000000000000000000000000000000000000000602082015250565b613b888161338b565b8114613b9357600080fd5b50565b613b9f8161339d565b8114613baa57600080fd5b50565b613bb6816133a9565b8114613bc157600080fd5b50565b613bcd816133f5565b8114613bd857600080fd5b5056fea264697066735822122005dd65f1c9bdf861c612fde5bfb6e796bee365a3e79fa34e98d689210a3b4e1964736f6c63430008040033",
  "linkReferences": {},
  "deployedLinkReferences": {}
}