{
  "_format": "hh-sol-artifact-1",
  "contractName": "VideoNFT",
  "sourceName": "contracts/VideoNFT.sol",
  "abi": [
    {
      "inputs": [],
      "stateMutability": "nonpayable",
      "type": "constructor"
    },
    {
      "anonymous": false,
      "inputs": [
        {
          "indexed": true,
          "internalType": "address",
          "name": "owner",
          "type": "address"
        },
        {
          "indexed": true,
          "internalType": "address",
          "name": "approved",
          "type": "address"
        },
        {
          "indexed": true,
          "internalType": "uint256",
          "name": "tokenId",
          "type": "uint256"
        }
      ],
      "name": "Approval",
      "type": "event"
    },
    {
      "anonymous": false,
      "inputs": [
        {
          "indexed": true,
          "internalType": "address",
          "name": "owner",
          "type": "address"
        },
        {
          "indexed": true,
          "internalType": "address",
          "name": "operator",
          "type": "address"
        },
        {
          "indexed": false,
          "internalType": "bool",
          "name": "approved",
          "type": "bool"
        }
      ],
      "name": "ApprovalForAll",
      "type": "event"
    },
    {
      "anonymous": false,
      "inputs": [
        {
          "indexed": false,
          "internalType": "uint256",
          "name": "",
          "type": "uint256"
        },
        {
          "indexed": false,
          "internalType": "address",
          "name": "",
          "type": "address"
        }
      ],
      "name": "Minted",
      "type": "event"
    },
    {
      "anonymous": false,
      "inputs": [
        {
          "indexed": false,
          "internalType": "uint256",
          "name": "",
          "type": "uint256"
        },
        {
          "components": [
            {
              "components": [
                {
                  "internalType": "uint256",
                  "name": "tokenId",
                  "type": "uint256"
                },
                {
                  "internalType": "address",
                  "name": "moderator",
                  "type": "address"
                },
                {
                  "internalType": "enum VideoNFT.ModerationStatus",
                  "name": "status",
                  "type": "uint8"
                }
              ],
              "internalType": "struct VideoNFT.ModerationItem[]",
              "name": "moderations",
              "type": "tuple[]"
            },
            {
              "internalType": "enum VideoNFT.ModerationStatus",
              "name": "status",
              "type": "uint8"
            }
          ],
          "indexed": false,
          "internalType": "struct VideoNFT.ModerationInfo",
          "name": "",
          "type": "tuple"
        }
      ],
      "name": "ModerationComplete",
      "type": "event"
    },
    {
      "anonymous": false,
      "inputs": [
        {
          "indexed": true,
          "internalType": "address",
          "name": "previousOwner",
          "type": "address"
        },
        {
          "indexed": true,
          "internalType": "address",
          "name": "newOwner",
          "type": "address"
        }
      ],
      "name": "OwnershipTransferred",
      "type": "event"
    },
    {
      "anonymous": false,
      "inputs": [
        {
          "indexed": false,
          "internalType": "uint256",
          "name": "",
          "type": "uint256"
        },
        {
          "indexed": false,
          "internalType": "address",
          "name": "",
          "type": "address"
        },
        {
          "indexed": false,
          "internalType": "address",
          "name": "",
          "type": "address"
        },
        {
          "indexed": false,
          "internalType": "uint256",
          "name": "",
          "type": "uint256"
        }
      ],
      "name": "Rented",
      "type": "event"
    },
    {
      "anonymous": false,
      "inputs": [
        {
          "indexed": true,
          "internalType": "address",
          "name": "from",
          "type": "address"
        },
        {
          "indexed": true,
          "internalType": "address",
          "name": "to",
          "type": "address"
        },
        {
          "indexed": true,
          "internalType": "uint256",
          "name": "tokenId",
          "type": "uint256"
        }
      ],
      "name": "Transfer",
      "type": "event"
    },
    {
      "inputs": [
        {
          "internalType": "address",
          "name": "to",
          "type": "address"
        },
        {
          "internalType": "uint256",
          "name": "tokenId",
          "type": "uint256"
        }
      ],
      "name": "approve",
      "outputs": [],
      "stateMutability": "nonpayable",
      "type": "function"
    },
    {
      "inputs": [
        {
          "internalType": "address",
          "name": "owner",
          "type": "address"
        }
      ],
      "name": "balanceOf",
      "outputs": [
        {
          "internalType": "uint256",
          "name": "",
          "type": "uint256"
        }
      ],
      "stateMutability": "view",
      "type": "function"
    },
    {
      "inputs": [
        {
          "internalType": "uint8",
          "name": "requiredMods",
          "type": "uint8"
        }
      ],
      "name": "changeRequiredNumberOfMods",
      "outputs": [],
      "stateMutability": "nonpayable",
      "type": "function"
    },
    {
      "inputs": [
        {
          "internalType": "uint256",
          "name": "tokenId",
          "type": "uint256"
        }
      ],
      "name": "getApproved",
      "outputs": [
        {
          "internalType": "address",
          "name": "",
          "type": "address"
        }
      ],
      "stateMutability": "view",
      "type": "function"
    },
    {
      "inputs": [
        {
          "internalType": "address",
          "name": "owner",
          "type": "address"
        },
        {
          "internalType": "address",
          "name": "operator",
          "type": "address"
        }
      ],
      "name": "isApprovedForAll",
      "outputs": [
        {
          "internalType": "bool",
          "name": "",
          "type": "bool"
        }
      ],
      "stateMutability": "view",
      "type": "function"
    },
    {
      "inputs": [
        {
          "internalType": "address",
          "name": "erc20ContractAddress",
          "type": "address"
        },
        {
          "components": [
            {
              "internalType": "uint256",
              "name": "tokenId",
              "type": "uint256"
            },
            {
              "internalType": "address",
              "name": "moderator",
              "type": "address"
            },
            {
              "internalType": "enum VideoNFT.ModerationStatus",
              "name": "status",
              "type": "uint8"
            }
          ],
          "internalType": "struct VideoNFT.ModerationItem[]",
          "name": "items",
          "type": "tuple[]"
        },
        {
          "internalType": "uint256",
          "name": "rewardAmount",
          "type": "uint256"
        }
      ],
      "name": "moderateVideo",
      "outputs": [],
      "stateMutability": "nonpayable",
      "type": "function"
    },
    {
      "inputs": [
        {
          "internalType": "uint256",
          "name": "",
          "type": "uint256"
        }
      ],
      "name": "moderatedTokens",
      "outputs": [
        {
          "internalType": "enum VideoNFT.ModerationStatus",
          "name": "status",
          "type": "uint8"
        }
      ],
      "stateMutability": "view",
      "type": "function"
    },
    {
      "inputs": [],
      "name": "name",
      "outputs": [
        {
          "internalType": "string",
          "name": "",
          "type": "string"
        }
      ],
      "stateMutability": "view",
      "type": "function"
    },
    {
      "inputs": [],
      "name": "numberOfModsRequired",
      "outputs": [
        {
          "internalType": "uint8",
          "name": "",
          "type": "uint8"
        }
      ],
      "stateMutability": "view",
      "type": "function"
    },
    {
      "inputs": [],
      "name": "owner",
      "outputs": [
        {
          "internalType": "address",
          "name": "",
          "type": "address"
        }
      ],
      "stateMutability": "view",
      "type": "function"
    },
    {
      "inputs": [
        {
          "internalType": "uint256",
          "name": "tokenId",
          "type": "uint256"
        }
      ],
      "name": "ownerOf",
      "outputs": [
        {
          "internalType": "address",
          "name": "",
          "type": "address"
        }
      ],
      "stateMutability": "view",
      "type": "function"
    },
    {
      "inputs": [],
      "name": "renounceOwnership",
      "outputs": [],
      "stateMutability": "nonpayable",
      "type": "function"
    },
    {
      "inputs": [
        {
          "internalType": "address",
          "name": "erc20ContractAddress",
          "type": "address"
        },
        {
          "internalType": "uint256",
          "name": "tokenId",
          "type": "uint256"
        },
        {
          "internalType": "uint256",
          "name": "amount",
          "type": "uint256"
        }
      ],
      "name": "rentVideo",
      "outputs": [],
      "stateMutability": "nonpayable",
      "type": "function"
    },
    {
      "inputs": [
        {
          "internalType": "address",
          "name": "erc20ContractAddress",
          "type": "address"
        },
        {
          "internalType": "address",
          "name": "to",
          "type": "address"
        },
        {
          "internalType": "string",
          "name": "uri",
          "type": "string"
        },
        {
          "internalType": "uint256",
          "name": "mintReward",
          "type": "uint256"
        }
      ],
      "name": "safeMint",
      "outputs": [],
      "stateMutability": "nonpayable",
      "type": "function"
    },
    {
      "inputs": [
        {
          "internalType": "address",
          "name": "from",
          "type": "address"
        },
        {
          "internalType": "address",
          "name": "to",
          "type": "address"
        },
        {
          "internalType": "uint256",
          "name": "tokenId",
          "type": "uint256"
        }
      ],
      "name": "safeTransferFrom",
      "outputs": [],
      "stateMutability": "nonpayable",
      "type": "function"
    },
    {
      "inputs": [
        {
          "internalType": "address",
          "name": "from",
          "type": "address"
        },
        {
          "internalType": "address",
          "name": "to",
          "type": "address"
        },
        {
          "internalType": "uint256",
          "name": "tokenId",
          "type": "uint256"
        },
        {
          "internalType": "bytes",
          "name": "_data",
          "type": "bytes"
        }
      ],
      "name": "safeTransferFrom",
      "outputs": [],
      "stateMutability": "nonpayable",
      "type": "function"
    },
    {
      "inputs": [
        {
          "internalType": "address",
          "name": "operator",
          "type": "address"
        },
        {
          "internalType": "bool",
          "name": "approved",
          "type": "bool"
        }
      ],
      "name": "setApprovalForAll",
      "outputs": [],
      "stateMutability": "nonpayable",
      "type": "function"
    },
    {
      "inputs": [
        {
          "internalType": "bytes4",
          "name": "interfaceId",
          "type": "bytes4"
        }
      ],
      "name": "supportsInterface",
      "outputs": [
        {
          "internalType": "bool",
          "name": "",
          "type": "bool"
        }
      ],
      "stateMutability": "view",
      "type": "function"
    },
    {
      "inputs": [],
      "name": "symbol",
      "outputs": [
        {
          "internalType": "string",
          "name": "",
          "type": "string"
        }
      ],
      "stateMutability": "view",
      "type": "function"
    },
    {
      "inputs": [
        {
          "internalType": "uint256",
          "name": "index",
          "type": "uint256"
        }
      ],
      "name": "tokenByIndex",
      "outputs": [
        {
          "internalType": "uint256",
          "name": "",
          "type": "uint256"
        }
      ],
      "stateMutability": "view",
      "type": "function"
    },
    {
      "inputs": [
        {
          "internalType": "address",
          "name": "owner",
          "type": "address"
        },
        {
          "internalType": "uint256",
          "name": "index",
          "type": "uint256"
        }
      ],
      "name": "tokenOfOwnerByIndex",
      "outputs": [
        {
          "internalType": "uint256",
          "name": "",
          "type": "uint256"
        }
      ],
      "stateMutability": "view",
      "type": "function"
    },
    {
      "inputs": [
        {
          "internalType": "uint256",
          "name": "tokenId",
          "type": "uint256"
        }
      ],
      "name": "tokenURI",
      "outputs": [
        {
          "internalType": "string",
          "name": "",
          "type": "string"
        }
      ],
      "stateMutability": "view",
      "type": "function"
    },
    {
      "inputs": [],
      "name": "totalSupply",
      "outputs": [
        {
          "internalType": "uint256",
          "name": "",
          "type": "uint256"
        }
      ],
      "stateMutability": "view",
      "type": "function"
    },
    {
      "inputs": [
        {
          "internalType": "address",
          "name": "from",
          "type": "address"
        },
        {
          "internalType": "address",
          "name": "to",
          "type": "address"
        },
        {
          "internalType": "uint256",
          "name": "tokenId",
          "type": "uint256"
        }
      ],
      "name": "transferFrom",
      "outputs": [],
      "stateMutability": "nonpayable",
      "type": "function"
    },
    {
      "inputs": [
        {
          "internalType": "address",
          "name": "newOwner",
          "type": "address"
        }
      ],
      "name": "transferOwnership",
      "outputs": [],
      "stateMutability": "nonpayable",
      "type": "function"
    }
  ],
  "bytecode": "0x60806040526002600d60006101000a81548160ff021916908360ff1602179055503480156200002d57600080fd5b506040518060400160405280600881526020017f566964656f4e46540000000000000000000000000000000000000000000000008152506040518060400160405280600481526020017f5648534e000000000000000000000000000000000000000000000000000000008152508160009080519060200190620000b2929190620001c2565b508060019080519060200190620000cb929190620001c2565b505050620000ee620000e2620000f460201b60201c565b620000fc60201b60201c565b620002d7565b600033905090565b6000600b60009054906101000a900473ffffffffffffffffffffffffffffffffffffffff16905081600b60006101000a81548173ffffffffffffffffffffffffffffffffffffffff021916908373ffffffffffffffffffffffffffffffffffffffff1602179055508173ffffffffffffffffffffffffffffffffffffffff168173ffffffffffffffffffffffffffffffffffffffff167f8be0079c531659141344cd1fd0a4f28419497f9722a3daafe3b4186f6b6457e060405160405180910390a35050565b828054620001d09062000272565b90600052602060002090601f016020900481019282620001f4576000855562000240565b82601f106200020f57805160ff191683800117855562000240565b8280016001018555821562000240579182015b828111156200023f57825182559160200191906001019062000222565b5b5090506200024f919062000253565b5090565b5b808211156200026e57600081600090555060010162000254565b5090565b600060028204905060018216806200028b57607f821691505b60208210811415620002a257620002a1620002a8565b5b50919050565b7f4e487b7100000000000000000000000000000000000000000000000000000000600052602260045260246000fd5b61472a80620002e76000396000f3fe608060405234801561001057600080fd5b50600436106101735760003560e01c806370a08231116100de578063a46f5f4411610097578063b88d4fde11610071578063b88d4fde14610448578063c87b56dd14610464578063e985e9c514610494578063f2fde38b146104c457610173565b8063a46f5f44146103f2578063b012fcea14610410578063b7019d381461042c57610173565b806370a0823114610330578063715018a6146103605780638da5cb5b1461036a57806395d89b41146103885780639d02e37c146103a6578063a22cb465146103d657610173565b80632f745c59116101305780632f745c591461024c5780633a57687b1461027c57806342842e0e146102985780634f6ccce7146102b4578063612940d7146102e45780636352211e1461030057610173565b806301ffc9a71461017857806306fdde03146101a8578063081812fc146101c6578063095ea7b3146101f657806318160ddd1461021257806323b872dd14610230575b600080fd5b610192600480360381019061018d9190613132565b6104e0565b60405161019f91906137b4565b60405180910390f35b6101b06104f2565b6040516101bd91906137ea565b60405180910390f35b6101e060048036038101906101db9190613184565b610584565b6040516101ed91906136ed565b60405180910390f35b610210600480360381019061020b919061307e565b610609565b005b61021a610721565b6040516102279190613a8c565b60405180910390f35b61024a60048036038101906102459190612f11565b61072e565b005b6102666004803603810190610261919061307e565b61078e565b6040516102739190613a8c565b60405180910390f35b61029660048036038101906102919190612e96565b610833565b005b6102b260048036038101906102ad9190612f11565b6109a9565b005b6102ce60048036038101906102c99190613184565b6109c9565b6040516102db9190613a8c565b60405180910390f35b6102fe60048036038101906102f991906131ad565b610a60565b005b61031a60048036038101906103159190613184565b610afa565b60405161032791906136ed565b60405180910390f35b61034a60048036038101906103459190612e31565b610bac565b6040516103579190613a8c565b60405180910390f35b610368610c64565b005b610372610cec565b60405161037f91906136ed565b60405180910390f35b610390610d16565b60405161039d91906137ea565b60405180910390f35b6103c060048036038101906103bb9190613184565b610da8565b6040516103cd91906137cf565b60405180910390f35b6103f060048036038101906103eb9190613042565b610dd3565b005b6103fa610de9565b6040516104079190613b45565b60405180910390f35b61042a600480360381019061042591906130ba565b610dfc565b005b61044660048036038101906104419190612fdb565b610ede565b005b610462600480360381019061045d9190612f60565b6113ca565b005b61047e60048036038101906104799190613184565b61142c565b60405161048b91906137ea565b60405180910390f35b6104ae60048036038101906104a99190612e5a565b61143e565b6040516104bb91906137b4565b60405180910390f35b6104de60048036038101906104d99190612e31565b6114d2565b005b60006104eb826115ca565b9050919050565b60606000805461050190613e6e565b80601f016020809104026020016040519081016040528092919081815260200182805461052d90613e6e565b801561057a5780601f1061054f5761010080835404028352916020019161057a565b820191906000526020600020905b81548152906001019060200180831161055d57829003601f168201915b5050505050905090565b600061058f82611644565b6105ce576040517f08c379a00000000000000000000000000000000000000000000000000000000081526004016105c5906139cc565b60405180910390fd5b6004600083815260200190815260200160002060009054906101000a900473ffffffffffffffffffffffffffffffffffffffff169050919050565b600061061482610afa565b90508073ffffffffffffffffffffffffffffffffffffffff168373ffffffffffffffffffffffffffffffffffffffff161415610685576040517f08c379a000000000000000000000000000000000000000000000000000000000815260040161067c90613a2c565b60405180910390fd5b8073ffffffffffffffffffffffffffffffffffffffff166106a46116b0565b73ffffffffffffffffffffffffffffffffffffffff1614806106d357506106d2816106cd6116b0565b61143e565b5b610712576040517f08c379a00000000000000000000000000000000000000000000000000000000081526004016107099061390c565b60405180910390fd5b61071c83836116b8565b505050565b6000600880549050905090565b61073f6107396116b0565b82611771565b61077e576040517f08c379a000000000000000000000000000000000000000000000000000000000815260040161077590613a4c565b60405180910390fd5b61078983838361184f565b505050565b600061079983610bac565b82106107da576040517f08c379a00000000000000000000000000000000000000000000000000000000081526004016107d19061380c565b60405180910390fd5b600660008473ffffffffffffffffffffffffffffffffffffffff1673ffffffffffffffffffffffffffffffffffffffff168152602001908152602001600020600083815260200190815260200160002054905092915050565b61083b6116b0565b73ffffffffffffffffffffffffffffffffffffffff16610859610cec565b73ffffffffffffffffffffffffffffffffffffffff16146108af576040517f08c379a00000000000000000000000000000000000000000000000000000000081526004016108a6906139ec565b60405180910390fd5b60006108bb600c611ab6565b90506108c7600c611ac4565b6108d18482611ada565b6108db8184611cb4565b8473ffffffffffffffffffffffffffffffffffffffff1663a9059cbb85846040518363ffffffff1660e01b815260040161091692919061378b565b602060405180830381600087803b15801561093057600080fd5b505af1158015610944573d6000803e3d6000fd5b505050506040513d601f19601f820116820180604052508101906109689190613109565b507fb9203d657e9c0ec8274c818292ab0f58b04e1970050716891770eb1bab5d655e818560405161099a929190613aa7565b60405180910390a15050505050565b6109c4838383604051806020016040528060008152506113ca565b505050565b60006109d3610721565b8210610a14576040517f08c379a0000000000000000000000000000000000000000000000000000000008152600401610a0b90613a6c565b60405180910390fd5b60088281548110610a4e577f4e487b7100000000000000000000000000000000000000000000000000000000600052603260045260246000fd5b90600052602060002001549050919050565b610a686116b0565b73ffffffffffffffffffffffffffffffffffffffff16610a86610cec565b73ffffffffffffffffffffffffffffffffffffffff1614610adc576040517f08c379a0000000000000000000000000000000000000000000000000000000008152600401610ad3906139ec565b60405180910390fd5b80600d60006101000a81548160ff021916908360ff16021790555050565b6000806002600084815260200190815260200160002060009054906101000a900473ffffffffffffffffffffffffffffffffffffffff169050600073ffffffffffffffffffffffffffffffffffffffff168173ffffffffffffffffffffffffffffffffffffffff161415610ba3576040517f08c379a0000000000000000000000000000000000000000000000000000000008152600401610b9a9061394c565b60405180910390fd5b80915050919050565b60008073ffffffffffffffffffffffffffffffffffffffff168273ffffffffffffffffffffffffffffffffffffffff161415610c1d576040517f08c379a0000000000000000000000000000000000000000000000000000000008152600401610c149061392c565b60405180910390fd5b600360008373ffffffffffffffffffffffffffffffffffffffff1673ffffffffffffffffffffffffffffffffffffffff168152602001908152602001600020549050919050565b610c6c6116b0565b73ffffffffffffffffffffffffffffffffffffffff16610c8a610cec565b73ffffffffffffffffffffffffffffffffffffffff1614610ce0576040517f08c379a0000000000000000000000000000000000000000000000000000000008152600401610cd7906139ec565b60405180910390fd5b610cea6000611d28565b565b6000600b60009054906101000a900473ffffffffffffffffffffffffffffffffffffffff16905090565b606060018054610d2590613e6e565b80601f0160208091040260200160405190810160405280929190818152602001828054610d5190613e6e565b8015610d9e5780601f10610d7357610100808354040283529160200191610d9e565b820191906000526020600020905b815481529060010190602001808311610d8157829003601f168201915b5050505050905090565b600e6020528060005260406000206000915090508060010160009054906101000a900460ff16905081565b610de5610dde6116b0565b8383611dee565b5050565b600d60009054906101000a900460ff1681565b8273ffffffffffffffffffffffffffffffffffffffff166323b872dd33610e2285610afa565b846040518463ffffffff1660e01b8152600401610e4193929190613708565b602060405180830381600087803b158015610e5b57600080fd5b505af1158015610e6f573d6000803e3d6000fd5b505050506040513d601f19601f82011682018060405250810190610e939190613109565b507f7dae66d475361a8bb7f184659d94e913b124102c2f9536297faeeae42f7728cd8233610ec085610afa565b84604051610ed19493929190613ad0565b60405180910390a1505050565b60005b82518110156113c4576000838281518110610f25577f4e487b7100000000000000000000000000000000000000000000000000000000600052603260045260246000fd5b6020026020010151600001519050600e6000828152602001908152602001600020600001848381518110610f82577f4e487b7100000000000000000000000000000000000000000000000000000000600052603260045260246000fd5b602002602001015190806001815401808255809150506001900390600052602060002090600202016000909190919091506000820151816000015560208201518160010160006101000a81548173ffffffffffffffffffffffffffffffffffffffff021916908373ffffffffffffffffffffffffffffffffffffffff16021790555060408201518160010160146101000a81548160ff02191690836003811115611055577f4e487b7100000000000000000000000000000000000000000000000000000000600052602160045260246000fd5b02179055505050600d60009054906101000a900460ff1660ff16600e60008381526020019081526020016000206000018054905014156113b05760006002905060005b600e6000848152602001908152602001600020600001805490508110156111b9576003808111156110f2577f4e487b7100000000000000000000000000000000000000000000000000000000600052602160045260246000fd5b600e60008581526020019081526020016000206000018281548110611140577f4e487b7100000000000000000000000000000000000000000000000000000000600052603260045260246000fd5b906000526020600020906002020160010160149054906101000a900460ff166003811115611197577f4e487b7100000000000000000000000000000000000000000000000000000000600052602160045260246000fd5b14156111a657600391506111b9565b80806111b190613f39565b915050611098565b5080600e600084815260200190815260200160002060010160006101000a81548160ff02191690836003811115611219577f4e487b7100000000000000000000000000000000000000000000000000000000600052602160045260246000fd5b021790555060005b600e600084815260200190815260200160002060000180549050811015611362578673ffffffffffffffffffffffffffffffffffffffff1663a9059cbb600e600086815260200190815260200160002060000183815481106112ac577f4e487b7100000000000000000000000000000000000000000000000000000000600052603260045260246000fd5b906000526020600020906002020160010160009054906101000a900473ffffffffffffffffffffffffffffffffffffffff16876040518363ffffffff1660e01b81526004016112fc92919061378b565b602060405180830381600087803b15801561131657600080fd5b505af115801561132a573d6000803e3d6000fd5b505050506040513d601f19601f8201168201806040525081019061134e9190613109565b50808061135a90613f39565b915050611221565b507f0a394db5f1438dbeab2a03a607069942286e0793fbed6fc84c3bfbe14db3e28582600e60008581526020019081526020016000206040516113a6929190613b15565b60405180910390a1505b5080806113bc90613f39565b915050610ee1565b50505050565b6113db6113d56116b0565b83611771565b61141a576040517f08c379a000000000000000000000000000000000000000000000000000000000815260040161141190613a4c565b60405180910390fd5b61142684848484611f5b565b50505050565b606061143782611fb7565b9050919050565b6000600560008473ffffffffffffffffffffffffffffffffffffffff1673ffffffffffffffffffffffffffffffffffffffff16815260200190815260200160002060008373ffffffffffffffffffffffffffffffffffffffff1673ffffffffffffffffffffffffffffffffffffffff16815260200190815260200160002060009054906101000a900460ff16905092915050565b6114da6116b0565b73ffffffffffffffffffffffffffffffffffffffff166114f8610cec565b73ffffffffffffffffffffffffffffffffffffffff161461154e576040517f08c379a0000000000000000000000000000000000000000000000000000000008152600401611545906139ec565b60405180910390fd5b600073ffffffffffffffffffffffffffffffffffffffff168173ffffffffffffffffffffffffffffffffffffffff1614156115be576040517f08c379a00000000000000000000000000000000000000000000000000000000081526004016115b59061384c565b60405180910390fd5b6115c781611d28565b50565b60007f780e9d63000000000000000000000000000000000000000000000000000000007bffffffffffffffffffffffffffffffffffffffffffffffffffffffff1916827bffffffffffffffffffffffffffffffffffffffffffffffffffffffff1916148061163d575061163c82612109565b5b9050919050565b60008073ffffffffffffffffffffffffffffffffffffffff166002600084815260200190815260200160002060009054906101000a900473ffffffffffffffffffffffffffffffffffffffff1673ffffffffffffffffffffffffffffffffffffffff1614159050919050565b600033905090565b816004600083815260200190815260200160002060006101000a81548173ffffffffffffffffffffffffffffffffffffffff021916908373ffffffffffffffffffffffffffffffffffffffff160217905550808273ffffffffffffffffffffffffffffffffffffffff1661172b83610afa565b73ffffffffffffffffffffffffffffffffffffffff167f8c5be1e5ebec7d5bd14f71427d1e84f3dd0314c0f7b2291e5b200ac8c7c3b92560405160405180910390a45050565b600061177c82611644565b6117bb576040517f08c379a00000000000000000000000000000000000000000000000000000000081526004016117b2906138ec565b60405180910390fd5b60006117c683610afa565b90508073ffffffffffffffffffffffffffffffffffffffff168473ffffffffffffffffffffffffffffffffffffffff16148061183557508373ffffffffffffffffffffffffffffffffffffffff1661181d84610584565b73ffffffffffffffffffffffffffffffffffffffff16145b806118465750611845818561143e565b5b91505092915050565b8273ffffffffffffffffffffffffffffffffffffffff1661186f82610afa565b73ffffffffffffffffffffffffffffffffffffffff16146118c5576040517f08c379a00000000000000000000000000000000000000000000000000000000081526004016118bc9061386c565b60405180910390fd5b600073ffffffffffffffffffffffffffffffffffffffff168273ffffffffffffffffffffffffffffffffffffffff161415611935576040517f08c379a000000000000000000000000000000000000000000000000000000000815260040161192c906138ac565b60405180910390fd5b6119408383836121eb565b61194b6000826116b8565b6001600360008573ffffffffffffffffffffffffffffffffffffffff1673ffffffffffffffffffffffffffffffffffffffff168152602001908152602001600020600082825461199b9190613d1b565b925050819055506001600360008473ffffffffffffffffffffffffffffffffffffffff1673ffffffffffffffffffffffffffffffffffffffff16815260200190815260200160002060008282546119f29190613c94565b92505081905550816002600083815260200190815260200160002060006101000a81548173ffffffffffffffffffffffffffffffffffffffff021916908373ffffffffffffffffffffffffffffffffffffffff160217905550808273ffffffffffffffffffffffffffffffffffffffff168473ffffffffffffffffffffffffffffffffffffffff167fddf252ad1be2c89b69c2b068fc378daa952ba7f163c4a11628f55a4df523b3ef60405160405180910390a4611ab18383836121fb565b505050565b600081600001549050919050565b6001816000016000828254019250508190555050565b600073ffffffffffffffffffffffffffffffffffffffff168273ffffffffffffffffffffffffffffffffffffffff161415611b4a576040517f08c379a0000000000000000000000000000000000000000000000000000000008152600401611b419061398c565b60405180910390fd5b611b5381611644565b15611b93576040517f08c379a0000000000000000000000000000000000000000000000000000000008152600401611b8a9061388c565b60405180910390fd5b611b9f600083836121eb565b6001600360008473ffffffffffffffffffffffffffffffffffffffff1673ffffffffffffffffffffffffffffffffffffffff1681526020019081526020016000206000828254611bef9190613c94565b92505081905550816002600083815260200190815260200160002060006101000a81548173ffffffffffffffffffffffffffffffffffffffff021916908373ffffffffffffffffffffffffffffffffffffffff160217905550808273ffffffffffffffffffffffffffffffffffffffff16600073ffffffffffffffffffffffffffffffffffffffff167fddf252ad1be2c89b69c2b068fc378daa952ba7f163c4a11628f55a4df523b3ef60405160405180910390a4611cb0600083836121fb565b5050565b611cbd82611644565b611cfc576040517f08c379a0000000000000000000000000000000000000000000000000000000008152600401611cf39061396c565b60405180910390fd5b80600a60008481526020019081526020016000209080519060200190611d23929190612b20565b505050565b6000600b60009054906101000a900473ffffffffffffffffffffffffffffffffffffffff16905081600b60006101000a81548173ffffffffffffffffffffffffffffffffffffffff021916908373ffffffffffffffffffffffffffffffffffffffff1602179055508173ffffffffffffffffffffffffffffffffffffffff168173ffffffffffffffffffffffffffffffffffffffff167f8be0079c531659141344cd1fd0a4f28419497f9722a3daafe3b4186f6b6457e060405160405180910390a35050565b8173ffffffffffffffffffffffffffffffffffffffff168373ffffffffffffffffffffffffffffffffffffffff161415611e5d576040517f08c379a0000000000000000000000000000000000000000000000000000000008152600401611e54906138cc565b60405180910390fd5b80600560008573ffffffffffffffffffffffffffffffffffffffff1673ffffffffffffffffffffffffffffffffffffffff16815260200190815260200160002060008473ffffffffffffffffffffffffffffffffffffffff1673ffffffffffffffffffffffffffffffffffffffff16815260200190815260200160002060006101000a81548160ff0219169083151502179055508173ffffffffffffffffffffffffffffffffffffffff168373ffffffffffffffffffffffffffffffffffffffff167f17307eab39ab6107e8899845ad3d59bd9653f200f220920489ca2b5937696c3183604051611f4e91906137b4565b60405180910390a3505050565b611f6684848461184f565b611f7284848484612200565b611fb1576040517f08c379a0000000000000000000000000000000000000000000000000000000008152600401611fa89061382c565b60405180910390fd5b50505050565b6060611fc282611644565b612001576040517f08c379a0000000000000000000000000000000000000000000000000000000008152600401611ff8906139ac565b60405180910390fd5b6000600a6000848152602001908152602001600020805461202190613e6e565b80601f016020809104026020016040519081016040528092919081815260200182805461204d90613e6e565b801561209a5780601f1061206f5761010080835404028352916020019161209a565b820191906000526020600020905b81548152906001019060200180831161207d57829003601f168201915b5050505050905060006120ab612397565b90506000815114156120c1578192505050612104565b6000825111156120f65780826040516020016120de9291906136c9565b60405160208183030381529060405292505050612104565b6120ff846123ae565b925050505b919050565b60007f80ac58cd000000000000000000000000000000000000000000000000000000007bffffffffffffffffffffffffffffffffffffffffffffffffffffffff1916827bffffffffffffffffffffffffffffffffffffffffffffffffffffffff191614806121d457507f5b5e139f000000000000000000000000000000000000000000000000000000007bffffffffffffffffffffffffffffffffffffffffffffffffffffffff1916827bffffffffffffffffffffffffffffffffffffffffffffffffffffffff1916145b806121e457506121e382612455565b5b9050919050565b6121f68383836124bf565b505050565b505050565b60006122218473ffffffffffffffffffffffffffffffffffffffff166125d3565b1561238a578373ffffffffffffffffffffffffffffffffffffffff1663150b7a0261224a6116b0565b8786866040518563ffffffff1660e01b815260040161226c949392919061373f565b602060405180830381600087803b15801561228657600080fd5b505af19250505080156122b757506040513d601f19601f820116820180604052508101906122b4919061315b565b60015b61233a573d80600081146122e7576040519150601f19603f3d011682016040523d82523d6000602084013e6122ec565b606091505b50600081511415612332576040517f08c379a00000000000000000000000000000000000000000000000000000000081526004016123299061382c565b60405180910390fd5b805181602001fd5b63150b7a0260e01b7bffffffffffffffffffffffffffffffffffffffffffffffffffffffff1916817bffffffffffffffffffffffffffffffffffffffffffffffffffffffff19161491505061238f565b600190505b949350505050565b606060405180602001604052806000815250905090565b60606123b982611644565b6123f8576040517f08c379a00000000000000000000000000000000000000000000000000000000081526004016123ef90613a0c565b60405180910390fd5b6000612402612397565b90506000815111612422576040518060200160405280600081525061244d565b8061242c846125f6565b60405160200161243d9291906136c9565b6040516020818303038152906040525b915050919050565b60007f01ffc9a7000000000000000000000000000000000000000000000000000000007bffffffffffffffffffffffffffffffffffffffffffffffffffffffff1916827bffffffffffffffffffffffffffffffffffffffffffffffffffffffff1916149050919050565b6124ca8383836127a3565b600073ffffffffffffffffffffffffffffffffffffffff168373ffffffffffffffffffffffffffffffffffffffff16141561250d57612508816127a8565b61254c565b8173ffffffffffffffffffffffffffffffffffffffff168373ffffffffffffffffffffffffffffffffffffffff161461254b5761254a83826127f1565b5b5b600073ffffffffffffffffffffffffffffffffffffffff168273ffffffffffffffffffffffffffffffffffffffff16141561258f5761258a8161295e565b6125ce565b8273ffffffffffffffffffffffffffffffffffffffff168273ffffffffffffffffffffffffffffffffffffffff16146125cd576125cc8282612aa1565b5b5b505050565b6000808273ffffffffffffffffffffffffffffffffffffffff163b119050919050565b6060600082141561263e576040518060400160405280600181526020017f3000000000000000000000000000000000000000000000000000000000000000815250905061279e565b600082905060005b6000821461267057808061265990613f39565b915050600a826126699190613cea565b9150612646565b60008167ffffffffffffffff8111156126b2577f4e487b7100000000000000000000000000000000000000000000000000000000600052604160045260246000fd5b6040519080825280601f01601f1916602001820160405280156126e45781602001600182028036833780820191505090505b5090505b60008514612797576001826126fd9190613d1b565b9150600a8561270c9190613f82565b60306127189190613c94565b60f81b818381518110612754577f4e487b7100000000000000000000000000000000000000000000000000000000600052603260045260246000fd5b60200101907effffffffffffffffffffffffffffffffffffffffffffffffffffffffffffff1916908160001a905350600a856127909190613cea565b94506126e8565b8093505050505b919050565b505050565b6008805490506009600083815260200190815260200160002081905550600881908060018154018082558091505060019003906000526020600020016000909190919091505550565b600060016127fe84610bac565b6128089190613d1b565b90506000600760008481526020019081526020016000205490508181146128ed576000600660008673ffffffffffffffffffffffffffffffffffffffff1673ffffffffffffffffffffffffffffffffffffffff168152602001908152602001600020600084815260200190815260200160002054905080600660008773ffffffffffffffffffffffffffffffffffffffff1673ffffffffffffffffffffffffffffffffffffffff168152602001908152602001600020600084815260200190815260200160002081905550816007600083815260200190815260200160002081905550505b6007600084815260200190815260200160002060009055600660008573ffffffffffffffffffffffffffffffffffffffff1673ffffffffffffffffffffffffffffffffffffffff16815260200190815260200160002060008381526020019081526020016000206000905550505050565b600060016008805490506129729190613d1b565b90506000600960008481526020019081526020016000205490506000600883815481106129c8577f4e487b7100000000000000000000000000000000000000000000000000000000600052603260045260246000fd5b906000526020600020015490508060088381548110612a10577f4e487b7100000000000000000000000000000000000000000000000000000000600052603260045260246000fd5b906000526020600020018190555081600960008381526020019081526020016000208190555060096000858152602001908152602001600020600090556008805480612a85577f4e487b7100000000000000000000000000000000000000000000000000000000600052603160045260246000fd5b6001900381819060005260206000200160009055905550505050565b6000612aac83610bac565b905081600660008573ffffffffffffffffffffffffffffffffffffffff1673ffffffffffffffffffffffffffffffffffffffff168152602001908152602001600020600083815260200190815260200160002081905550806007600084815260200190815260200160002081905550505050565b828054612b2c90613e6e565b90600052602060002090601f016020900481019282612b4e5760008555612b95565b82601f10612b6757805160ff1916838001178555612b95565b82800160010185558215612b95579182015b82811115612b94578251825591602001919060010190612b79565b5b509050612ba29190612ba6565b5090565b5b80821115612bbf576000816000905550600101612ba7565b5090565b6000612bd6612bd184613b85565b613b60565b90508083825260208201905082856060860282011115612bf557600080fd5b60005b85811015612c255781612c0b8882612da7565b845260208401935060608301925050600181019050612bf8565b5050509392505050565b6000612c42612c3d84613bb1565b613b60565b905082815260208101848484011115612c5a57600080fd5b612c65848285613e2c565b509392505050565b6000612c80612c7b84613be2565b613b60565b905082815260208101848484011115612c9857600080fd5b612ca3848285613e2c565b509392505050565b600081359050612cba81614671565b92915050565b600082601f830112612cd157600080fd5b8135612ce1848260208601612bc3565b91505092915050565b600081359050612cf981614688565b92915050565b600081519050612d0e81614688565b92915050565b600081359050612d238161469f565b92915050565b600081519050612d388161469f565b92915050565b600082601f830112612d4f57600080fd5b8135612d5f848260208601612c2f565b91505092915050565b600081359050612d77816146b6565b92915050565b600082601f830112612d8e57600080fd5b8135612d9e848260208601612c6d565b91505092915050565b600060608284031215612db957600080fd5b612dc36060613b60565b90506000612dd384828501612e07565b6000830152506020612de784828501612cab565b6020830152506040612dfb84828501612d68565b60408301525092915050565b600081359050612e16816146c6565b92915050565b600081359050612e2b816146dd565b92915050565b600060208284031215612e4357600080fd5b6000612e5184828501612cab565b91505092915050565b60008060408385031215612e6d57600080fd5b6000612e7b85828601612cab565b9250506020612e8c85828601612cab565b9150509250929050565b60008060008060808587031215612eac57600080fd5b6000612eba87828801612cab565b9450506020612ecb87828801612cab565b935050604085013567ffffffffffffffff811115612ee857600080fd5b612ef487828801612d7d565b9250506060612f0587828801612e07565b91505092959194509250565b600080600060608486031215612f2657600080fd5b6000612f3486828701612cab565b9350506020612f4586828701612cab565b9250506040612f5686828701612e07565b9150509250925092565b60008060008060808587031215612f7657600080fd5b6000612f8487828801612cab565b9450506020612f9587828801612cab565b9350506040612fa687828801612e07565b925050606085013567ffffffffffffffff811115612fc357600080fd5b612fcf87828801612d3e565b91505092959194509250565b600080600060608486031215612ff057600080fd5b6000612ffe86828701612cab565b935050602084013567ffffffffffffffff81111561301b57600080fd5b61302786828701612cc0565b925050604061303886828701612e07565b9150509250925092565b6000806040838503121561305557600080fd5b600061306385828601612cab565b925050602061307485828601612cea565b9150509250929050565b6000806040838503121561309157600080fd5b600061309f85828601612cab565b92505060206130b085828601612e07565b9150509250929050565b6000806000606084860312156130cf57600080fd5b60006130dd86828701612cab565b93505060206130ee86828701612e07565b92505060406130ff86828701612e07565b9150509250925092565b60006020828403121561311b57600080fd5b600061312984828501612cff565b91505092915050565b60006020828403121561314457600080fd5b600061315284828501612d14565b91505092915050565b60006020828403121561316d57600080fd5b600061317b84828501612d29565b91505092915050565b60006020828403121561319657600080fd5b60006131a484828501612e07565b91505092915050565b6000602082840312156131bf57600080fd5b60006131cd84828501612e1c565b91505092915050565b60006131e2838361363e565b60608301905092915050565b6131f781613d86565b82525050565b61320681613d86565b82525050565b600061321782613c28565b6132218185613c56565b935061322c83613c13565b8060005b8381101561325c578161324388826131d6565b975061324e83613c49565b925050600181019050613230565b5085935050505092915050565b61327281613d98565b82525050565b600061328382613c33565b61328d8185613c67565b935061329d818560208601613e3b565b6132a68161409e565b840191505092915050565b6132ba81613e1a565b82525050565b6132c981613e1a565b82525050565b60006132da82613c3e565b6132e48185613c78565b93506132f4818560208601613e3b565b6132fd8161409e565b840191505092915050565b600061331382613c3e565b61331d8185613c89565b935061332d818560208601613e3b565b80840191505092915050565b6000613346602b83613c78565b9150613351826140c9565b604082019050919050565b6000613369603283613c78565b915061337482614118565b604082019050919050565b600061338c602683613c78565b915061339782614167565b604082019050919050565b60006133af602583613c78565b91506133ba826141b6565b604082019050919050565b60006133d2601c83613c78565b91506133dd82614205565b602082019050919050565b60006133f5602483613c78565b91506134008261422e565b604082019050919050565b6000613418601983613c78565b91506134238261427d565b602082019050919050565b600061343b602c83613c78565b9150613446826142a6565b604082019050919050565b600061345e603883613c78565b9150613469826142f5565b604082019050919050565b6000613481602a83613c78565b915061348c82614344565b604082019050919050565b60006134a4602983613c78565b91506134af82614393565b604082019050919050565b60006134c7602e83613c78565b91506134d2826143e2565b604082019050919050565b60006134ea602083613c78565b91506134f582614431565b602082019050919050565b600061350d603183613c78565b91506135188261445a565b604082019050919050565b6000613530602c83613c78565b915061353b826144a9565b604082019050919050565b6000613553602083613c78565b915061355e826144f8565b602082019050919050565b6000613576602f83613c78565b915061358182614521565b604082019050919050565b6000613599602183613c78565b91506135a482614570565b604082019050919050565b60006135bc603183613c78565b91506135c7826145bf565b604082019050919050565b60006135df602c83613c78565b91506135ea8261460e565b604082019050919050565b60006040830160008084018583036000870152613612838261320c565b9250506001840154905061362581613eba565b61363260208701826132b1565b50819250505092915050565b60608201600080830154905061365381613ed4565b613660600086018261369c565b506001830154905061367181613ea0565b61367e60208601826131ee565b5061368881613eee565b61369560408601826132b1565b5050505050565b6136a581613e03565b82525050565b6136b481613e03565b82525050565b6136c381613e0d565b82525050565b60006136d58285613308565b91506136e18284613308565b91508190509392505050565b600060208201905061370260008301846131fd565b92915050565b600060608201905061371d60008301866131fd565b61372a60208301856131fd565b61373760408301846136ab565b949350505050565b600060808201905061375460008301876131fd565b61376160208301866131fd565b61376e60408301856136ab565b81810360608301526137808184613278565b905095945050505050565b60006040820190506137a060008301856131fd565b6137ad60208301846136ab565b9392505050565b60006020820190506137c96000830184613269565b92915050565b60006020820190506137e460008301846132c0565b92915050565b6000602082019050818103600083015261380481846132cf565b905092915050565b6000602082019050818103600083015261382581613339565b9050919050565b600060208201905081810360008301526138458161335c565b9050919050565b600060208201905081810360008301526138658161337f565b9050919050565b60006020820190508181036000830152613885816133a2565b9050919050565b600060208201905081810360008301526138a5816133c5565b9050919050565b600060208201905081810360008301526138c5816133e8565b9050919050565b600060208201905081810360008301526138e58161340b565b9050919050565b600060208201905081810360008301526139058161342e565b9050919050565b6000602082019050818103600083015261392581613451565b9050919050565b6000602082019050818103600083015261394581613474565b9050919050565b6000602082019050818103600083015261396581613497565b9050919050565b60006020820190508181036000830152613985816134ba565b9050919050565b600060208201905081810360008301526139a5816134dd565b9050919050565b600060208201905081810360008301526139c581613500565b9050919050565b600060208201905081810360008301526139e581613523565b9050919050565b60006020820190508181036000830152613a0581613546565b9050919050565b60006020820190508181036000830152613a2581613569565b9050919050565b60006020820190508181036000830152613a458161358c565b9050919050565b60006020820190508181036000830152613a65816135af565b9050919050565b60006020820190508181036000830152613a85816135d2565b9050919050565b6000602082019050613aa160008301846136ab565b92915050565b6000604082019050613abc60008301856136ab565b613ac960208301846131fd565b9392505050565b6000608082019050613ae560008301876136ab565b613af260208301866131fd565b613aff60408301856131fd565b613b0c60608301846136ab565b95945050505050565b6000604082019050613b2a60008301856136ab565b8181036020830152613b3c81846135f5565b90509392505050565b6000602082019050613b5a60008301846136ba565b92915050565b6000613b6a613b7b565b9050613b768282613f08565b919050565b6000604051905090565b600067ffffffffffffffff821115613ba057613b9f61406f565b5b602082029050602081019050919050565b600067ffffffffffffffff821115613bcc57613bcb61406f565b5b613bd58261409e565b9050602081019050919050565b600067ffffffffffffffff821115613bfd57613bfc61406f565b5b613c068261409e565b9050602081019050919050565b60008190508160005260206000209050919050565b600081549050919050565b600081519050919050565b600081519050919050565b6000600282019050919050565b600082825260208201905092915050565b600082825260208201905092915050565b600082825260208201905092915050565b600081905092915050565b6000613c9f82613e03565b9150613caa83613e03565b9250827fffffffffffffffffffffffffffffffffffffffffffffffffffffffffffffffff03821115613cdf57613cde613fb3565b5b828201905092915050565b6000613cf582613e03565b9150613d0083613e03565b925082613d1057613d0f613fe2565b5b828204905092915050565b6000613d2682613e03565b9150613d3183613e03565b925082821015613d4457613d43613fb3565b5b828203905092915050565b600073ffffffffffffffffffffffffffffffffffffffff82169050919050565b600060ff82169050919050565b6000819050919050565b6000613d9182613de3565b9050919050565b60008115159050919050565b60007fffffffff0000000000000000000000000000000000000000000000000000000082169050919050565b6000819050613dde8261465d565b919050565b600073ffffffffffffffffffffffffffffffffffffffff82169050919050565b6000819050919050565b600060ff82169050919050565b6000613e2582613dd0565b9050919050565b82818337600083830152505050565b60005b83811015613e59578082015181840152602081019050613e3e565b83811115613e68576000848401525b50505050565b60006002820490506001821680613e8657607f821691505b60208210811415613e9a57613e99614040565b5b50919050565b6000613eb3613eae836140af565b613d4f565b9050919050565b6000613ecd613ec8836140af565b613d6f565b9050919050565b6000613ee7613ee2836140af565b613d7c565b9050919050565b6000613f01613efc836140bc565b613d6f565b9050919050565b613f118261409e565b810181811067ffffffffffffffff82111715613f3057613f2f61406f565b5b80604052505050565b6000613f4482613e03565b91507fffffffffffffffffffffffffffffffffffffffffffffffffffffffffffffffff821415613f7757613f76613fb3565b5b600182019050919050565b6000613f8d82613e03565b9150613f9883613e03565b925082613fa857613fa7613fe2565b5b828206905092915050565b7f4e487b7100000000000000000000000000000000000000000000000000000000600052601160045260246000fd5b7f4e487b7100000000000000000000000000000000000000000000000000000000600052601260045260246000fd5b7f4e487b7100000000000000000000000000000000000000000000000000000000600052602160045260246000fd5b7f4e487b7100000000000000000000000000000000000000000000000000000000600052602260045260246000fd5b7f4e487b7100000000000000000000000000000000000000000000000000000000600052604160045260246000fd5b6000601f19601f8301169050919050565b60008160001c9050919050565b60008160a01c9050919050565b7f455243373231456e756d657261626c653a206f776e657220696e646578206f7560008201527f74206f6620626f756e6473000000000000000000000000000000000000000000602082015250565b7f4552433732313a207472616e7366657220746f206e6f6e20455243373231526560008201527f63656976657220696d706c656d656e7465720000000000000000000000000000602082015250565b7f4f776e61626c653a206e6577206f776e657220697320746865207a65726f206160008201527f6464726573730000000000000000000000000000000000000000000000000000602082015250565b7f4552433732313a207472616e736665722066726f6d20696e636f72726563742060008201527f6f776e6572000000000000000000000000000000000000000000000000000000602082015250565b7f4552433732313a20746f6b656e20616c7265616479206d696e74656400000000600082015250565b7f4552433732313a207472616e7366657220746f20746865207a65726f2061646460008201527f7265737300000000000000000000000000000000000000000000000000000000602082015250565b7f4552433732313a20617070726f766520746f2063616c6c657200000000000000600082015250565b7f4552433732313a206f70657261746f7220717565727920666f72206e6f6e657860008201527f697374656e7420746f6b656e0000000000000000000000000000000000000000602082015250565b7f4552433732313a20617070726f76652063616c6c6572206973206e6f74206f7760008201527f6e6572206e6f7220617070726f76656420666f7220616c6c0000000000000000602082015250565b7f4552433732313a2062616c616e636520717565727920666f7220746865207a6560008201527f726f206164647265737300000000000000000000000000000000000000000000602082015250565b7f4552433732313a206f776e657220717565727920666f72206e6f6e657869737460008201527f656e7420746f6b656e0000000000000000000000000000000000000000000000602082015250565b7f45524337323155524953746f726167653a2055524920736574206f66206e6f6e60008201527f6578697374656e7420746f6b656e000000000000000000000000000000000000602082015250565b7f4552433732313a206d696e7420746f20746865207a65726f2061646472657373600082015250565b7f45524337323155524953746f726167653a2055524920717565727920666f722060008201527f6e6f6e6578697374656e7420746f6b656e000000000000000000000000000000602082015250565b7f4552433732313a20617070726f76656420717565727920666f72206e6f6e657860008201527f697374656e7420746f6b656e0000000000000000000000000000000000000000602082015250565b7f4f776e61626c653a2063616c6c6572206973206e6f7420746865206f776e6572600082015250565b7f4552433732314d657461646174613a2055524920717565727920666f72206e6f60008201527f6e6578697374656e7420746f6b656e0000000000000000000000000000000000602082015250565b7f4552433732313a20617070726f76616c20746f2063757272656e74206f776e6560008201527f7200000000000000000000000000000000000000000000000000000000000000602082015250565b7f4552433732313a207472616e736665722063616c6c6572206973206e6f74206f60008201527f776e6572206e6f7220617070726f766564000000000000000000000000000000602082015250565b7f455243373231456e756d657261626c653a20676c6f62616c20696e646578206f60008201527f7574206f6620626f756e64730000000000000000000000000000000000000000602082015250565b6004811061466e5761466d614011565b5b50565b61467a81613d86565b811461468557600080fd5b50565b61469181613d98565b811461469c57600080fd5b50565b6146a881613da4565b81146146b357600080fd5b50565b600481106146c357600080fd5b50565b6146cf81613e03565b81146146da57600080fd5b50565b6146e681613e0d565b81146146f157600080fd5b5056fea2646970667358221220781110e3f34863556dc5d788c4df2d731ef8d97fdb6cab3a1b10c1b8b537531864736f6c63430008040033",
  "linkReferences": {},
  "deployedLinkReferences": {}
}