{
  "_format": "hh-sol-artifact-1",
  "contractName": "VideoNFT",
  "sourceName": "contracts/VideoNFT.sol",
  "abi": [
    {
      "inputs": [
        {
          "internalType": "address",
          "name": "vhsTokenAddress",
          "type": "address"
        }
      ],
      "stateMutability": "nonpayable",
      "type": "constructor"
    },
    {
      "anonymous": false,
      "inputs": [
        {
          "indexed": true,
          "internalType": "address",
          "name": "owner",
          "type": "address"
        },
        {
          "indexed": true,
          "internalType": "address",
          "name": "approved",
          "type": "address"
        },
        {
          "indexed": true,
          "internalType": "uint256",
          "name": "tokenId",
          "type": "uint256"
        }
      ],
      "name": "Approval",
      "type": "event"
    },
    {
      "anonymous": false,
      "inputs": [
        {
          "indexed": true,
          "internalType": "address",
          "name": "owner",
          "type": "address"
        },
        {
          "indexed": true,
          "internalType": "address",
          "name": "operator",
          "type": "address"
        },
        {
          "indexed": false,
          "internalType": "bool",
          "name": "approved",
          "type": "bool"
        }
      ],
      "name": "ApprovalForAll",
      "type": "event"
    },
    {
      "anonymous": false,
      "inputs": [
        {
          "indexed": false,
          "internalType": "uint256",
          "name": "",
          "type": "uint256"
        },
        {
          "indexed": false,
          "internalType": "address",
          "name": "",
          "type": "address"
        }
      ],
      "name": "Minted",
      "type": "event"
    },
    {
      "anonymous": false,
      "inputs": [
        {
          "indexed": false,
          "internalType": "uint256",
          "name": "",
          "type": "uint256"
        },
        {
          "components": [
            {
              "components": [
                {
                  "internalType": "uint256",
                  "name": "tokenId",
                  "type": "uint256"
                },
                {
                  "internalType": "address",
                  "name": "moderator",
                  "type": "address"
                },
                {
                  "internalType": "enum VideoNFT.ModerationStatus",
                  "name": "status",
                  "type": "uint8"
                }
              ],
              "internalType": "struct VideoNFT.ModerationItem[]",
              "name": "moderations",
              "type": "tuple[]"
            },
            {
              "internalType": "enum VideoNFT.ModerationStatus",
              "name": "status",
              "type": "uint8"
            }
          ],
          "indexed": false,
          "internalType": "struct VideoNFT.ModerationInfo",
          "name": "",
          "type": "tuple"
        }
      ],
      "name": "ModerationComplete",
      "type": "event"
    },
    {
      "anonymous": false,
      "inputs": [
        {
          "indexed": true,
          "internalType": "address",
          "name": "previousOwner",
          "type": "address"
        },
        {
          "indexed": true,
          "internalType": "address",
          "name": "newOwner",
          "type": "address"
        }
      ],
      "name": "OwnershipTransferred",
      "type": "event"
    },
    {
      "anonymous": false,
      "inputs": [
        {
          "indexed": false,
          "internalType": "uint256",
          "name": "",
          "type": "uint256"
        },
        {
          "indexed": false,
          "internalType": "address",
          "name": "",
          "type": "address"
        },
        {
          "indexed": false,
          "internalType": "address",
          "name": "",
          "type": "address"
        },
        {
          "indexed": false,
          "internalType": "uint256",
          "name": "",
          "type": "uint256"
        },
        {
          "indexed": false,
          "internalType": "uint8",
          "name": "",
          "type": "uint8"
        }
      ],
      "name": "Rented",
      "type": "event"
    },
    {
      "anonymous": false,
      "inputs": [
        {
          "indexed": true,
          "internalType": "address",
          "name": "from",
          "type": "address"
        },
        {
          "indexed": true,
          "internalType": "address",
          "name": "to",
          "type": "address"
        },
        {
          "indexed": true,
          "internalType": "uint256",
          "name": "tokenId",
          "type": "uint256"
        }
      ],
      "name": "Transfer",
      "type": "event"
    },
    {
      "inputs": [
        {
          "internalType": "address",
          "name": "to",
          "type": "address"
        },
        {
          "internalType": "uint256",
          "name": "tokenId",
          "type": "uint256"
        }
      ],
      "name": "approve",
      "outputs": [],
      "stateMutability": "nonpayable",
      "type": "function"
    },
    {
      "inputs": [
        {
          "internalType": "address",
          "name": "owner",
          "type": "address"
        }
      ],
      "name": "balanceOf",
      "outputs": [
        {
          "internalType": "uint256",
          "name": "",
          "type": "uint256"
        }
      ],
      "stateMutability": "view",
      "type": "function"
    },
    {
      "inputs": [
        {
          "internalType": "uint256",
          "name": "tokenId",
          "type": "uint256"
        },
        {
          "internalType": "uint256",
          "name": "amount",
          "type": "uint256"
        }
      ],
      "name": "changeRentalPricePerDay",
      "outputs": [],
      "stateMutability": "nonpayable",
      "type": "function"
    },
    {
      "inputs": [],
      "name": "defaultRentalPricePerDay",
      "outputs": [
        {
          "internalType": "uint256",
          "name": "",
          "type": "uint256"
        }
      ],
      "stateMutability": "view",
      "type": "function"
    },
    {
      "inputs": [],
      "name": "erc20ContractAddress",
      "outputs": [
        {
          "internalType": "address",
          "name": "",
          "type": "address"
        }
      ],
      "stateMutability": "view",
      "type": "function"
    },
    {
      "inputs": [
        {
          "internalType": "uint256",
          "name": "tokenId",
          "type": "uint256"
        }
      ],
      "name": "getApproved",
      "outputs": [
        {
          "internalType": "address",
          "name": "",
          "type": "address"
        }
      ],
      "stateMutability": "view",
      "type": "function"
    },
    {
      "inputs": [
        {
          "internalType": "uint256",
          "name": "tokenId",
          "type": "uint256"
        }
      ],
      "name": "hasRental",
      "outputs": [
        {
          "internalType": "bool",
          "name": "",
          "type": "bool"
        }
      ],
      "stateMutability": "view",
      "type": "function"
    },
    {
      "inputs": [
        {
          "internalType": "address",
          "name": "owner",
          "type": "address"
        },
        {
          "internalType": "address",
          "name": "operator",
          "type": "address"
        }
      ],
      "name": "isApprovedForAll",
      "outputs": [
        {
          "internalType": "bool",
          "name": "",
          "type": "bool"
        }
      ],
      "stateMutability": "view",
      "type": "function"
    },
    {
      "inputs": [],
      "name": "mintReward",
      "outputs": [
        {
          "internalType": "uint256",
          "name": "",
          "type": "uint256"
        }
      ],
      "stateMutability": "view",
      "type": "function"
    },
    {
      "inputs": [
        {
          "components": [
            {
              "internalType": "uint256",
              "name": "tokenId",
              "type": "uint256"
            },
            {
              "internalType": "address",
              "name": "moderator",
              "type": "address"
            },
            {
              "internalType": "enum VideoNFT.ModerationStatus",
              "name": "status",
              "type": "uint8"
            }
          ],
          "internalType": "struct VideoNFT.ModerationItem[]",
          "name": "items",
          "type": "tuple[]"
        }
      ],
      "name": "moderateVideo",
      "outputs": [],
      "stateMutability": "nonpayable",
      "type": "function"
    },
    {
      "inputs": [
        {
          "internalType": "uint256",
          "name": "",
          "type": "uint256"
        }
      ],
      "name": "moderatedTokens",
      "outputs": [
        {
          "internalType": "enum VideoNFT.ModerationStatus",
          "name": "status",
          "type": "uint8"
        }
      ],
      "stateMutability": "view",
      "type": "function"
    },
    {
      "inputs": [],
      "name": "moderationReward",
      "outputs": [
        {
          "internalType": "uint256",
          "name": "",
          "type": "uint256"
        }
      ],
      "stateMutability": "view",
      "type": "function"
    },
    {
      "inputs": [
        {
          "internalType": "address",
          "name": "",
          "type": "address"
        }
      ],
      "name": "modsTotalByAddress",
      "outputs": [
        {
          "internalType": "uint256",
          "name": "",
          "type": "uint256"
        }
      ],
      "stateMutability": "view",
      "type": "function"
    },
    {
      "inputs": [],
      "name": "name",
      "outputs": [
        {
          "internalType": "string",
          "name": "",
          "type": "string"
        }
      ],
      "stateMutability": "view",
      "type": "function"
    },
    {
      "inputs": [],
      "name": "numberOfModsRequired",
      "outputs": [
        {
          "internalType": "uint8",
          "name": "",
          "type": "uint8"
        }
      ],
      "stateMutability": "view",
      "type": "function"
    },
    {
      "inputs": [],
      "name": "owner",
      "outputs": [
        {
          "internalType": "address",
          "name": "",
          "type": "address"
        }
      ],
      "stateMutability": "view",
      "type": "function"
    },
    {
      "inputs": [
        {
          "internalType": "uint256",
          "name": "tokenId",
          "type": "uint256"
        }
      ],
      "name": "ownerOf",
      "outputs": [
        {
          "internalType": "address",
          "name": "",
          "type": "address"
        }
      ],
      "stateMutability": "view",
      "type": "function"
    },
    {
      "inputs": [],
      "name": "renounceOwnership",
      "outputs": [],
      "stateMutability": "nonpayable",
      "type": "function"
    },
    {
      "inputs": [
        {
          "internalType": "uint256",
          "name": "tokenId",
          "type": "uint256"
        },
        {
          "internalType": "uint8",
          "name": "_days",
          "type": "uint8"
        }
      ],
      "name": "rentVideo",
      "outputs": [],
      "stateMutability": "payable",
      "type": "function"
    },
    {
      "inputs": [
        {
          "internalType": "uint256",
          "name": "tokenId",
          "type": "uint256"
        }
      ],
      "name": "rentalPricePerDay",
      "outputs": [
        {
          "internalType": "uint256",
          "name": "",
          "type": "uint256"
        }
      ],
      "stateMutability": "view",
      "type": "function"
    },
    {
      "inputs": [
        {
          "internalType": "address",
          "name": "",
          "type": "address"
        },
        {
          "internalType": "uint256",
          "name": "",
          "type": "uint256"
        }
      ],
      "name": "rentals",
      "outputs": [
        {
          "internalType": "uint256",
          "name": "",
          "type": "uint256"
        }
      ],
      "stateMutability": "view",
      "type": "function"
    },
    {
      "inputs": [
        {
          "internalType": "address",
          "name": "to",
          "type": "address"
        },
        {
          "internalType": "string",
          "name": "uri",
          "type": "string"
        }
      ],
      "name": "safeMint",
      "outputs": [],
      "stateMutability": "nonpayable",
      "type": "function"
    },
    {
      "inputs": [
        {
          "internalType": "address",
          "name": "from",
          "type": "address"
        },
        {
          "internalType": "address",
          "name": "to",
          "type": "address"
        },
        {
          "internalType": "uint256",
          "name": "tokenId",
          "type": "uint256"
        }
      ],
      "name": "safeTransferFrom",
      "outputs": [],
      "stateMutability": "nonpayable",
      "type": "function"
    },
    {
      "inputs": [
        {
          "internalType": "address",
          "name": "from",
          "type": "address"
        },
        {
          "internalType": "address",
          "name": "to",
          "type": "address"
        },
        {
          "internalType": "uint256",
          "name": "tokenId",
          "type": "uint256"
        },
        {
          "internalType": "bytes",
          "name": "_data",
          "type": "bytes"
        }
      ],
      "name": "safeTransferFrom",
      "outputs": [],
      "stateMutability": "nonpayable",
      "type": "function"
    },
    {
      "inputs": [
        {
          "internalType": "address",
          "name": "operator",
          "type": "address"
        },
        {
          "internalType": "bool",
          "name": "approved",
          "type": "bool"
        }
      ],
      "name": "setApprovalForAll",
      "outputs": [],
      "stateMutability": "nonpayable",
      "type": "function"
    },
    {
      "inputs": [
        {
          "internalType": "uint256",
          "name": "_defaultRentalPricePerDay",
          "type": "uint256"
        },
        {
          "internalType": "uint256",
          "name": "_mintReward",
          "type": "uint256"
        },
        {
          "internalType": "uint256",
          "name": "_moderationReward",
          "type": "uint256"
        },
        {
          "internalType": "uint8",
          "name": "_requiredMods",
          "type": "uint8"
        }
      ],
      "name": "setContractDefaults",
      "outputs": [],
      "stateMutability": "nonpayable",
      "type": "function"
    },
    {
      "inputs": [
        {
          "internalType": "bytes4",
          "name": "interfaceId",
          "type": "bytes4"
        }
      ],
      "name": "supportsInterface",
      "outputs": [
        {
          "internalType": "bool",
          "name": "",
          "type": "bool"
        }
      ],
      "stateMutability": "view",
      "type": "function"
    },
    {
      "inputs": [],
      "name": "symbol",
      "outputs": [
        {
          "internalType": "string",
          "name": "",
          "type": "string"
        }
      ],
      "stateMutability": "view",
      "type": "function"
    },
    {
      "inputs": [
        {
          "internalType": "uint256",
          "name": "index",
          "type": "uint256"
        }
      ],
      "name": "tokenByIndex",
      "outputs": [
        {
          "internalType": "uint256",
          "name": "",
          "type": "uint256"
        }
      ],
      "stateMutability": "view",
      "type": "function"
    },
    {
      "inputs": [
        {
          "internalType": "uint256",
          "name": "tokenId",
          "type": "uint256"
        }
      ],
      "name": "tokenInfo",
      "outputs": [
        {
          "internalType": "address",
          "name": "",
          "type": "address"
        },
        {
          "internalType": "string",
          "name": "",
          "type": "string"
        },
        {
          "internalType": "enum VideoNFT.ModerationStatus",
          "name": "",
          "type": "uint8"
        }
      ],
      "stateMutability": "view",
      "type": "function"
    },
    {
      "inputs": [
        {
          "internalType": "address",
          "name": "owner",
          "type": "address"
        },
        {
          "internalType": "uint256",
          "name": "index",
          "type": "uint256"
        }
      ],
      "name": "tokenOfOwnerByIndex",
      "outputs": [
        {
          "internalType": "uint256",
          "name": "",
          "type": "uint256"
        }
      ],
      "stateMutability": "view",
      "type": "function"
    },
    {
      "inputs": [
        {
          "internalType": "uint256",
          "name": "",
          "type": "uint256"
        }
      ],
      "name": "tokenRentalPricesPerDay",
      "outputs": [
        {
          "internalType": "uint256",
          "name": "",
          "type": "uint256"
        }
      ],
      "stateMutability": "view",
      "type": "function"
    },
    {
      "inputs": [
        {
          "internalType": "uint256",
          "name": "tokenId",
          "type": "uint256"
        }
      ],
      "name": "tokenURI",
      "outputs": [
        {
          "internalType": "string",
          "name": "",
          "type": "string"
        }
      ],
      "stateMutability": "view",
      "type": "function"
    },
    {
      "inputs": [],
      "name": "totalSupply",
      "outputs": [
        {
          "internalType": "uint256",
          "name": "",
          "type": "uint256"
        }
      ],
      "stateMutability": "view",
      "type": "function"
    },
    {
      "inputs": [
        {
          "internalType": "address",
          "name": "from",
          "type": "address"
        },
        {
          "internalType": "address",
          "name": "to",
          "type": "address"
        },
        {
          "internalType": "uint256",
          "name": "tokenId",
          "type": "uint256"
        }
      ],
      "name": "transferFrom",
      "outputs": [],
      "stateMutability": "nonpayable",
      "type": "function"
    },
    {
      "inputs": [
        {
          "internalType": "address",
          "name": "newOwner",
          "type": "address"
        }
      ],
      "name": "transferOwnership",
      "outputs": [],
      "stateMutability": "nonpayable",
      "type": "function"
    }
  ],
  "bytecode": "0x60806040523480156200001157600080fd5b5060405162005ec938038062005ec983398181016040528101906200003791906200038e565b6040518060400160405280600881526020017f566964656f4e46540000000000000000000000000000000000000000000000008152506040518060400160405280600681526020017f5648534e465400000000000000000000000000000000000000000000000000008152508160009080519060200190620000bb929190620002c7565b508060019080519060200190620000d4929190620002c7565b505050620000f7620000eb620001f960201b60201c565b6200020160201b60201c565b600073ffffffffffffffffffffffffffffffffffffffff168173ffffffffffffffffffffffffffffffffffffffff1614156200016a576040517f08c379a00000000000000000000000000000000000000000000000000000000081526004016200016190620003e1565b60405180910390fd5b600081905080601160006101000a81548173ffffffffffffffffffffffffffffffffffffffff021916908373ffffffffffffffffffffffffffffffffffffffff16021790555081600d60016101000a81548173ffffffffffffffffffffffffffffffffffffffff021916908373ffffffffffffffffffffffffffffffffffffffff160217905550505062000516565b600033905090565b6000600b60009054906101000a900473ffffffffffffffffffffffffffffffffffffffff16905081600b60006101000a81548173ffffffffffffffffffffffffffffffffffffffff021916908373ffffffffffffffffffffffffffffffffffffffff1602179055508173ffffffffffffffffffffffffffffffffffffffff168173ffffffffffffffffffffffffffffffffffffffff167f8be0079c531659141344cd1fd0a4f28419497f9722a3daafe3b4186f6b6457e060405160405180910390a35050565b828054620002d59062000448565b90600052602060002090601f016020900481019282620002f9576000855562000345565b82601f106200031457805160ff191683800117855562000345565b8280016001018555821562000345579182015b828111156200034457825182559160200191906001019062000327565b5b50905062000354919062000358565b5090565b5b808211156200037357600081600090555060010162000359565b5090565b6000815190506200038881620004fc565b92915050565b600060208284031215620003a157600080fd5b6000620003b18482850162000377565b91505092915050565b6000620003c960288362000403565b9150620003d682620004ad565b604082019050919050565b60006020820190508181036000830152620003fc81620003ba565b9050919050565b600082825260208201905092915050565b6000620004218262000428565b9050919050565b600073ffffffffffffffffffffffffffffffffffffffff82169050919050565b600060028204905060018216806200046157607f821691505b602082108114156200047857620004776200047e565b5b50919050565b7f4e487b7100000000000000000000000000000000000000000000000000000000600052602260045260246000fd5b7f455243323020636f6e74726163742061646472657373206d757374206265207360008201527f7570706c6965642e000000000000000000000000000000000000000000000000602082015250565b620005078162000414565b81146200051357600080fd5b50565b6159a380620005266000396000f3fe60806040526004361061020f5760003560e01c806370a0823111610118578063c87b56dd116100a0578063df88cb9a1161006f578063df88cb9a14610802578063e486df151461083f578063e87727ee1461086a578063e985e9c514610893578063f2fde38b146108d05761020f565b8063c87b56dd14610734578063ca6c41be14610771578063cc33c8751461079a578063d204c45e146107d95761020f565b80639d02e37c116100e75780639d02e37c1461064f578063a22cb4651461068c578063a46f5f44146106b5578063b043baf8146106e0578063b88d4fde1461070b5761020f565b806370a08231146105a5578063715018a6146105e25780638da5cb5b146105f957806395d89b41146106245761020f565b80632f745c591161019b5780634d075eb11161016a5780634d075eb1146104a95780634f66e246146104e65780634f6ccce7146105025780636352211e1461053f578063656f30b51461057c5761020f565b80632f745c59146103db578063418f69cf1461041857806342842e0e14610455578063484cd2dd1461047e5761020f565b8063095ea7b3116101e2578063095ea7b3146102f6578063174f57af1461031f57806318160ddd1461034a578063223c6ab21461037557806323b872dd146103b25761020f565b806301ffc9a71461021457806306fdde0314610251578063081812fc1461027c578063090fc58b146102b9575b600080fd5b34801561022057600080fd5b5061023b60048036038101906102369190613e52565b6108f9565b60405161024891906146e2565b60405180910390f35b34801561025d57600080fd5b5061026661090b565b6040516102739190614718565b60405180910390f35b34801561028857600080fd5b506102a3600480360381019061029e9190613ea4565b61099d565b6040516102b091906145dd565b60405180910390f35b3480156102c557600080fd5b506102e060048036038101906102db9190613dac565b610a22565b6040516102ed9190614a9a565b60405180910390f35b34801561030257600080fd5b5061031d60048036038101906103189190613dac565b610a47565b005b34801561032b57600080fd5b50610334610b5f565b6040516103419190614a9a565b60405180910390f35b34801561035657600080fd5b5061035f610b65565b60405161036c9190614a9a565b60405180910390f35b34801561038157600080fd5b5061039c60048036038101906103979190613bed565b610b72565b6040516103a99190614a9a565b60405180910390f35b3480156103be57600080fd5b506103d960048036038101906103d49190613c52565b610b8a565b005b3480156103e757600080fd5b5061040260048036038101906103fd9190613dac565b610bea565b60405161040f9190614a9a565b60405180910390f35b34801561042457600080fd5b5061043f600480360381019061043a9190613ea4565b610c8f565b60405161044c9190614a9a565b60405180910390f35b34801561046157600080fd5b5061047c60048036038101906104779190613c52565b610ca7565b005b34801561048a57600080fd5b50610493610cc7565b6040516104a09190614a9a565b60405180910390f35b3480156104b557600080fd5b506104d060048036038101906104cb9190613ea4565b610ccd565b6040516104dd91906146e2565b60405180910390f35b61050060048036038101906104fb9190613f95565b610deb565b005b34801561050e57600080fd5b5061052960048036038101906105249190613ea4565b61119e565b6040516105369190614a9a565b60405180910390f35b34801561054b57600080fd5b5061056660048036038101906105619190613ea4565b611235565b60405161057391906145dd565b60405180910390f35b34801561058857600080fd5b506105a3600480360381019061059e9190613f32565b6112e7565b005b3480156105b157600080fd5b506105cc60048036038101906105c79190613bed565b6113eb565b6040516105d99190614a9a565b60405180910390f35b3480156105ee57600080fd5b506105f76114a3565b005b34801561060557600080fd5b5061060e61152b565b60405161061b91906145dd565b60405180910390f35b34801561063057600080fd5b50610639611555565b6040516106469190614718565b60405180910390f35b34801561065b57600080fd5b5061067660048036038101906106719190613ea4565b6115e7565b60405161068391906146fd565b60405180910390f35b34801561069857600080fd5b506106b360048036038101906106ae9190613d1c565b611612565b005b3480156106c157600080fd5b506106ca611628565b6040516106d79190614b61565b60405180910390f35b3480156106ec57600080fd5b506106f561163b565b6040516107029190614a9a565b60405180910390f35b34801561071757600080fd5b50610732600480360381019061072d9190613ca1565b611641565b005b34801561074057600080fd5b5061075b60048036038101906107569190613ea4565b6116a3565b6040516107689190614718565b60405180910390f35b34801561077d57600080fd5b5061079860048036038101906107939190613ef6565b6116b5565b005b3480156107a657600080fd5b506107c160048036038101906107bc9190613ea4565b6117de565b6040516107d09392919061467b565b60405180910390f35b3480156107e557600080fd5b5061080060048036038101906107fb9190613d58565b6118be565b005b34801561080e57600080fd5b5061082960048036038101906108249190613ea4565b611aa5565b6040516108369190614a9a565b60405180910390f35b34801561084b57600080fd5b50610854611b74565b60405161086191906145dd565b60405180910390f35b34801561087657600080fd5b50610891600480360381019061088c9190613de8565b611b9a565b005b34801561089f57600080fd5b506108ba60048036038101906108b59190613c16565b6121e5565b6040516108c791906146e2565b60405180910390f35b3480156108dc57600080fd5b506108f760048036038101906108f29190613bed565b612279565b005b600061090482612371565b9050919050565b60606000805461091a90614ee4565b80601f016020809104026020016040519081016040528092919081815260200182805461094690614ee4565b80156109935780601f1061096857610100808354040283529160200191610993565b820191906000526020600020905b81548152906001019060200180831161097657829003601f168201915b5050505050905090565b60006109a8826123eb565b6109e7576040517f08c379a00000000000000000000000000000000000000000000000000000000081526004016109de9061499a565b60405180910390fd5b6004600083815260200190815260200160002060009054906101000a900473ffffffffffffffffffffffffffffffffffffffff169050919050565b6015602052816000526040600020602052806000526040600020600091509150505481565b6000610a5282611235565b90508073ffffffffffffffffffffffffffffffffffffffff168373ffffffffffffffffffffffffffffffffffffffff161415610ac3576040517f08c379a0000000000000000000000000000000000000000000000000000000008152600401610aba906149fa565b60405180910390fd5b8073ffffffffffffffffffffffffffffffffffffffff16610ae2612457565b73ffffffffffffffffffffffffffffffffffffffff161480610b115750610b1081610b0b612457565b6121e5565b5b610b50576040517f08c379a0000000000000000000000000000000000000000000000000000000008152600401610b479061489a565b60405180910390fd5b610b5a838361245f565b505050565b60105481565b6000600880549050905090565b60146020528060005260406000206000915090505481565b610b9b610b95612457565b82612518565b610bda576040517f08c379a0000000000000000000000000000000000000000000000000000000008152600401610bd190614a3a565b60405180910390fd5b610be58383836125f6565b505050565b6000610bf5836113eb565b8210610c36576040517f08c379a0000000000000000000000000000000000000000000000000000000008152600401610c2d9061473a565b60405180910390fd5b600660008473ffffffffffffffffffffffffffffffffffffffff1673ffffffffffffffffffffffffffffffffffffffff168152602001908152602001600020600083815260200190815260200160002054905092915050565b60136020528060005260406000206000915090505481565b610cc283838360405180602001604052806000815250611641565b505050565b600e5481565b6000600d60009054906101000a900460ff16610d1e576040517f08c379a0000000000000000000000000000000000000000000000000000000008152600401610d15906147da565b60405180910390fd5b610d27826123eb565b610d66576040517f08c379a0000000000000000000000000000000000000000000000000000000008152600401610d5d90614a1a565b60405180910390fd5b6000601560003373ffffffffffffffffffffffffffffffffffffffff1673ffffffffffffffffffffffffffffffffffffffff16815260200190815260200160002060008481526020019081526020016000205490506000811415610dce576000915050610de6565b42811015610de0576000915050610de6565b60019150505b919050565b600d60009054906101000a900460ff16610e3a576040517f08c379a0000000000000000000000000000000000000000000000000000000008152600401610e31906147da565b60405180910390fd5b610e43826123eb565b610e82576040517f08c379a0000000000000000000000000000000000000000000000000000000008152600401610e7990614a1a565b60405180910390fd5b60008160ff1611610ec8576040517f08c379a0000000000000000000000000000000000000000000000000000000008152600401610ebf9061491a565b60405180910390fd5b6000610ed383611235565b905060008260ff16610ee485611aa5565b610eee9190614d37565b9050600042905081601160009054906101000a900473ffffffffffffffffffffffffffffffffffffffff1673ffffffffffffffffffffffffffffffffffffffff166370a08231336040518263ffffffff1660e01b8152600401610f5191906145dd565b60206040518083038186803b158015610f6957600080fd5b505afa158015610f7d573d6000803e3d6000fd5b505050506040513d601f19601f82011682018060405250810190610fa19190613ecd565b1015610fe2576040517f08c379a0000000000000000000000000000000000000000000000000000000008152600401610fd99061485a565b60405180910390fd5b3373ffffffffffffffffffffffffffffffffffffffff168373ffffffffffffffffffffffffffffffffffffffff161415611051576040517f08c379a00000000000000000000000000000000000000000000000000000000081526004016110489061483a565b60405180910390fd5b601160009054906101000a900473ffffffffffffffffffffffffffffffffffffffff1673ffffffffffffffffffffffffffffffffffffffff166323b872dd3385856040518463ffffffff1660e01b81526004016110b0939291906145f8565b602060405180830381600087803b1580156110ca57600080fd5b505af11580156110de573d6000803e3d6000fd5b505050506040513d601f19601f820116820180604052508101906111029190613e29565b5080601560003373ffffffffffffffffffffffffffffffffffffffff1673ffffffffffffffffffffffffffffffffffffffff1681526020019081526020016000206000878152602001908152602001600020819055507f7b1a4780b5606c20bf59dcfd820303c6c9ba27cc345899058f049aba199b3ed2853385858860405161118f959493929190614ade565b60405180910390a15050505050565b60006111a8610b65565b82106111e9576040517f08c379a00000000000000000000000000000000000000000000000000000000081526004016111e090614a5a565b60405180910390fd5b60088281548110611223577f4e487b7100000000000000000000000000000000000000000000000000000000600052603260045260246000fd5b90600052602060002001549050919050565b6000806002600084815260200190815260200160002060009054906101000a900473ffffffffffffffffffffffffffffffffffffffff169050600073ffffffffffffffffffffffffffffffffffffffff168173ffffffffffffffffffffffffffffffffffffffff1614156112de576040517f08c379a00000000000000000000000000000000000000000000000000000000081526004016112d5906148da565b60405180910390fd5b80915050919050565b6112ef612457565b73ffffffffffffffffffffffffffffffffffffffff1661130d61152b565b73ffffffffffffffffffffffffffffffffffffffff1614611363576040517f08c379a000000000000000000000000000000000000000000000000000000000815260040161135a906149ba565b60405180910390fd5b6000841161137057600080fd5b6000821161137d57600080fd5b6000831161138a57600080fd5b60008160ff161161139a57600080fd5b83600e8190555081600f819055508260108190555080601160146101000a81548160ff021916908360ff1602179055506001600d60006101000a81548160ff02191690831515021790555050505050565b60008073ffffffffffffffffffffffffffffffffffffffff168273ffffffffffffffffffffffffffffffffffffffff16141561145c576040517f08c379a0000000000000000000000000000000000000000000000000000000008152600401611453906148ba565b60405180910390fd5b600360008373ffffffffffffffffffffffffffffffffffffffff1673ffffffffffffffffffffffffffffffffffffffff168152602001908152602001600020549050919050565b6114ab612457565b73ffffffffffffffffffffffffffffffffffffffff166114c961152b565b73ffffffffffffffffffffffffffffffffffffffff161461151f576040517f08c379a0000000000000000000000000000000000000000000000000000000008152600401611516906149ba565b60405180910390fd5b611529600061285d565b565b6000600b60009054906101000a900473ffffffffffffffffffffffffffffffffffffffff16905090565b60606001805461156490614ee4565b80601f016020809104026020016040519081016040528092919081815260200182805461159090614ee4565b80156115dd5780601f106115b2576101008083540402835291602001916115dd565b820191906000526020600020905b8154815290600101906020018083116115c057829003601f168201915b5050505050905090565b60126020528060005260406000206000915090508060010160009054906101000a900460ff16905081565b61162461161d612457565b8383612923565b5050565b601160149054906101000a900460ff1681565b600f5481565b61165261164c612457565b83612518565b611691576040517f08c379a000000000000000000000000000000000000000000000000000000000815260040161168890614a3a565b60405180910390fd5b61169d84848484612a90565b50505050565b60606116ae82612aec565b9050919050565b600d60009054906101000a900460ff16611704576040517f08c379a00000000000000000000000000000000000000000000000000000000081526004016116fb906147da565b60405180910390fd5b61170d826123eb565b61174c576040517f08c379a000000000000000000000000000000000000000000000000000000000815260040161174390614a1a565b60405180910390fd5b3373ffffffffffffffffffffffffffffffffffffffff1661176c83611235565b73ffffffffffffffffffffffffffffffffffffffff16146117c2576040517f08c379a00000000000000000000000000000000000000000000000000000000081526004016117b99061497a565b60405180910390fd5b8060136000848152602001908152602001600020819055505050565b600060606000600d60009054906101000a900460ff16611833576040517f08c379a000000000000000000000000000000000000000000000000000000000815260040161182a906147da565b60405180910390fd5b61183c846123eb565b61187b576040517f08c379a000000000000000000000000000000000000000000000000000000000815260040161187290614a1a565b60405180910390fd5b61188484611235565b61188d856116a3565b6012600087815260200190815260200160002060010160009054906101000a900460ff169250925092509193909250565b600d60009054906101000a900460ff1661190d576040517f08c379a0000000000000000000000000000000000000000000000000000000008152600401611904906147da565b60405180910390fd5b611915612457565b73ffffffffffffffffffffffffffffffffffffffff1661193361152b565b73ffffffffffffffffffffffffffffffffffffffff1614611989576040517f08c379a0000000000000000000000000000000000000000000000000000000008152600401611980906149ba565b60405180910390fd5b6000611995600c612c3e565b90506119a1600c612c4c565b6119ab8382612c62565b6119b58183612e3c565b601160009054906101000a900473ffffffffffffffffffffffffffffffffffffffff1673ffffffffffffffffffffffffffffffffffffffff1663a9059cbb846010546040518363ffffffff1660e01b8152600401611a149291906146b9565b602060405180830381600087803b158015611a2e57600080fd5b505af1158015611a42573d6000803e3d6000fd5b505050506040513d601f19601f82011682018060405250810190611a669190613e29565b507fb9203d657e9c0ec8274c818292ab0f58b04e1970050716891770eb1bab5d655e8184604051611a98929190614ab5565b60405180910390a1505050565b6000600d60009054906101000a900460ff16611af6576040517f08c379a0000000000000000000000000000000000000000000000000000000008152600401611aed906147da565b60405180910390fd5b611aff826123eb565b611b3e576040517f08c379a0000000000000000000000000000000000000000000000000000000008152600401611b3590614a1a565b60405180910390fd5b6000601360008481526020019081526020016000205490506000811415611b6a57600e54915050611b6f565b809150505b919050565b600d60019054906101000a900473ffffffffffffffffffffffffffffffffffffffff1681565b600d60009054906101000a900460ff16611be9576040517f08c379a0000000000000000000000000000000000000000000000000000000008152600401611be0906147da565b60405180910390fd5b6000611bf4336113eb565b11611c34576040517f08c379a0000000000000000000000000000000000000000000000000000000008152600401611c2b90614a7a565b60405180910390fd5b60005b81518110156121e1576000828281518110611c7b577f4e487b7100000000000000000000000000000000000000000000000000000000600052603260045260246000fd5b6020026020010151600001519050611c92816123eb565b611cd1576040517f08c379a0000000000000000000000000000000000000000000000000000000008152600401611cc890614a1a565b60405180910390fd5b60126000828152602001908152602001600020600001838381518110611d20577f4e487b7100000000000000000000000000000000000000000000000000000000600052603260045260246000fd5b602002602001015190806001815401808255809150506001900390600052602060002090600202016000909190919091506000820151816000015560208201518160010160006101000a81548173ffffffffffffffffffffffffffffffffffffffff021916908373ffffffffffffffffffffffffffffffffffffffff16021790555060408201518160010160146101000a81548160ff02191690836003811115611df3577f4e487b7100000000000000000000000000000000000000000000000000000000600052602160045260246000fd5b02179055505050601160149054906101000a900460ff1660ff16601260008381526020019081526020016000206000018054905014156121cd5760006002905060005b6012600084815260200190815260200160002060000180549050811015611f5757600380811115611e90577f4e487b7100000000000000000000000000000000000000000000000000000000600052602160045260246000fd5b601260008581526020019081526020016000206000018281548110611ede577f4e487b7100000000000000000000000000000000000000000000000000000000600052603260045260246000fd5b906000526020600020906002020160010160149054906101000a900460ff166003811115611f35577f4e487b7100000000000000000000000000000000000000000000000000000000600052602160045260246000fd5b1415611f445760039150611f57565b8080611f4f90614faf565b915050611e36565b50806012600084815260200190815260200160002060010160006101000a81548160ff02191690836003811115611fb7577f4e487b7100000000000000000000000000000000000000000000000000000000600052602160045260246000fd5b021790555060005b601260008481526020019081526020016000206000018054905081101561217f576000601260008581526020019081526020016000206000018281548110612030577f4e487b7100000000000000000000000000000000000000000000000000000000600052603260045260246000fd5b906000526020600020906002020160010160009054906101000a900473ffffffffffffffffffffffffffffffffffffffff169050601460008273ffffffffffffffffffffffffffffffffffffffff1673ffffffffffffffffffffffffffffffffffffffff16815260200190815260200160002060008154809291906120b490614faf565b9190505550601160009054906101000a900473ffffffffffffffffffffffffffffffffffffffff1673ffffffffffffffffffffffffffffffffffffffff1663a9059cbb82600f546040518363ffffffff1660e01b81526004016121189291906146b9565b602060405180830381600087803b15801561213257600080fd5b505af1158015612146573d6000803e3d6000fd5b505050506040513d601f19601f8201168201806040525081019061216a9190613e29565b5050808061217790614faf565b915050611fbf565b507f0a394db5f1438dbeab2a03a607069942286e0793fbed6fc84c3bfbe14db3e28582601260008581526020019081526020016000206040516121c3929190614b31565b60405180910390a1505b5080806121d990614faf565b915050611c37565b5050565b6000600560008473ffffffffffffffffffffffffffffffffffffffff1673ffffffffffffffffffffffffffffffffffffffff16815260200190815260200160002060008373ffffffffffffffffffffffffffffffffffffffff1673ffffffffffffffffffffffffffffffffffffffff16815260200190815260200160002060009054906101000a900460ff16905092915050565b612281612457565b73ffffffffffffffffffffffffffffffffffffffff1661229f61152b565b73ffffffffffffffffffffffffffffffffffffffff16146122f5576040517f08c379a00000000000000000000000000000000000000000000000000000000081526004016122ec906149ba565b60405180910390fd5b600073ffffffffffffffffffffffffffffffffffffffff168173ffffffffffffffffffffffffffffffffffffffff161415612365576040517f08c379a000000000000000000000000000000000000000000000000000000000815260040161235c9061477a565b60405180910390fd5b61236e8161285d565b50565b60007f780e9d63000000000000000000000000000000000000000000000000000000007bffffffffffffffffffffffffffffffffffffffffffffffffffffffff1916827bffffffffffffffffffffffffffffffffffffffffffffffffffffffff191614806123e457506123e382612eb0565b5b9050919050565b60008073ffffffffffffffffffffffffffffffffffffffff166002600084815260200190815260200160002060009054906101000a900473ffffffffffffffffffffffffffffffffffffffff1673ffffffffffffffffffffffffffffffffffffffff1614159050919050565b600033905090565b816004600083815260200190815260200160002060006101000a81548173ffffffffffffffffffffffffffffffffffffffff021916908373ffffffffffffffffffffffffffffffffffffffff160217905550808273ffffffffffffffffffffffffffffffffffffffff166124d283611235565b73ffffffffffffffffffffffffffffffffffffffff167f8c5be1e5ebec7d5bd14f71427d1e84f3dd0314c0f7b2291e5b200ac8c7c3b92560405160405180910390a45050565b6000612523826123eb565b612562576040517f08c379a00000000000000000000000000000000000000000000000000000000081526004016125599061487a565b60405180910390fd5b600061256d83611235565b90508073ffffffffffffffffffffffffffffffffffffffff168473ffffffffffffffffffffffffffffffffffffffff1614806125dc57508373ffffffffffffffffffffffffffffffffffffffff166125c48461099d565b73ffffffffffffffffffffffffffffffffffffffff16145b806125ed57506125ec81856121e5565b5b91505092915050565b8273ffffffffffffffffffffffffffffffffffffffff1661261682611235565b73ffffffffffffffffffffffffffffffffffffffff161461266c576040517f08c379a00000000000000000000000000000000000000000000000000000000081526004016126639061479a565b60405180910390fd5b600073ffffffffffffffffffffffffffffffffffffffff168273ffffffffffffffffffffffffffffffffffffffff1614156126dc576040517f08c379a00000000000000000000000000000000000000000000000000000000081526004016126d3906147fa565b60405180910390fd5b6126e7838383612f92565b6126f260008261245f565b6001600360008573ffffffffffffffffffffffffffffffffffffffff1673ffffffffffffffffffffffffffffffffffffffff16815260200190815260200160002060008282546127429190614d91565b925050819055506001600360008473ffffffffffffffffffffffffffffffffffffffff1673ffffffffffffffffffffffffffffffffffffffff16815260200190815260200160002060008282546127999190614cb0565b92505081905550816002600083815260200190815260200160002060006101000a81548173ffffffffffffffffffffffffffffffffffffffff021916908373ffffffffffffffffffffffffffffffffffffffff160217905550808273ffffffffffffffffffffffffffffffffffffffff168473ffffffffffffffffffffffffffffffffffffffff167fddf252ad1be2c89b69c2b068fc378daa952ba7f163c4a11628f55a4df523b3ef60405160405180910390a4612858838383612fa2565b505050565b6000600b60009054906101000a900473ffffffffffffffffffffffffffffffffffffffff16905081600b60006101000a81548173ffffffffffffffffffffffffffffffffffffffff021916908373ffffffffffffffffffffffffffffffffffffffff1602179055508173ffffffffffffffffffffffffffffffffffffffff168173ffffffffffffffffffffffffffffffffffffffff167f8be0079c531659141344cd1fd0a4f28419497f9722a3daafe3b4186f6b6457e060405160405180910390a35050565b8173ffffffffffffffffffffffffffffffffffffffff168373ffffffffffffffffffffffffffffffffffffffff161415612992576040517f08c379a00000000000000000000000000000000000000000000000000000000081526004016129899061481a565b60405180910390fd5b80600560008573ffffffffffffffffffffffffffffffffffffffff1673ffffffffffffffffffffffffffffffffffffffff16815260200190815260200160002060008473ffffffffffffffffffffffffffffffffffffffff1673ffffffffffffffffffffffffffffffffffffffff16815260200190815260200160002060006101000a81548160ff0219169083151502179055508173ffffffffffffffffffffffffffffffffffffffff168373ffffffffffffffffffffffffffffffffffffffff167f17307eab39ab6107e8899845ad3d59bd9653f200f220920489ca2b5937696c3183604051612a8391906146e2565b60405180910390a3505050565b612a9b8484846125f6565b612aa784848484612fa7565b612ae6576040517f08c379a0000000000000000000000000000000000000000000000000000000008152600401612add9061475a565b60405180910390fd5b50505050565b6060612af7826123eb565b612b36576040517f08c379a0000000000000000000000000000000000000000000000000000000008152600401612b2d9061495a565b60405180910390fd5b6000600a60008481526020019081526020016000208054612b5690614ee4565b80601f0160208091040260200160405190810160405280929190818152602001828054612b8290614ee4565b8015612bcf5780601f10612ba457610100808354040283529160200191612bcf565b820191906000526020600020905b815481529060010190602001808311612bb257829003601f168201915b505050505090506000612be061313e565b9050600081511415612bf6578192505050612c39565b600082511115612c2b578082604051602001612c139291906145b9565b60405160208183030381529060405292505050612c39565b612c3484613155565b925050505b919050565b600081600001549050919050565b6001816000016000828254019250508190555050565b600073ffffffffffffffffffffffffffffffffffffffff168273ffffffffffffffffffffffffffffffffffffffff161415612cd2576040517f08c379a0000000000000000000000000000000000000000000000000000000008152600401612cc99061493a565b60405180910390fd5b612cdb816123eb565b15612d1b576040517f08c379a0000000000000000000000000000000000000000000000000000000008152600401612d12906147ba565b60405180910390fd5b612d2760008383612f92565b6001600360008473ffffffffffffffffffffffffffffffffffffffff1673ffffffffffffffffffffffffffffffffffffffff1681526020019081526020016000206000828254612d779190614cb0565b92505081905550816002600083815260200190815260200160002060006101000a81548173ffffffffffffffffffffffffffffffffffffffff021916908373ffffffffffffffffffffffffffffffffffffffff160217905550808273ffffffffffffffffffffffffffffffffffffffff16600073ffffffffffffffffffffffffffffffffffffffff167fddf252ad1be2c89b69c2b068fc378daa952ba7f163c4a11628f55a4df523b3ef60405160405180910390a4612e3860008383612fa2565b5050565b612e45826123eb565b612e84576040517f08c379a0000000000000000000000000000000000000000000000000000000008152600401612e7b906148fa565b60405180910390fd5b80600a60008481526020019081526020016000209080519060200190612eab9291906138c7565b505050565b60007f80ac58cd000000000000000000000000000000000000000000000000000000007bffffffffffffffffffffffffffffffffffffffffffffffffffffffff1916827bffffffffffffffffffffffffffffffffffffffffffffffffffffffff19161480612f7b57507f5b5e139f000000000000000000000000000000000000000000000000000000007bffffffffffffffffffffffffffffffffffffffffffffffffffffffff1916827bffffffffffffffffffffffffffffffffffffffffffffffffffffffff1916145b80612f8b5750612f8a826131fc565b5b9050919050565b612f9d838383613266565b505050565b505050565b6000612fc88473ffffffffffffffffffffffffffffffffffffffff1661337a565b15613131578373ffffffffffffffffffffffffffffffffffffffff1663150b7a02612ff1612457565b8786866040518563ffffffff1660e01b8152600401613013949392919061462f565b602060405180830381600087803b15801561302d57600080fd5b505af192505050801561305e57506040513d601f19601f8201168201806040525081019061305b9190613e7b565b60015b6130e1573d806000811461308e576040519150601f19603f3d011682016040523d82523d6000602084013e613093565b606091505b506000815114156130d9576040517f08c379a00000000000000000000000000000000000000000000000000000000081526004016130d09061475a565b60405180910390fd5b805181602001fd5b63150b7a0260e01b7bffffffffffffffffffffffffffffffffffffffffffffffffffffffff1916817bffffffffffffffffffffffffffffffffffffffffffffffffffffffff191614915050613136565b600190505b949350505050565b606060405180602001604052806000815250905090565b6060613160826123eb565b61319f576040517f08c379a0000000000000000000000000000000000000000000000000000000008152600401613196906149da565b60405180910390fd5b60006131a961313e565b905060008151116131c957604051806020016040528060008152506131f4565b806131d38461339d565b6040516020016131e49291906145b9565b6040516020818303038152906040525b915050919050565b60007f01ffc9a7000000000000000000000000000000000000000000000000000000007bffffffffffffffffffffffffffffffffffffffffffffffffffffffff1916827bffffffffffffffffffffffffffffffffffffffffffffffffffffffff1916149050919050565b61327183838361354a565b600073ffffffffffffffffffffffffffffffffffffffff168373ffffffffffffffffffffffffffffffffffffffff1614156132b4576132af8161354f565b6132f3565b8173ffffffffffffffffffffffffffffffffffffffff168373ffffffffffffffffffffffffffffffffffffffff16146132f2576132f18382613598565b5b5b600073ffffffffffffffffffffffffffffffffffffffff168273ffffffffffffffffffffffffffffffffffffffff1614156133365761333181613705565b613375565b8273ffffffffffffffffffffffffffffffffffffffff168273ffffffffffffffffffffffffffffffffffffffff1614613374576133738282613848565b5b5b505050565b6000808273ffffffffffffffffffffffffffffffffffffffff163b119050919050565b606060008214156133e5576040518060400160405280600181526020017f30000000000000000000000000000000000000000000000000000000000000008152509050613545565b600082905060005b6000821461341757808061340090614faf565b915050600a826134109190614d06565b91506133ed565b60008167ffffffffffffffff811115613459577f4e487b7100000000000000000000000000000000000000000000000000000000600052604160045260246000fd5b6040519080825280601f01601f19166020018201604052801561348b5781602001600182028036833780820191505090505b5090505b6000851461353e576001826134a49190614d91565b9150600a856134b39190614ff8565b60306134bf9190614cb0565b60f81b8183815181106134fb577f4e487b7100000000000000000000000000000000000000000000000000000000600052603260045260246000fd5b60200101907effffffffffffffffffffffffffffffffffffffffffffffffffffffffffffff1916908160001a905350600a856135379190614d06565b945061348f565b8093505050505b919050565b505050565b6008805490506009600083815260200190815260200160002081905550600881908060018154018082558091505060019003906000526020600020016000909190919091505550565b600060016135a5846113eb565b6135af9190614d91565b9050600060076000848152602001908152602001600020549050818114613694576000600660008673ffffffffffffffffffffffffffffffffffffffff1673ffffffffffffffffffffffffffffffffffffffff168152602001908152602001600020600084815260200190815260200160002054905080600660008773ffffffffffffffffffffffffffffffffffffffff1673ffffffffffffffffffffffffffffffffffffffff168152602001908152602001600020600084815260200190815260200160002081905550816007600083815260200190815260200160002081905550505b6007600084815260200190815260200160002060009055600660008573ffffffffffffffffffffffffffffffffffffffff1673ffffffffffffffffffffffffffffffffffffffff16815260200190815260200160002060008381526020019081526020016000206000905550505050565b600060016008805490506137199190614d91565b905060006009600084815260200190815260200160002054905060006008838154811061376f577f4e487b7100000000000000000000000000000000000000000000000000000000600052603260045260246000fd5b9060005260206000200154905080600883815481106137b7577f4e487b7100000000000000000000000000000000000000000000000000000000600052603260045260246000fd5b90600052602060002001819055508160096000838152602001908152602001600020819055506009600085815260200190815260200160002060009055600880548061382c577f4e487b7100000000000000000000000000000000000000000000000000000000600052603160045260246000fd5b6001900381819060005260206000200160009055905550505050565b6000613853836113eb565b905081600660008573ffffffffffffffffffffffffffffffffffffffff1673ffffffffffffffffffffffffffffffffffffffff168152602001908152602001600020600083815260200190815260200160002081905550806007600084815260200190815260200160002081905550505050565b8280546138d390614ee4565b90600052602060002090601f0160209004810192826138f5576000855561393c565b82601f1061390e57805160ff191683800117855561393c565b8280016001018555821561393c579182015b8281111561393b578251825591602001919060010190613920565b5b509050613949919061394d565b5090565b5b8082111561396657600081600090555060010161394e565b5090565b600061397d61397884614ba1565b614b7c565b9050808382526020820190508285606086028201111561399c57600080fd5b60005b858110156139cc57816139b28882613b4e565b84526020840193506060830192505060018101905061399f565b5050509392505050565b60006139e96139e484614bcd565b614b7c565b905082815260208101848484011115613a0157600080fd5b613a0c848285614ea2565b509392505050565b6000613a27613a2284614bfe565b614b7c565b905082815260208101848484011115613a3f57600080fd5b613a4a848285614ea2565b509392505050565b600081359050613a61816158ea565b92915050565b600082601f830112613a7857600080fd5b8135613a8884826020860161396a565b91505092915050565b600081359050613aa081615901565b92915050565b600081519050613ab581615901565b92915050565b600081359050613aca81615918565b92915050565b600081519050613adf81615918565b92915050565b600082601f830112613af657600080fd5b8135613b068482602086016139d6565b91505092915050565b600081359050613b1e8161592f565b92915050565b600082601f830112613b3557600080fd5b8135613b45848260208601613a14565b91505092915050565b600060608284031215613b6057600080fd5b613b6a6060614b7c565b90506000613b7a84828501613bae565b6000830152506020613b8e84828501613a52565b6020830152506040613ba284828501613b0f565b60408301525092915050565b600081359050613bbd8161593f565b92915050565b600081519050613bd28161593f565b92915050565b600081359050613be781615956565b92915050565b600060208284031215613bff57600080fd5b6000613c0d84828501613a52565b91505092915050565b60008060408385031215613c2957600080fd5b6000613c3785828601613a52565b9250506020613c4885828601613a52565b9150509250929050565b600080600060608486031215613c6757600080fd5b6000613c7586828701613a52565b9350506020613c8686828701613a52565b9250506040613c9786828701613bae565b9150509250925092565b60008060008060808587031215613cb757600080fd5b6000613cc587828801613a52565b9450506020613cd687828801613a52565b9350506040613ce787828801613bae565b925050606085013567ffffffffffffffff811115613d0457600080fd5b613d1087828801613ae5565b91505092959194509250565b60008060408385031215613d2f57600080fd5b6000613d3d85828601613a52565b9250506020613d4e85828601613a91565b9150509250929050565b60008060408385031215613d6b57600080fd5b6000613d7985828601613a52565b925050602083013567ffffffffffffffff811115613d9657600080fd5b613da285828601613b24565b9150509250929050565b60008060408385031215613dbf57600080fd5b6000613dcd85828601613a52565b9250506020613dde85828601613bae565b9150509250929050565b600060208284031215613dfa57600080fd5b600082013567ffffffffffffffff811115613e1457600080fd5b613e2084828501613a67565b91505092915050565b600060208284031215613e3b57600080fd5b6000613e4984828501613aa6565b91505092915050565b600060208284031215613e6457600080fd5b6000613e7284828501613abb565b91505092915050565b600060208284031215613e8d57600080fd5b6000613e9b84828501613ad0565b91505092915050565b600060208284031215613eb657600080fd5b6000613ec484828501613bae565b91505092915050565b600060208284031215613edf57600080fd5b6000613eed84828501613bc3565b91505092915050565b60008060408385031215613f0957600080fd5b6000613f1785828601613bae565b9250506020613f2885828601613bae565b9150509250929050565b60008060008060808587031215613f4857600080fd5b6000613f5687828801613bae565b9450506020613f6787828801613bae565b9350506040613f7887828801613bae565b9250506060613f8987828801613bd8565b91505092959194509250565b60008060408385031215613fa857600080fd5b6000613fb685828601613bae565b9250506020613fc785828601613bd8565b9150509250929050565b6000613fdd838361452e565b60608301905092915050565b613ff281614dfc565b82525050565b61400181614dfc565b82525050565b600061401282614c44565b61401c8185614c72565b935061402783614c2f565b8060005b83811015614057578161403e8882613fd1565b975061404983614c65565b92505060018101905061402b565b5085935050505092915050565b61406d81614e0e565b82525050565b600061407e82614c4f565b6140888185614c83565b9350614098818560208601614eb1565b6140a181615114565b840191505092915050565b6140b581614e90565b82525050565b6140c481614e90565b82525050565b60006140d582614c5a565b6140df8185614c94565b93506140ef818560208601614eb1565b6140f881615114565b840191505092915050565b600061410e82614c5a565b6141188185614ca5565b9350614128818560208601614eb1565b80840191505092915050565b6000614141602b83614c94565b915061414c8261513f565b604082019050919050565b6000614164603283614c94565b915061416f8261518e565b604082019050919050565b6000614187602683614c94565b9150614192826151dd565b604082019050919050565b60006141aa602583614c94565b91506141b58261522c565b604082019050919050565b60006141cd601c83614c94565b91506141d88261527b565b602082019050919050565b60006141f0603a83614c94565b91506141fb826152a4565b604082019050919050565b6000614213602483614c94565b915061421e826152f3565b604082019050919050565b6000614236601983614c94565b915061424182615342565b602082019050919050565b6000614259602483614c94565b91506142648261536b565b604082019050919050565b600061427c604083614c94565b9150614287826153ba565b604082019050919050565b600061429f602c83614c94565b91506142aa82615409565b604082019050919050565b60006142c2603883614c94565b91506142cd82615458565b604082019050919050565b60006142e5602a83614c94565b91506142f0826154a7565b604082019050919050565b6000614308602983614c94565b9150614313826154f6565b604082019050919050565b600061432b602e83614c94565b915061433682615545565b604082019050919050565b600061434e601c83614c94565b915061435982615594565b602082019050919050565b6000614371602083614c94565b915061437c826155bd565b602082019050919050565b6000614394603183614c94565b915061439f826155e6565b604082019050919050565b60006143b7603583614c94565b91506143c282615635565b604082019050919050565b60006143da602c83614c94565b91506143e582615684565b604082019050919050565b60006143fd602083614c94565b9150614408826156d3565b602082019050919050565b6000614420602f83614c94565b915061442b826156fc565b604082019050919050565b6000614443602183614c94565b915061444e8261574b565b604082019050919050565b6000614466602583614c94565b91506144718261579a565b604082019050919050565b6000614489603183614c94565b9150614494826157e9565b604082019050919050565b60006144ac602c83614c94565b91506144b782615838565b604082019050919050565b60006144cf602c83614c94565b91506144da82615887565b604082019050919050565b600060408301600080840185830360008701526145028382614007565b9250506001840154905061451581614f30565b61452260208701826140ac565b50819250505092915050565b60608201600080830154905061454381614f4a565b614550600086018261458c565b506001830154905061456181614f16565b61456e6020860182613fe9565b5061457881614f64565b61458560408601826140ac565b5050505050565b61459581614e79565b82525050565b6145a481614e79565b82525050565b6145b381614e83565b82525050565b60006145c58285614103565b91506145d18284614103565b91508190509392505050565b60006020820190506145f26000830184613ff8565b92915050565b600060608201905061460d6000830186613ff8565b61461a6020830185613ff8565b614627604083018461459b565b949350505050565b60006080820190506146446000830187613ff8565b6146516020830186613ff8565b61465e604083018561459b565b81810360608301526146708184614073565b905095945050505050565b60006060820190506146906000830186613ff8565b81810360208301526146a281856140ca565b90506146b160408301846140bb565b949350505050565b60006040820190506146ce6000830185613ff8565b6146db602083018461459b565b9392505050565b60006020820190506146f76000830184614064565b92915050565b600060208201905061471260008301846140bb565b92915050565b6000602082019050818103600083015261473281846140ca565b905092915050565b6000602082019050818103600083015261475381614134565b9050919050565b6000602082019050818103600083015261477381614157565b9050919050565b600060208201905081810360008301526147938161417a565b9050919050565b600060208201905081810360008301526147b38161419d565b9050919050565b600060208201905081810360008301526147d3816141c0565b9050919050565b600060208201905081810360008301526147f3816141e3565b9050919050565b6000602082019050818103600083015261481381614206565b9050919050565b6000602082019050818103600083015261483381614229565b9050919050565b600060208201905081810360008301526148538161424c565b9050919050565b600060208201905081810360008301526148738161426f565b9050919050565b6000602082019050818103600083015261489381614292565b9050919050565b600060208201905081810360008301526148b3816142b5565b9050919050565b600060208201905081810360008301526148d3816142d8565b9050919050565b600060208201905081810360008301526148f3816142fb565b9050919050565b600060208201905081810360008301526149138161431e565b9050919050565b6000602082019050818103600083015261493381614341565b9050919050565b6000602082019050818103600083015261495381614364565b9050919050565b6000602082019050818103600083015261497381614387565b9050919050565b60006020820190508181036000830152614993816143aa565b9050919050565b600060208201905081810360008301526149b3816143cd565b9050919050565b600060208201905081810360008301526149d3816143f0565b9050919050565b600060208201905081810360008301526149f381614413565b9050919050565b60006020820190508181036000830152614a1381614436565b9050919050565b60006020820190508181036000830152614a3381614459565b9050919050565b60006020820190508181036000830152614a538161447c565b9050919050565b60006020820190508181036000830152614a738161449f565b9050919050565b60006020820190508181036000830152614a93816144c2565b9050919050565b6000602082019050614aaf600083018461459b565b92915050565b6000604082019050614aca600083018561459b565b614ad76020830184613ff8565b9392505050565b600060a082019050614af3600083018861459b565b614b006020830187613ff8565b614b0d6040830186613ff8565b614b1a606083018561459b565b614b2760808301846145aa565b9695505050505050565b6000604082019050614b46600083018561459b565b8181036020830152614b5881846144e5565b90509392505050565b6000602082019050614b7660008301846145aa565b92915050565b6000614b86614b97565b9050614b928282614f7e565b919050565b6000604051905090565b600067ffffffffffffffff821115614bbc57614bbb6150e5565b5b602082029050602081019050919050565b600067ffffffffffffffff821115614be857614be76150e5565b5b614bf182615114565b9050602081019050919050565b600067ffffffffffffffff821115614c1957614c186150e5565b5b614c2282615114565b9050602081019050919050565b60008190508160005260206000209050919050565b600081549050919050565b600081519050919050565b600081519050919050565b6000600282019050919050565b600082825260208201905092915050565b600082825260208201905092915050565b600082825260208201905092915050565b600081905092915050565b6000614cbb82614e79565b9150614cc683614e79565b9250827fffffffffffffffffffffffffffffffffffffffffffffffffffffffffffffffff03821115614cfb57614cfa615029565b5b828201905092915050565b6000614d1182614e79565b9150614d1c83614e79565b925082614d2c57614d2b615058565b5b828204905092915050565b6000614d4282614e79565b9150614d4d83614e79565b9250817fffffffffffffffffffffffffffffffffffffffffffffffffffffffffffffffff0483118215151615614d8657614d85615029565b5b828202905092915050565b6000614d9c82614e79565b9150614da783614e79565b925082821015614dba57614db9615029565b5b828203905092915050565b600073ffffffffffffffffffffffffffffffffffffffff82169050919050565b600060ff82169050919050565b6000819050919050565b6000614e0782614e59565b9050919050565b60008115159050919050565b60007fffffffff0000000000000000000000000000000000000000000000000000000082169050919050565b6000819050614e54826158d6565b919050565b600073ffffffffffffffffffffffffffffffffffffffff82169050919050565b6000819050919050565b600060ff82169050919050565b6000614e9b82614e46565b9050919050565b82818337600083830152505050565b60005b83811015614ecf578082015181840152602081019050614eb4565b83811115614ede576000848401525b50505050565b60006002820490506001821680614efc57607f821691505b60208210811415614f1057614f0f6150b6565b5b50919050565b6000614f29614f2483615125565b614dc5565b9050919050565b6000614f43614f3e83615125565b614de5565b9050919050565b6000614f5d614f5883615125565b614df2565b9050919050565b6000614f77614f7283615132565b614de5565b9050919050565b614f8782615114565b810181811067ffffffffffffffff82111715614fa657614fa56150e5565b5b80604052505050565b6000614fba82614e79565b91507fffffffffffffffffffffffffffffffffffffffffffffffffffffffffffffffff821415614fed57614fec615029565b5b600182019050919050565b600061500382614e79565b915061500e83614e79565b92508261501e5761501d615058565b5b828206905092915050565b7f4e487b7100000000000000000000000000000000000000000000000000000000600052601160045260246000fd5b7f4e487b7100000000000000000000000000000000000000000000000000000000600052601260045260246000fd5b7f4e487b7100000000000000000000000000000000000000000000000000000000600052602160045260246000fd5b7f4e487b7100000000000000000000000000000000000000000000000000000000600052602260045260246000fd5b7f4e487b7100000000000000000000000000000000000000000000000000000000600052604160045260246000fd5b6000601f19601f8301169050919050565b60008160001c9050919050565b60008160a01c9050919050565b7f455243373231456e756d657261626c653a206f776e657220696e646578206f7560008201527f74206f6620626f756e6473000000000000000000000000000000000000000000602082015250565b7f4552433732313a207472616e7366657220746f206e6f6e20455243373231526560008201527f63656976657220696d706c656d656e7465720000000000000000000000000000602082015250565b7f4f776e61626c653a206e6577206f776e657220697320746865207a65726f206160008201527f6464726573730000000000000000000000000000000000000000000000000000602082015250565b7f4552433732313a207472616e736665722066726f6d20696e636f72726563742060008201527f6f776e6572000000000000000000000000000000000000000000000000000000602082015250565b7f4552433732313a20746f6b656e20616c7265616479206d696e74656400000000600082015250565b7f46756e6374696f6e2063616e6e6f742062652063616c6c656420756e74696c2060008201527f636f6e74726163742064656661756c747320617265207365742e000000000000602082015250565b7f4552433732313a207472616e7366657220746f20746865207a65726f2061646460008201527f7265737300000000000000000000000000000000000000000000000000000000602082015250565b7f4552433732313a20617070726f766520746f2063616c6c657200000000000000600082015250565b7f596f752063616e27742072656e7420616e204e46542066726f6d20796f75727360008201527f656c662e00000000000000000000000000000000000000000000000000000000602082015250565b7f54686520766964656f2072656e74657220646f65736e2774206861766520656e60008201527f6f75676820746f6b656e7320746f207761746368207468697320766964656f2e602082015250565b7f4552433732313a206f70657261746f7220717565727920666f72206e6f6e657860008201527f697374656e7420746f6b656e0000000000000000000000000000000000000000602082015250565b7f4552433732313a20617070726f76652063616c6c6572206973206e6f74206f7760008201527f6e6572206e6f7220617070726f76656420666f7220616c6c0000000000000000602082015250565b7f4552433732313a2062616c616e636520717565727920666f7220746865207a6560008201527f726f206164647265737300000000000000000000000000000000000000000000602082015250565b7f4552433732313a206f776e657220717565727920666f72206e6f6e657869737460008201527f656e7420746f6b656e0000000000000000000000000000000000000000000000602082015250565b7f45524337323155524953746f726167653a2055524920736574206f66206e6f6e60008201527f6578697374656e7420746f6b656e000000000000000000000000000000000000602082015250565b7f446179732072656e746564206d6179206e6f74206265207a65726f2e00000000600082015250565b7f4552433732313a206d696e7420746f20746865207a65726f2061646472657373600082015250565b7f45524337323155524953746f726167653a2055524920717565727920666f722060008201527f6e6f6e6578697374656e7420746f6b656e000000000000000000000000000000602082015250565b7f4f6e6c7920746865206f776e6572206f6620616e204e46542063616e2063686160008201527f6e6765206974732072656e74616c2070726963652e0000000000000000000000602082015250565b7f4552433732313a20617070726f76656420717565727920666f72206e6f6e657860008201527f697374656e7420746f6b656e0000000000000000000000000000000000000000602082015250565b7f4f776e61626c653a2063616c6c6572206973206e6f7420746865206f776e6572600082015250565b7f4552433732314d657461646174613a2055524920717565727920666f72206e6f60008201527f6e6578697374656e7420746f6b656e0000000000000000000000000000000000602082015250565b7f4552433732313a20617070726f76616c20746f2063757272656e74206f776e6560008201527f7200000000000000000000000000000000000000000000000000000000000000602082015250565b7f54686520746f6b656e20696420737570706c69656420646f6573206e6f74206560008201527f786973742e000000000000000000000000000000000000000000000000000000602082015250565b7f4552433732313a207472616e736665722063616c6c6572206973206e6f74206f60008201527f776e6572206e6f7220617070726f766564000000000000000000000000000000602082015250565b7f455243373231456e756d657261626c653a20676c6f62616c20696e646578206f60008201527f7574206f6620626f756e64730000000000000000000000000000000000000000602082015250565b7f546865206d6f64657261746f72206d757374206f776e206174206c656173742060008201527f6f6e6520564853204e46542e0000000000000000000000000000000000000000602082015250565b600481106158e7576158e6615087565b5b50565b6158f381614dfc565b81146158fe57600080fd5b50565b61590a81614e0e565b811461591557600080fd5b50565b61592181614e1a565b811461592c57600080fd5b50565b6004811061593c57600080fd5b50565b61594881614e79565b811461595357600080fd5b50565b61595f81614e83565b811461596a57600080fd5b5056fea26469706673582212207910d3af2aa8e9e3bff34cc77042e0b8731a4b74ec654d4ba4f7e4e78350817a64736f6c63430008040033",
  "linkReferences": {},
  "deployedLinkReferences": {}
}