{
  "_format": "hh-sol-artifact-1",
  "contractName": "VideoNFT",
  "sourceName": "contracts/VideoNFT.sol",
  "abi": [
    {
      "inputs": [],
      "stateMutability": "nonpayable",
      "type": "constructor"
    },
    {
      "anonymous": false,
      "inputs": [
        {
          "indexed": true,
          "internalType": "address",
          "name": "owner",
          "type": "address"
        },
        {
          "indexed": true,
          "internalType": "address",
          "name": "approved",
          "type": "address"
        },
        {
          "indexed": true,
          "internalType": "uint256",
          "name": "tokenId",
          "type": "uint256"
        }
      ],
      "name": "Approval",
      "type": "event"
    },
    {
      "anonymous": false,
      "inputs": [
        {
          "indexed": true,
          "internalType": "address",
          "name": "owner",
          "type": "address"
        },
        {
          "indexed": true,
          "internalType": "address",
          "name": "operator",
          "type": "address"
        },
        {
          "indexed": false,
          "internalType": "bool",
          "name": "approved",
          "type": "bool"
        }
      ],
      "name": "ApprovalForAll",
      "type": "event"
    },
    {
      "anonymous": false,
      "inputs": [
        {
          "indexed": false,
          "internalType": "uint256",
          "name": "",
          "type": "uint256"
        },
        {
          "indexed": false,
          "internalType": "address",
          "name": "",
          "type": "address"
        }
      ],
      "name": "Minted",
      "type": "event"
    },
    {
      "anonymous": false,
      "inputs": [
        {
          "indexed": true,
          "internalType": "address",
          "name": "previousOwner",
          "type": "address"
        },
        {
          "indexed": true,
          "internalType": "address",
          "name": "newOwner",
          "type": "address"
        }
      ],
      "name": "OwnershipTransferred",
      "type": "event"
    },
    {
      "anonymous": false,
      "inputs": [
        {
          "indexed": false,
          "internalType": "uint256",
          "name": "",
          "type": "uint256"
        },
        {
          "indexed": false,
          "internalType": "address",
          "name": "",
          "type": "address"
        },
        {
          "indexed": false,
          "internalType": "address",
          "name": "",
          "type": "address"
        },
        {
          "indexed": false,
          "internalType": "uint256",
          "name": "",
          "type": "uint256"
        }
      ],
      "name": "Rented",
      "type": "event"
    },
    {
      "anonymous": false,
      "inputs": [
        {
          "indexed": true,
          "internalType": "address",
          "name": "from",
          "type": "address"
        },
        {
          "indexed": true,
          "internalType": "address",
          "name": "to",
          "type": "address"
        },
        {
          "indexed": true,
          "internalType": "uint256",
          "name": "tokenId",
          "type": "uint256"
        }
      ],
      "name": "Transfer",
      "type": "event"
    },
    {
      "inputs": [
        {
          "internalType": "address",
          "name": "to",
          "type": "address"
        },
        {
          "internalType": "uint256",
          "name": "tokenId",
          "type": "uint256"
        }
      ],
      "name": "approve",
      "outputs": [],
      "stateMutability": "nonpayable",
      "type": "function"
    },
    {
      "inputs": [
        {
          "internalType": "address",
          "name": "owner",
          "type": "address"
        }
      ],
      "name": "balanceOf",
      "outputs": [
        {
          "internalType": "uint256",
          "name": "",
          "type": "uint256"
        }
      ],
      "stateMutability": "view",
      "type": "function"
    },
    {
      "inputs": [
        {
          "internalType": "uint256",
          "name": "tokenId",
          "type": "uint256"
        }
      ],
      "name": "getApproved",
      "outputs": [
        {
          "internalType": "address",
          "name": "",
          "type": "address"
        }
      ],
      "stateMutability": "view",
      "type": "function"
    },
    {
      "inputs": [
        {
          "internalType": "address",
          "name": "owner",
          "type": "address"
        },
        {
          "internalType": "address",
          "name": "operator",
          "type": "address"
        }
      ],
      "name": "isApprovedForAll",
      "outputs": [
        {
          "internalType": "bool",
          "name": "",
          "type": "bool"
        }
      ],
      "stateMutability": "view",
      "type": "function"
    },
    {
      "inputs": [],
      "name": "name",
      "outputs": [
        {
          "internalType": "string",
          "name": "",
          "type": "string"
        }
      ],
      "stateMutability": "view",
      "type": "function"
    },
    {
      "inputs": [],
      "name": "owner",
      "outputs": [
        {
          "internalType": "address",
          "name": "",
          "type": "address"
        }
      ],
      "stateMutability": "view",
      "type": "function"
    },
    {
      "inputs": [
        {
          "internalType": "uint256",
          "name": "tokenId",
          "type": "uint256"
        }
      ],
      "name": "ownerOf",
      "outputs": [
        {
          "internalType": "address",
          "name": "",
          "type": "address"
        }
      ],
      "stateMutability": "view",
      "type": "function"
    },
    {
      "inputs": [],
      "name": "renounceOwnership",
      "outputs": [],
      "stateMutability": "nonpayable",
      "type": "function"
    },
    {
      "inputs": [
        {
          "internalType": "address",
          "name": "erc20ContractAddress",
          "type": "address"
        },
        {
          "internalType": "uint256",
          "name": "tokenId",
          "type": "uint256"
        },
        {
          "internalType": "uint256",
          "name": "amount",
          "type": "uint256"
        }
      ],
      "name": "rentVideo",
      "outputs": [],
      "stateMutability": "nonpayable",
      "type": "function"
    },
    {
      "inputs": [
        {
          "internalType": "address",
          "name": "erc20ContractAddress",
          "type": "address"
        },
        {
          "internalType": "address",
          "name": "to",
          "type": "address"
        },
        {
          "internalType": "string",
          "name": "uri",
          "type": "string"
        },
        {
          "internalType": "uint256",
          "name": "rentalReward",
          "type": "uint256"
        }
      ],
      "name": "safeMint",
      "outputs": [],
      "stateMutability": "nonpayable",
      "type": "function"
    },
    {
      "inputs": [
        {
          "internalType": "address",
          "name": "from",
          "type": "address"
        },
        {
          "internalType": "address",
          "name": "to",
          "type": "address"
        },
        {
          "internalType": "uint256",
          "name": "tokenId",
          "type": "uint256"
        }
      ],
      "name": "safeTransferFrom",
      "outputs": [],
      "stateMutability": "nonpayable",
      "type": "function"
    },
    {
      "inputs": [
        {
          "internalType": "address",
          "name": "from",
          "type": "address"
        },
        {
          "internalType": "address",
          "name": "to",
          "type": "address"
        },
        {
          "internalType": "uint256",
          "name": "tokenId",
          "type": "uint256"
        },
        {
          "internalType": "bytes",
          "name": "_data",
          "type": "bytes"
        }
      ],
      "name": "safeTransferFrom",
      "outputs": [],
      "stateMutability": "nonpayable",
      "type": "function"
    },
    {
      "inputs": [
        {
          "internalType": "address",
          "name": "operator",
          "type": "address"
        },
        {
          "internalType": "bool",
          "name": "approved",
          "type": "bool"
        }
      ],
      "name": "setApprovalForAll",
      "outputs": [],
      "stateMutability": "nonpayable",
      "type": "function"
    },
    {
      "inputs": [
        {
          "internalType": "bytes4",
          "name": "interfaceId",
          "type": "bytes4"
        }
      ],
      "name": "supportsInterface",
      "outputs": [
        {
          "internalType": "bool",
          "name": "",
          "type": "bool"
        }
      ],
      "stateMutability": "view",
      "type": "function"
    },
    {
      "inputs": [],
      "name": "symbol",
      "outputs": [
        {
          "internalType": "string",
          "name": "",
          "type": "string"
        }
      ],
      "stateMutability": "view",
      "type": "function"
    },
    {
      "inputs": [
        {
          "internalType": "uint256",
          "name": "index",
          "type": "uint256"
        }
      ],
      "name": "tokenByIndex",
      "outputs": [
        {
          "internalType": "uint256",
          "name": "",
          "type": "uint256"
        }
      ],
      "stateMutability": "view",
      "type": "function"
    },
    {
      "inputs": [
        {
          "internalType": "address",
          "name": "owner",
          "type": "address"
        },
        {
          "internalType": "uint256",
          "name": "index",
          "type": "uint256"
        }
      ],
      "name": "tokenOfOwnerByIndex",
      "outputs": [
        {
          "internalType": "uint256",
          "name": "",
          "type": "uint256"
        }
      ],
      "stateMutability": "view",
      "type": "function"
    },
    {
      "inputs": [
        {
          "internalType": "uint256",
          "name": "tokenId",
          "type": "uint256"
        }
      ],
      "name": "tokenURI",
      "outputs": [
        {
          "internalType": "string",
          "name": "",
          "type": "string"
        }
      ],
      "stateMutability": "view",
      "type": "function"
    },
    {
      "inputs": [],
      "name": "totalSupply",
      "outputs": [
        {
          "internalType": "uint256",
          "name": "",
          "type": "uint256"
        }
      ],
      "stateMutability": "view",
      "type": "function"
    },
    {
      "inputs": [
        {
          "internalType": "address",
          "name": "from",
          "type": "address"
        },
        {
          "internalType": "address",
          "name": "to",
          "type": "address"
        },
        {
          "internalType": "uint256",
          "name": "tokenId",
          "type": "uint256"
        }
      ],
      "name": "transferFrom",
      "outputs": [],
      "stateMutability": "nonpayable",
      "type": "function"
    },
    {
      "inputs": [
        {
          "internalType": "address",
          "name": "newOwner",
          "type": "address"
        }
      ],
      "name": "transferOwnership",
      "outputs": [],
      "stateMutability": "nonpayable",
      "type": "function"
    }
  ],
  "bytecode": "0x60806040523480156200001157600080fd5b506040518060400160405280600881526020017f566964656f4e46540000000000000000000000000000000000000000000000008152506040518060400160405280600481526020017f5648534e00000000000000000000000000000000000000000000000000000000815250816000908051906020019062000096929190620001a6565b508060019080519060200190620000af929190620001a6565b505050620000d2620000c6620000d860201b60201c565b620000e060201b60201c565b620002bb565b600033905090565b6000600b60009054906101000a900473ffffffffffffffffffffffffffffffffffffffff16905081600b60006101000a81548173ffffffffffffffffffffffffffffffffffffffff021916908373ffffffffffffffffffffffffffffffffffffffff1602179055508173ffffffffffffffffffffffffffffffffffffffff168173ffffffffffffffffffffffffffffffffffffffff167f8be0079c531659141344cd1fd0a4f28419497f9722a3daafe3b4186f6b6457e060405160405180910390a35050565b828054620001b49062000256565b90600052602060002090601f016020900481019282620001d8576000855562000224565b82601f10620001f357805160ff191683800117855562000224565b8280016001018555821562000224579182015b828111156200022357825182559160200191906001019062000206565b5b50905062000233919062000237565b5090565b5b808211156200025257600081600090555060010162000238565b5090565b600060028204905060018216806200026f57607f821691505b602082108114156200028657620002856200028c565b5b50919050565b7f4e487b7100000000000000000000000000000000000000000000000000000000600052602260045260246000fd5b613b6880620002cb6000396000f3fe608060405234801561001057600080fd5b50600436106101375760003560e01c80636352211e116100b8578063a22cb4651161007c578063a22cb4651461034e578063b012fcea1461036a578063b88d4fde14610386578063c87b56dd146103a2578063e985e9c5146103d2578063f2fde38b1461040257610137565b80636352211e146102a857806370a08231146102d8578063715018a6146103085780638da5cb5b1461031257806395d89b411461033057610137565b806323b872dd116100ff57806323b872dd146101f45780632f745c59146102105780633a57687b1461024057806342842e0e1461025c5780634f6ccce71461027857610137565b806301ffc9a71461013c57806306fdde031461016c578063081812fc1461018a578063095ea7b3146101ba57806318160ddd146101d6575b600080fd5b61015660048036038101906101519190612925565b61041e565b6040516101639190612e17565b60405180910390f35b610174610430565b6040516101819190612e32565b60405180910390f35b6101a4600480360381019061019f9190612977565b6104c2565b6040516101b19190612d50565b60405180910390f35b6101d460048036038101906101cf9190612871565b610547565b005b6101de61065f565b6040516101eb91906130d4565b60405180910390f35b61020e6004803603810190610209919061276b565b61066c565b005b61022a60048036038101906102259190612871565b6106cc565b60405161023791906130d4565b60405180910390f35b61025a600480360381019061025591906126f0565b610771565b005b6102766004803603810190610271919061276b565b6108e7565b005b610292600480360381019061028d9190612977565b610907565b60405161029f91906130d4565b60405180910390f35b6102c260048036038101906102bd9190612977565b61099e565b6040516102cf9190612d50565b60405180910390f35b6102f260048036038101906102ed919061268b565b610a50565b6040516102ff91906130d4565b60405180910390f35b610310610b08565b005b61031a610b90565b6040516103279190612d50565b60405180910390f35b610338610bba565b6040516103459190612e32565b60405180910390f35b61036860048036038101906103639190612835565b610c4c565b005b610384600480360381019061037f91906128ad565b610c62565b005b6103a0600480360381019061039b91906127ba565b610d44565b005b6103bc60048036038101906103b79190612977565b610da6565b6040516103c99190612e32565b60405180910390f35b6103ec60048036038101906103e791906126b4565b610db8565b6040516103f99190612e17565b60405180910390f35b61041c6004803603810190610417919061268b565b610e4c565b005b600061042982610f44565b9050919050565b60606000805461043f90613398565b80601f016020809104026020016040519081016040528092919081815260200182805461046b90613398565b80156104b85780601f1061048d576101008083540402835291602001916104b8565b820191906000526020600020905b81548152906001019060200180831161049b57829003601f168201915b5050505050905090565b60006104cd82610fbe565b61050c576040517f08c379a000000000000000000000000000000000000000000000000000000000815260040161050390613014565b60405180910390fd5b6004600083815260200190815260200160002060009054906101000a900473ffffffffffffffffffffffffffffffffffffffff169050919050565b60006105528261099e565b90508073ffffffffffffffffffffffffffffffffffffffff168373ffffffffffffffffffffffffffffffffffffffff1614156105c3576040517f08c379a00000000000000000000000000000000000000000000000000000000081526004016105ba90613074565b60405180910390fd5b8073ffffffffffffffffffffffffffffffffffffffff166105e261102a565b73ffffffffffffffffffffffffffffffffffffffff16148061061157506106108161060b61102a565b610db8565b5b610650576040517f08c379a000000000000000000000000000000000000000000000000000000000815260040161064790612f54565b60405180910390fd5b61065a8383611032565b505050565b6000600880549050905090565b61067d61067761102a565b826110eb565b6106bc576040517f08c379a00000000000000000000000000000000000000000000000000000000081526004016106b390613094565b60405180910390fd5b6106c78383836111c9565b505050565b60006106d783610a50565b8210610718576040517f08c379a000000000000000000000000000000000000000000000000000000000815260040161070f90612e54565b60405180910390fd5b600660008473ffffffffffffffffffffffffffffffffffffffff1673ffffffffffffffffffffffffffffffffffffffff168152602001908152602001600020600083815260200190815260200160002054905092915050565b61077961102a565b73ffffffffffffffffffffffffffffffffffffffff16610797610b90565b73ffffffffffffffffffffffffffffffffffffffff16146107ed576040517f08c379a00000000000000000000000000000000000000000000000000000000081526004016107e490613034565b60405180910390fd5b60006107f9600c611430565b9050610805600c61143e565b61080f8482611454565b610819818461162e565b8473ffffffffffffffffffffffffffffffffffffffff1663a9059cbb85846040518363ffffffff1660e01b8152600401610854929190612dee565b602060405180830381600087803b15801561086e57600080fd5b505af1158015610882573d6000803e3d6000fd5b505050506040513d601f19601f820116820180604052508101906108a691906128fc565b507fb9203d657e9c0ec8274c818292ab0f58b04e1970050716891770eb1bab5d655e81856040516108d89291906130ef565b60405180910390a15050505050565b61090283838360405180602001604052806000815250610d44565b505050565b600061091161065f565b8210610952576040517f08c379a0000000000000000000000000000000000000000000000000000000008152600401610949906130b4565b60405180910390fd5b6008828154811061098c577f4e487b7100000000000000000000000000000000000000000000000000000000600052603260045260246000fd5b90600052602060002001549050919050565b6000806002600084815260200190815260200160002060009054906101000a900473ffffffffffffffffffffffffffffffffffffffff169050600073ffffffffffffffffffffffffffffffffffffffff168173ffffffffffffffffffffffffffffffffffffffff161415610a47576040517f08c379a0000000000000000000000000000000000000000000000000000000008152600401610a3e90612f94565b60405180910390fd5b80915050919050565b60008073ffffffffffffffffffffffffffffffffffffffff168273ffffffffffffffffffffffffffffffffffffffff161415610ac1576040517f08c379a0000000000000000000000000000000000000000000000000000000008152600401610ab890612f74565b60405180910390fd5b600360008373ffffffffffffffffffffffffffffffffffffffff1673ffffffffffffffffffffffffffffffffffffffff168152602001908152602001600020549050919050565b610b1061102a565b73ffffffffffffffffffffffffffffffffffffffff16610b2e610b90565b73ffffffffffffffffffffffffffffffffffffffff1614610b84576040517f08c379a0000000000000000000000000000000000000000000000000000000008152600401610b7b90613034565b60405180910390fd5b610b8e60006116a2565b565b6000600b60009054906101000a900473ffffffffffffffffffffffffffffffffffffffff16905090565b606060018054610bc990613398565b80601f0160208091040260200160405190810160405280929190818152602001828054610bf590613398565b8015610c425780601f10610c1757610100808354040283529160200191610c42565b820191906000526020600020905b815481529060010190602001808311610c2557829003601f168201915b5050505050905090565b610c5e610c5761102a565b8383611768565b5050565b8273ffffffffffffffffffffffffffffffffffffffff166323b872dd33610c888561099e565b846040518463ffffffff1660e01b8152600401610ca793929190612d6b565b602060405180830381600087803b158015610cc157600080fd5b505af1158015610cd5573d6000803e3d6000fd5b505050506040513d601f19601f82011682018060405250810190610cf991906128fc565b507f7dae66d475361a8bb7f184659d94e913b124102c2f9536297faeeae42f7728cd8233610d268561099e565b84604051610d379493929190613118565b60405180910390a1505050565b610d55610d4f61102a565b836110eb565b610d94576040517f08c379a0000000000000000000000000000000000000000000000000000000008152600401610d8b90613094565b60405180910390fd5b610da0848484846118d5565b50505050565b6060610db182611931565b9050919050565b6000600560008473ffffffffffffffffffffffffffffffffffffffff1673ffffffffffffffffffffffffffffffffffffffff16815260200190815260200160002060008373ffffffffffffffffffffffffffffffffffffffff1673ffffffffffffffffffffffffffffffffffffffff16815260200190815260200160002060009054906101000a900460ff16905092915050565b610e5461102a565b73ffffffffffffffffffffffffffffffffffffffff16610e72610b90565b73ffffffffffffffffffffffffffffffffffffffff1614610ec8576040517f08c379a0000000000000000000000000000000000000000000000000000000008152600401610ebf90613034565b60405180910390fd5b600073ffffffffffffffffffffffffffffffffffffffff168173ffffffffffffffffffffffffffffffffffffffff161415610f38576040517f08c379a0000000000000000000000000000000000000000000000000000000008152600401610f2f90612e94565b60405180910390fd5b610f41816116a2565b50565b60007f780e9d63000000000000000000000000000000000000000000000000000000007bffffffffffffffffffffffffffffffffffffffffffffffffffffffff1916827bffffffffffffffffffffffffffffffffffffffffffffffffffffffff19161480610fb75750610fb682611a83565b5b9050919050565b60008073ffffffffffffffffffffffffffffffffffffffff166002600084815260200190815260200160002060009054906101000a900473ffffffffffffffffffffffffffffffffffffffff1673ffffffffffffffffffffffffffffffffffffffff1614159050919050565b600033905090565b816004600083815260200190815260200160002060006101000a81548173ffffffffffffffffffffffffffffffffffffffff021916908373ffffffffffffffffffffffffffffffffffffffff160217905550808273ffffffffffffffffffffffffffffffffffffffff166110a58361099e565b73ffffffffffffffffffffffffffffffffffffffff167f8c5be1e5ebec7d5bd14f71427d1e84f3dd0314c0f7b2291e5b200ac8c7c3b92560405160405180910390a45050565b60006110f682610fbe565b611135576040517f08c379a000000000000000000000000000000000000000000000000000000000815260040161112c90612f34565b60405180910390fd5b60006111408361099e565b90508073ffffffffffffffffffffffffffffffffffffffff168473ffffffffffffffffffffffffffffffffffffffff1614806111af57508373ffffffffffffffffffffffffffffffffffffffff16611197846104c2565b73ffffffffffffffffffffffffffffffffffffffff16145b806111c057506111bf8185610db8565b5b91505092915050565b8273ffffffffffffffffffffffffffffffffffffffff166111e98261099e565b73ffffffffffffffffffffffffffffffffffffffff161461123f576040517f08c379a000000000000000000000000000000000000000000000000000000000815260040161123690612eb4565b60405180910390fd5b600073ffffffffffffffffffffffffffffffffffffffff168273ffffffffffffffffffffffffffffffffffffffff1614156112af576040517f08c379a00000000000000000000000000000000000000000000000000000000081526004016112a690612ef4565b60405180910390fd5b6112ba838383611b65565b6112c5600082611032565b6001600360008573ffffffffffffffffffffffffffffffffffffffff1673ffffffffffffffffffffffffffffffffffffffff168152602001908152602001600020600082825461131591906132ae565b925050819055506001600360008473ffffffffffffffffffffffffffffffffffffffff1673ffffffffffffffffffffffffffffffffffffffff168152602001908152602001600020600082825461136c9190613227565b92505081905550816002600083815260200190815260200160002060006101000a81548173ffffffffffffffffffffffffffffffffffffffff021916908373ffffffffffffffffffffffffffffffffffffffff160217905550808273ffffffffffffffffffffffffffffffffffffffff168473ffffffffffffffffffffffffffffffffffffffff167fddf252ad1be2c89b69c2b068fc378daa952ba7f163c4a11628f55a4df523b3ef60405160405180910390a461142b838383611b75565b505050565b600081600001549050919050565b6001816000016000828254019250508190555050565b600073ffffffffffffffffffffffffffffffffffffffff168273ffffffffffffffffffffffffffffffffffffffff1614156114c4576040517f08c379a00000000000000000000000000000000000000000000000000000000081526004016114bb90612fd4565b60405180910390fd5b6114cd81610fbe565b1561150d576040517f08c379a000000000000000000000000000000000000000000000000000000000815260040161150490612ed4565b60405180910390fd5b61151960008383611b65565b6001600360008473ffffffffffffffffffffffffffffffffffffffff1673ffffffffffffffffffffffffffffffffffffffff16815260200190815260200160002060008282546115699190613227565b92505081905550816002600083815260200190815260200160002060006101000a81548173ffffffffffffffffffffffffffffffffffffffff021916908373ffffffffffffffffffffffffffffffffffffffff160217905550808273ffffffffffffffffffffffffffffffffffffffff16600073ffffffffffffffffffffffffffffffffffffffff167fddf252ad1be2c89b69c2b068fc378daa952ba7f163c4a11628f55a4df523b3ef60405160405180910390a461162a60008383611b75565b5050565b61163782610fbe565b611676576040517f08c379a000000000000000000000000000000000000000000000000000000000815260040161166d90612fb4565b60405180910390fd5b80600a6000848152602001908152602001600020908051906020019061169d92919061249a565b505050565b6000600b60009054906101000a900473ffffffffffffffffffffffffffffffffffffffff16905081600b60006101000a81548173ffffffffffffffffffffffffffffffffffffffff021916908373ffffffffffffffffffffffffffffffffffffffff1602179055508173ffffffffffffffffffffffffffffffffffffffff168173ffffffffffffffffffffffffffffffffffffffff167f8be0079c531659141344cd1fd0a4f28419497f9722a3daafe3b4186f6b6457e060405160405180910390a35050565b8173ffffffffffffffffffffffffffffffffffffffff168373ffffffffffffffffffffffffffffffffffffffff1614156117d7576040517f08c379a00000000000000000000000000000000000000000000000000000000081526004016117ce90612f14565b60405180910390fd5b80600560008573ffffffffffffffffffffffffffffffffffffffff1673ffffffffffffffffffffffffffffffffffffffff16815260200190815260200160002060008473ffffffffffffffffffffffffffffffffffffffff1673ffffffffffffffffffffffffffffffffffffffff16815260200190815260200160002060006101000a81548160ff0219169083151502179055508173ffffffffffffffffffffffffffffffffffffffff168373ffffffffffffffffffffffffffffffffffffffff167f17307eab39ab6107e8899845ad3d59bd9653f200f220920489ca2b5937696c31836040516118c89190612e17565b60405180910390a3505050565b6118e08484846111c9565b6118ec84848484611b7a565b61192b576040517f08c379a000000000000000000000000000000000000000000000000000000000815260040161192290612e74565b60405180910390fd5b50505050565b606061193c82610fbe565b61197b576040517f08c379a000000000000000000000000000000000000000000000000000000000815260040161197290612ff4565b60405180910390fd5b6000600a6000848152602001908152602001600020805461199b90613398565b80601f01602080910402602001604051908101604052809291908181526020018280546119c790613398565b8015611a145780601f106119e957610100808354040283529160200191611a14565b820191906000526020600020905b8154815290600101906020018083116119f757829003601f168201915b505050505090506000611a25611d11565b9050600081511415611a3b578192505050611a7e565b600082511115611a70578082604051602001611a58929190612d2c565b60405160208183030381529060405292505050611a7e565b611a7984611d28565b925050505b919050565b60007f80ac58cd000000000000000000000000000000000000000000000000000000007bffffffffffffffffffffffffffffffffffffffffffffffffffffffff1916827bffffffffffffffffffffffffffffffffffffffffffffffffffffffff19161480611b4e57507f5b5e139f000000000000000000000000000000000000000000000000000000007bffffffffffffffffffffffffffffffffffffffffffffffffffffffff1916827bffffffffffffffffffffffffffffffffffffffffffffffffffffffff1916145b80611b5e5750611b5d82611dcf565b5b9050919050565b611b70838383611e39565b505050565b505050565b6000611b9b8473ffffffffffffffffffffffffffffffffffffffff16611f4d565b15611d04578373ffffffffffffffffffffffffffffffffffffffff1663150b7a02611bc461102a565b8786866040518563ffffffff1660e01b8152600401611be69493929190612da2565b602060405180830381600087803b158015611c0057600080fd5b505af1925050508015611c3157506040513d601f19601f82011682018060405250810190611c2e919061294e565b60015b611cb4573d8060008114611c61576040519150601f19603f3d011682016040523d82523d6000602084013e611c66565b606091505b50600081511415611cac576040517f08c379a0000000000000000000000000000000000000000000000000000000008152600401611ca390612e74565b60405180910390fd5b805181602001fd5b63150b7a0260e01b7bffffffffffffffffffffffffffffffffffffffffffffffffffffffff1916817bffffffffffffffffffffffffffffffffffffffffffffffffffffffff191614915050611d09565b600190505b949350505050565b606060405180602001604052806000815250905090565b6060611d3382610fbe565b611d72576040517f08c379a0000000000000000000000000000000000000000000000000000000008152600401611d6990613054565b60405180910390fd5b6000611d7c611d11565b90506000815111611d9c5760405180602001604052806000815250611dc7565b80611da684611f70565b604051602001611db7929190612d2c565b6040516020818303038152906040525b915050919050565b60007f01ffc9a7000000000000000000000000000000000000000000000000000000007bffffffffffffffffffffffffffffffffffffffffffffffffffffffff1916827bffffffffffffffffffffffffffffffffffffffffffffffffffffffff1916149050919050565b611e4483838361211d565b600073ffffffffffffffffffffffffffffffffffffffff168373ffffffffffffffffffffffffffffffffffffffff161415611e8757611e8281612122565b611ec6565b8173ffffffffffffffffffffffffffffffffffffffff168373ffffffffffffffffffffffffffffffffffffffff1614611ec557611ec4838261216b565b5b5b600073ffffffffffffffffffffffffffffffffffffffff168273ffffffffffffffffffffffffffffffffffffffff161415611f0957611f04816122d8565b611f48565b8273ffffffffffffffffffffffffffffffffffffffff168273ffffffffffffffffffffffffffffffffffffffff1614611f4757611f46828261241b565b5b5b505050565b6000808273ffffffffffffffffffffffffffffffffffffffff163b119050919050565b60606000821415611fb8576040518060400160405280600181526020017f30000000000000000000000000000000000000000000000000000000000000008152509050612118565b600082905060005b60008214611fea578080611fd3906133fb565b915050600a82611fe3919061327d565b9150611fc0565b60008167ffffffffffffffff81111561202c577f4e487b7100000000000000000000000000000000000000000000000000000000600052604160045260246000fd5b6040519080825280601f01601f19166020018201604052801561205e5781602001600182028036833780820191505090505b5090505b600085146121115760018261207791906132ae565b9150600a856120869190613444565b60306120929190613227565b60f81b8183815181106120ce577f4e487b7100000000000000000000000000000000000000000000000000000000600052603260045260246000fd5b60200101907effffffffffffffffffffffffffffffffffffffffffffffffffffffffffffff1916908160001a905350600a8561210a919061327d565b9450612062565b8093505050505b919050565b505050565b6008805490506009600083815260200190815260200160002081905550600881908060018154018082558091505060019003906000526020600020016000909190919091505550565b6000600161217884610a50565b61218291906132ae565b9050600060076000848152602001908152602001600020549050818114612267576000600660008673ffffffffffffffffffffffffffffffffffffffff1673ffffffffffffffffffffffffffffffffffffffff168152602001908152602001600020600084815260200190815260200160002054905080600660008773ffffffffffffffffffffffffffffffffffffffff1673ffffffffffffffffffffffffffffffffffffffff168152602001908152602001600020600084815260200190815260200160002081905550816007600083815260200190815260200160002081905550505b6007600084815260200190815260200160002060009055600660008573ffffffffffffffffffffffffffffffffffffffff1673ffffffffffffffffffffffffffffffffffffffff16815260200190815260200160002060008381526020019081526020016000206000905550505050565b600060016008805490506122ec91906132ae565b9050600060096000848152602001908152602001600020549050600060088381548110612342577f4e487b7100000000000000000000000000000000000000000000000000000000600052603260045260246000fd5b90600052602060002001549050806008838154811061238a577f4e487b7100000000000000000000000000000000000000000000000000000000600052603260045260246000fd5b9060005260206000200181905550816009600083815260200190815260200160002081905550600960008581526020019081526020016000206000905560088054806123ff577f4e487b7100000000000000000000000000000000000000000000000000000000600052603160045260246000fd5b6001900381819060005260206000200160009055905550505050565b600061242683610a50565b905081600660008573ffffffffffffffffffffffffffffffffffffffff1673ffffffffffffffffffffffffffffffffffffffff168152602001908152602001600020600083815260200190815260200160002081905550806007600084815260200190815260200160002081905550505050565b8280546124a690613398565b90600052602060002090601f0160209004810192826124c8576000855561250f565b82601f106124e157805160ff191683800117855561250f565b8280016001018555821561250f579182015b8281111561250e5782518255916020019190600101906124f3565b5b50905061251c9190612520565b5090565b5b80821115612539576000816000905550600101612521565b5090565b600061255061254b84613182565b61315d565b90508281526020810184848401111561256857600080fd5b612573848285613356565b509392505050565b600061258e612589846131b3565b61315d565b9050828152602081018484840111156125a657600080fd5b6125b1848285613356565b509392505050565b6000813590506125c881613ad6565b92915050565b6000813590506125dd81613aed565b92915050565b6000815190506125f281613aed565b92915050565b60008135905061260781613b04565b92915050565b60008151905061261c81613b04565b92915050565b600082601f83011261263357600080fd5b813561264384826020860161253d565b91505092915050565b600082601f83011261265d57600080fd5b813561266d84826020860161257b565b91505092915050565b60008135905061268581613b1b565b92915050565b60006020828403121561269d57600080fd5b60006126ab848285016125b9565b91505092915050565b600080604083850312156126c757600080fd5b60006126d5858286016125b9565b92505060206126e6858286016125b9565b9150509250929050565b6000806000806080858703121561270657600080fd5b6000612714878288016125b9565b9450506020612725878288016125b9565b935050604085013567ffffffffffffffff81111561274257600080fd5b61274e8782880161264c565b925050606061275f87828801612676565b91505092959194509250565b60008060006060848603121561278057600080fd5b600061278e868287016125b9565b935050602061279f868287016125b9565b92505060406127b086828701612676565b9150509250925092565b600080600080608085870312156127d057600080fd5b60006127de878288016125b9565b94505060206127ef878288016125b9565b935050604061280087828801612676565b925050606085013567ffffffffffffffff81111561281d57600080fd5b61282987828801612622565b91505092959194509250565b6000806040838503121561284857600080fd5b6000612856858286016125b9565b9250506020612867858286016125ce565b9150509250929050565b6000806040838503121561288457600080fd5b6000612892858286016125b9565b92505060206128a385828601612676565b9150509250929050565b6000806000606084860312156128c257600080fd5b60006128d0868287016125b9565b93505060206128e186828701612676565b92505060406128f286828701612676565b9150509250925092565b60006020828403121561290e57600080fd5b600061291c848285016125e3565b91505092915050565b60006020828403121561293757600080fd5b6000612945848285016125f8565b91505092915050565b60006020828403121561296057600080fd5b600061296e8482850161260d565b91505092915050565b60006020828403121561298957600080fd5b600061299784828501612676565b91505092915050565b6129a9816132e2565b82525050565b6129b8816132f4565b82525050565b60006129c9826131e4565b6129d381856131fa565b93506129e3818560208601613365565b6129ec81613531565b840191505092915050565b6000612a02826131ef565b612a0c818561320b565b9350612a1c818560208601613365565b612a2581613531565b840191505092915050565b6000612a3b826131ef565b612a45818561321c565b9350612a55818560208601613365565b80840191505092915050565b6000612a6e602b8361320b565b9150612a7982613542565b604082019050919050565b6000612a9160328361320b565b9150612a9c82613591565b604082019050919050565b6000612ab460268361320b565b9150612abf826135e0565b604082019050919050565b6000612ad760258361320b565b9150612ae28261362f565b604082019050919050565b6000612afa601c8361320b565b9150612b058261367e565b602082019050919050565b6000612b1d60248361320b565b9150612b28826136a7565b604082019050919050565b6000612b4060198361320b565b9150612b4b826136f6565b602082019050919050565b6000612b63602c8361320b565b9150612b6e8261371f565b604082019050919050565b6000612b8660388361320b565b9150612b918261376e565b604082019050919050565b6000612ba9602a8361320b565b9150612bb4826137bd565b604082019050919050565b6000612bcc60298361320b565b9150612bd78261380c565b604082019050919050565b6000612bef602e8361320b565b9150612bfa8261385b565b604082019050919050565b6000612c1260208361320b565b9150612c1d826138aa565b602082019050919050565b6000612c3560318361320b565b9150612c40826138d3565b604082019050919050565b6000612c58602c8361320b565b9150612c6382613922565b604082019050919050565b6000612c7b60208361320b565b9150612c8682613971565b602082019050919050565b6000612c9e602f8361320b565b9150612ca98261399a565b604082019050919050565b6000612cc160218361320b565b9150612ccc826139e9565b604082019050919050565b6000612ce460318361320b565b9150612cef82613a38565b604082019050919050565b6000612d07602c8361320b565b9150612d1282613a87565b604082019050919050565b612d268161334c565b82525050565b6000612d388285612a30565b9150612d448284612a30565b91508190509392505050565b6000602082019050612d6560008301846129a0565b92915050565b6000606082019050612d8060008301866129a0565b612d8d60208301856129a0565b612d9a6040830184612d1d565b949350505050565b6000608082019050612db760008301876129a0565b612dc460208301866129a0565b612dd16040830185612d1d565b8181036060830152612de381846129be565b905095945050505050565b6000604082019050612e0360008301856129a0565b612e106020830184612d1d565b9392505050565b6000602082019050612e2c60008301846129af565b92915050565b60006020820190508181036000830152612e4c81846129f7565b905092915050565b60006020820190508181036000830152612e6d81612a61565b9050919050565b60006020820190508181036000830152612e8d81612a84565b9050919050565b60006020820190508181036000830152612ead81612aa7565b9050919050565b60006020820190508181036000830152612ecd81612aca565b9050919050565b60006020820190508181036000830152612eed81612aed565b9050919050565b60006020820190508181036000830152612f0d81612b10565b9050919050565b60006020820190508181036000830152612f2d81612b33565b9050919050565b60006020820190508181036000830152612f4d81612b56565b9050919050565b60006020820190508181036000830152612f6d81612b79565b9050919050565b60006020820190508181036000830152612f8d81612b9c565b9050919050565b60006020820190508181036000830152612fad81612bbf565b9050919050565b60006020820190508181036000830152612fcd81612be2565b9050919050565b60006020820190508181036000830152612fed81612c05565b9050919050565b6000602082019050818103600083015261300d81612c28565b9050919050565b6000602082019050818103600083015261302d81612c4b565b9050919050565b6000602082019050818103600083015261304d81612c6e565b9050919050565b6000602082019050818103600083015261306d81612c91565b9050919050565b6000602082019050818103600083015261308d81612cb4565b9050919050565b600060208201905081810360008301526130ad81612cd7565b9050919050565b600060208201905081810360008301526130cd81612cfa565b9050919050565b60006020820190506130e96000830184612d1d565b92915050565b60006040820190506131046000830185612d1d565b61311160208301846129a0565b9392505050565b600060808201905061312d6000830187612d1d565b61313a60208301866129a0565b61314760408301856129a0565b6131546060830184612d1d565b95945050505050565b6000613167613178565b905061317382826133ca565b919050565b6000604051905090565b600067ffffffffffffffff82111561319d5761319c613502565b5b6131a682613531565b9050602081019050919050565b600067ffffffffffffffff8211156131ce576131cd613502565b5b6131d782613531565b9050602081019050919050565b600081519050919050565b600081519050919050565b600082825260208201905092915050565b600082825260208201905092915050565b600081905092915050565b60006132328261334c565b915061323d8361334c565b9250827fffffffffffffffffffffffffffffffffffffffffffffffffffffffffffffffff0382111561327257613271613475565b5b828201905092915050565b60006132888261334c565b91506132938361334c565b9250826132a3576132a26134a4565b5b828204905092915050565b60006132b98261334c565b91506132c48361334c565b9250828210156132d7576132d6613475565b5b828203905092915050565b60006132ed8261332c565b9050919050565b60008115159050919050565b60007fffffffff0000000000000000000000000000000000000000000000000000000082169050919050565b600073ffffffffffffffffffffffffffffffffffffffff82169050919050565b6000819050919050565b82818337600083830152505050565b60005b83811015613383578082015181840152602081019050613368565b83811115613392576000848401525b50505050565b600060028204905060018216806133b057607f821691505b602082108114156133c4576133c36134d3565b5b50919050565b6133d382613531565b810181811067ffffffffffffffff821117156133f2576133f1613502565b5b80604052505050565b60006134068261334c565b91507fffffffffffffffffffffffffffffffffffffffffffffffffffffffffffffffff82141561343957613438613475565b5b600182019050919050565b600061344f8261334c565b915061345a8361334c565b92508261346a576134696134a4565b5b828206905092915050565b7f4e487b7100000000000000000000000000000000000000000000000000000000600052601160045260246000fd5b7f4e487b7100000000000000000000000000000000000000000000000000000000600052601260045260246000fd5b7f4e487b7100000000000000000000000000000000000000000000000000000000600052602260045260246000fd5b7f4e487b7100000000000000000000000000000000000000000000000000000000600052604160045260246000fd5b6000601f19601f8301169050919050565b7f455243373231456e756d657261626c653a206f776e657220696e646578206f7560008201527f74206f6620626f756e6473000000000000000000000000000000000000000000602082015250565b7f4552433732313a207472616e7366657220746f206e6f6e20455243373231526560008201527f63656976657220696d706c656d656e7465720000000000000000000000000000602082015250565b7f4f776e61626c653a206e6577206f776e657220697320746865207a65726f206160008201527f6464726573730000000000000000000000000000000000000000000000000000602082015250565b7f4552433732313a207472616e736665722066726f6d20696e636f72726563742060008201527f6f776e6572000000000000000000000000000000000000000000000000000000602082015250565b7f4552433732313a20746f6b656e20616c7265616479206d696e74656400000000600082015250565b7f4552433732313a207472616e7366657220746f20746865207a65726f2061646460008201527f7265737300000000000000000000000000000000000000000000000000000000602082015250565b7f4552433732313a20617070726f766520746f2063616c6c657200000000000000600082015250565b7f4552433732313a206f70657261746f7220717565727920666f72206e6f6e657860008201527f697374656e7420746f6b656e0000000000000000000000000000000000000000602082015250565b7f4552433732313a20617070726f76652063616c6c6572206973206e6f74206f7760008201527f6e6572206e6f7220617070726f76656420666f7220616c6c0000000000000000602082015250565b7f4552433732313a2062616c616e636520717565727920666f7220746865207a6560008201527f726f206164647265737300000000000000000000000000000000000000000000602082015250565b7f4552433732313a206f776e657220717565727920666f72206e6f6e657869737460008201527f656e7420746f6b656e0000000000000000000000000000000000000000000000602082015250565b7f45524337323155524953746f726167653a2055524920736574206f66206e6f6e60008201527f6578697374656e7420746f6b656e000000000000000000000000000000000000602082015250565b7f4552433732313a206d696e7420746f20746865207a65726f2061646472657373600082015250565b7f45524337323155524953746f726167653a2055524920717565727920666f722060008201527f6e6f6e6578697374656e7420746f6b656e000000000000000000000000000000602082015250565b7f4552433732313a20617070726f76656420717565727920666f72206e6f6e657860008201527f697374656e7420746f6b656e0000000000000000000000000000000000000000602082015250565b7f4f776e61626c653a2063616c6c6572206973206e6f7420746865206f776e6572600082015250565b7f4552433732314d657461646174613a2055524920717565727920666f72206e6f60008201527f6e6578697374656e7420746f6b656e0000000000000000000000000000000000602082015250565b7f4552433732313a20617070726f76616c20746f2063757272656e74206f776e6560008201527f7200000000000000000000000000000000000000000000000000000000000000602082015250565b7f4552433732313a207472616e736665722063616c6c6572206973206e6f74206f60008201527f776e6572206e6f7220617070726f766564000000000000000000000000000000602082015250565b7f455243373231456e756d657261626c653a20676c6f62616c20696e646578206f60008201527f7574206f6620626f756e64730000000000000000000000000000000000000000602082015250565b613adf816132e2565b8114613aea57600080fd5b50565b613af6816132f4565b8114613b0157600080fd5b50565b613b0d81613300565b8114613b1857600080fd5b50565b613b248161334c565b8114613b2f57600080fd5b5056fea2646970667358221220050da1422017a21c686506bc830504ea7c78b02ee9d82659ff8387108cf584b064736f6c63430008040033",
  "linkReferences": {},
  "deployedLinkReferences": {}
}